:02000002B0004C
:1040000000400B006CD20B00000006000D00050202
:084010000401A30F00000000F1
:0440180004BF0B00D6
:1040200009480A49884208B505D0094A824202D0A7
:10403000121A07F009FD0748074A0021121A07F073
:104040002BFD014808BD00BFD4E2032038D10B008E
:10405000E0E30320E0E30320F0E7032070B5074E20
:10406000074C06F02FFEA41BA4080025AC4200D18B
:1040700070BD56F8043B98470135F7E7CCD00B00EC
:1040800004D10B0001F070B808B501F089FBBDE860
:10409000084006F0CFBD05F04FB805F04DB805F06B
:1040A00053B80078B0FA80F04009704701230370DC
:1040B00070470000014B01221A70704700E6032090
:1040C000014B1A60704700BFD8E20320014B012268
:1040D0001A707047C1E50320436913B183690C303E
:1040E0001847704730B585B00446089860B14068FD
:1040F00050B1856845B1CDE90241CDE90023C468DE
:1041000001AB6A4602A9A04705B030BD10B50368EF
:104110002F2B044604D9074A07490A2004F0A2FEBF
:1041200023681F2B83BF03F01F03044823604FF055
:10413000A04010BDC58A0B0096BF0B0000030050C5
:1041400008B5044906F0DBF918B1034B06221A70D2
:10415000012008BD94BF0B0070E5032010B5034B90
:104160000360044602F034F9204610BD94C50B00EC
:1041700010B50446FFF7F2FF20461021FFF78FFF2E
:10418000204610BD13B500210446084604F012FC79
:104190000023204601A9019304F024FC019C0CB1EA
:1041A000012323710021012004F004FC2CB12368B9
:1041B00020469B6898470023237102B010BD30B59C
:1041C00085B0006813680193D1E900458368CDE9A3
:1041D00002450BB906F0E2FEC36801AA02A998479E
:1041E00005B030BD012A02D1016000207047022ACB
:1041F00004BF0B680360F8E703681268D1E90001A7
:104200001847012A02D1016000207047022A04BF2A
:104210000B680360F8E703681268D1E900011847EA
:10422000012A02D1016000207047022A04BF0B68F6
:104230000360F8E70368184710B40368DC683023AC
:10424000A4465DF8044B604737B504689DF81850E4
:104250008DF800308DF8045024683C23A04703B04B
:1042600030BD000070B5012A92B00AD0531C24D092
:1042700012B9214B01221A70204B01221A7012B080
:1042800070BD1D4B1E4D002414261C702E6306F0BD
:10429000B6FB1C4A00903346402102A804F074FF8C
:1042A00002F018FE184B8DF800401B78174902AA3F
:1042B000FFF7CAFF85F83C40DEE70F4B104C0025A6
:1042C00016261D70266306F09AFB0E4A00903346B0
:1042D000402102A804F058FF02F0FCFD0A4B8DF8C3
:1042E00000501B78094902AAFFF7AEFF94F83C3052
:1042F000013384F83C30BFE7ADE4032020E5032020
:1043000024E50320BABF0B0045E40320DCBF0B000B
:1043100010B5C4B000680A2203A907F0BFFCB0F5CD
:10432000966F1BD80E4C606004F056FE88B163682F
:104330000C4A4FF4807104A804F026FF02F0CAFD75
:1043400000238DF80030084B08491B7804AAFFF7BA
:104350007BFF074B0120187044B010BD0020FBE725
:1043600080E50320EFBF0B0045E4032008C00B00ED
:10437000B0E5032037B51749054606F0C0F80446F6
:1043800090B1154B01245C7202F0A4FD00238DF85E
:104390000030124B124A1B781249FFF755FF124B9F
:1043A00020461C7003B030BD1049284606F0A7F81F
:1043B0000028F7D0084B5C7202F08CFD074B8DF89B
:1043C00000401B780A4A0749FFF73EFF064B0120D1
:1043D0001870E7E794BF0B0080E5032045E4032055
:1043E00013C00B0036C00B00B0E5032024C00B0047
:1043F00026C00B0013B502F06DFD084B1978084B71
:104400001A7803688DF804108DF800201C68054A9E
:1044100005493C23A04702B010BD00BF44E403207F
:1044200045E40320C8CE0B003BC00B0007B58068F5
:104430000B4630B10021CDE900210A46032104F0EA
:10444000D9FA03B05DF804FB08B5002004F0ECFDD8
:1044500028B104F0C1FD80F00100C0B208BD012008
:10446000FCE70023042204F097BD000070B5037D33
:1044700005460E46CBB10368DB6823B19A88042A4F
:1044800016D09B68F9E70B49102006F07DFD044625
:1044900060B11022002107F0FFFA074B23600423CC
:1044A000A3802B692C61C4E9023670BD2875FCE736
:1044B000DE60FAE7A8CE0B001000030010B5836899
:1044C000044613B1032201469847204610BD10B59B
:1044D000044638B1FFF7F2FF20461021BDE8104036
:1044E000FFF7DDBD10BD000037B5134B0360044678
:1044F0008068C8B100256FF00043CDE90035022186
:104500002B462A4604F076FAA068294604F0B2FA4F
:10451000237903F0FF0513B104F034FAF8E7A0683B
:10452000294604F057FAA56004F10C00FFF7C6FF16
:10453000204603B030BD00BF80C50B0010B5044657
:10454000FFF7D2FF20461C21FFF7A9FD204610BD32
:10455000002340681A46194604F0AEBDF8B5037D45
:1045600005460F4616468BB10368DB6883B19A880F
:10457000012A06D09B68F9E79B684BB19A88012A0B
:10458000FAD12BB19A89BA42F6D19E732846F8BD6A
:104590000A49102006F0F8FC044668B110220021F8
:1045A00007F07AFA064B23600123A3802B69A360EE
:1045B000A781A6732C61E9E72875E7E7A8CE0B0071
:1045C0001000030010B50446006818B104F0BCFDEB
:1045D0000023236010BD07B501230822CDE9002385
:1045E0004FF47A71002341436A46184604F02CFDCB
:1045F00003B05DF804FB000037B51E49054605F021
:104600007EFF044608B31C4C012360686370FFF70B
:10461000E2FF636819484FF47A716FF00042594322
:10462000FFF704FF04F0D8FC50B102F053FC002364
:104630008DF80030124B134A1B781349FFF704FE24
:10464000124B0120187003B030BD1149284605F007
:1046500056FF0028F7D0084B5C7004F0BDFC002822
:10466000EED002F037FC064B8DF800401B78094A6B
:10467000E3E700BF94BF0B0080E50320D8E40320EC
:1046800045E403203DC00B0036C00B00B0E503201D
:1046900024C00B0052C00B000EB400B58CB00DAAA4
:1046A0004FF0200C52F8041B0392CDE900120023B6
:1046B000016804AA1E20CDE904C304F0E3FB0CB09A
:1046C0005DF804EB03B07047F7B5324D324C2B78F0
:1046D000BFF35B8F060171B3D80709D42846FFF7F3
:1046E000E0FC28B104F01EFA20602846FFF7DEFC4B
:1046F00023689B5D5F012B78BFF35B8FD90709D4DB
:104700002448FFF7CEFC28B104F00CFA20602148C1
:10471000FFF7CCFC2068064401A8737803F01F0360
:104720003B430193FFF7F2FC019A01239340C0F849
:10473000083503B0F0BDDA0709D42846FFF7B1FC0D
:1047400028B104F0EFF920602846FFF7AFFC23689A
:104750009B5D5F012B78BFF35B8FDB0709D40D48AE
:10476000FFF79FFC28B104F0DDF920600948FFF74E
:104770009DFC2068064401A8737803F01F033B43A7
:104780000193FFF7C3FC019A01239340C0F80C3555
:10479000CFE700BFE0E30320E4E303200C4B5A6AB9
:1047A000998DFF2A84BF00225A620A4A12689142F8
:1047B00084BF00219985084B998E8A4204D2002239
:1047C0009A86064B01221A70054B01221A70704717
:1047D00080E50320D4E2032024E5032020E5032024
:1047E000B0E5032008B501210520FFF76DFF00218A
:1047F0000520FFF769FF024B00221A7008BD00BFB9
:1048000000E6032030B51D4CCFB0236AE0690C935D
:1048100006F02CFDCDE90A01A06906F027FDCDE9DF
:104820000801606906F022FDE36A0593CDE90601FF
:10483000A36A2069049306F019FDCDE90201E0683E
:1048400006F014FD0E4ACDE900014FF480710EA868
:1048500004F09AFC02F03EFB0A4B0B491A780B4B12
:104860001B78002513438DF800500EAAFFF7ECFCCF
:10487000074B256301221A704FB030BD24E5032099
:1048800066C00B0046E40320F1C00B0045E40320A2
:10489000ACE4032030B5114D114C124B2A7821782D
:1048A0008DB003EB0212009203EB01130E4A282194
:1048B00002A804F069FC2B78237004F08DFB50B142
:1048C00002F008FB00238DF80030084B08491B78E4
:1048D00002AAFFF7B9FC0DB030BD00BF70E50320A0
:1048E00018E50320E0E2032004C10B0045E40320A7
:1048F00012C10B0030B5194D0FCD97B00CAC0FC4E1
:104900000FCD0FC495E8030084E80300144904A800
:1049100004F0ECFC04A804F02CFD044604A804F008
:1049200061FD04A810EE105A04F08CFD16AB10EED9
:10493000100A03EB840406F099FCCDE90201284635
:1049400006F094FCCDE90001064A54F8283C0648DC
:10495000402104F019FC17B030BD00BFA8C50B0002
:1049600038E6032023C10B00F8E3032008B504F068
:1049700033FB80F00100C0B208BD000030B585B047
:10498000002401A8CDE90144ADF80C4004F002FE7A
:10499000204604F0AFF843F698250446002004F0C2
:1049A000A9F8001B61F10001A84271F1000305D2D2
:1049B000FFF7DCFF10B904F0FFFAEFE7FFF7D6FFCF
:1049C0000948002319461A46406804F07DFB074B4E
:1049D00000221A72064B01244FF4FA601C7004F096
:1049E00037FC204605B030BD38E6032080E50320C3
:1049F000B0E5032008B504F06DF8B0F57A7F34BF58
:104A00000020012008BD000030B585B00D46002211
:104A10006946009204F03EFA90B9009C0CB12369FB
:104A200023B9084A08490A2004F01CFA0C23CDE9EE
:104A300001350423039301AA2369012120469847E5
:104A400005B030BDC58A0B003CC10B0030B50E4D22
:104A50000FCD89B001AC0FC495E8070084E80700CA
:104A600069460720FFF7D0FF0028A8BF0098074A33
:104A700008AB03EB8000102150F81C3C044809B03F
:104A8000BDE8304004F080BBD0C50B006ECB0B00FE
:104A900074E4032038B5002383608B6804460D4618
:104AA0002BB102229847EB68E360AB68A360204615
:104AB00038BD012A37B5044604D10B6803600020D5
:104AC00003B030BD022A0CD0032AF8D10468002CB0
:104AD000F5D02046FFF7F2FC10212046FFF7DFFA61
:104AE000EDE7096801911020FFF7D5FA054610B1EE
:104AF0000199FFF7CFFF2560E1E738B50468054667
:104B00007CB16368013B63605BB9236820469B68A6
:104B10009847A368013BA3601BB923682046DB6864
:104B20009847284638BD000030B50B78234D95B026
:104B30000C4683B9224904A806F0EEFF6B7A002BDD
:104B40003AD004F049FA002836D0FFF753FF20BBD3
:104B500004F032FAF9E7084606F054FFC8280DD1F0
:104B6000184904A806F0D8FF05F049FF164B286144
:104B700001221A70154B00221A70DFE7204606F05A
:104B800041FFC928ECD0204606F03CFF104A0346FE
:104B9000402104A804F0F8FAD0E7FFF72BFF0D4BF3
:104BA0000D491B788DF8003002A83C2304AA04F0BC
:104BB0000DFE03A8FFF7A1FF15B030BD80E503206F
:104BC00062C10B006AC10B00B0E50320ACE4032016
:104BD0007CC10B0045E4032099C10B0030B5284986
:104BE00085B0044605F08BFCD0B12549204605F080
:104BF00086FC0546E0B92349204605F080FC58B103
:104C0000214B22492248DD72FFF746FD04F0E4F90A
:104C1000F8B9204B05221A701F4B0120187005E0CF
:104C20001849204605F06BFC0028DED105B030BDE8
:104C3000154B1A4916480122DA72FFF72DFD04F0D0
:104C4000CBF90028E8D0FFF7D5FE40B904F0B4F95D
:104C5000F9E7FFF7CFFE10B904F0AEF9F9E7FFF777
:104C6000C9FE0F4B0F4A1B788DF8003002A80E4981
:104C70003C2304F0ABFD03A8FFF73FFFCCE700BFE8
:104C800094BF0B0024C00B0080E50320B9C10B00CA
:104C900070E6032070E50320B0E50320A6C10B00F9
:104CA00045E40320F8E4032036C00B0070B5614CE6
:104CB000614886B00025257001F0AAFDB5EE400AD6
:104CC000F1EE10FA00F0AA805B4801F0A1FD10EEB1
:104CD000100A84ED030A06F0C9FA584ACDE900012A
:104CE0001021574804F050FA534801F09FFD10EE90
:104CF000100A84ED040A06F0B9FA524ACDE900011F
:104D00001021514804F040FA504801F035FA4F485C
:104D100084ED050A01F050FA4C4884ED060A01F0D2
:104D2000CCF907EE900AF8EE677A64261320C4EDFA
:104D3000077A06F05BF82B4640F68A622946009611
:104D400004F07AFAA062122006F050F82B4640F6E2
:104D50008A622946009604F06FFAE062606906F004
:104D600085FA3B4ACDE9000110213A4804F00CFADB
:104D7000A06906F07BFA384ACDE9000110213748D6
:104D800004F002FAE06906F071FA354ACDE9000153
:104D90001021344804F0F8F902A90320FFF734FE8B
:104DA00000283ED1BDF8083007EE903AFBEECC7AF1
:104DB000FDEEE77A102117EE903A2B4A2B48C4ED0E
:104DC000087A04F0E1F9FFF741FE02A90320FFF79A
:104DD0001BFE48BBBDF8083007EE903AFBEECC7ADC
:104DE000FDEEE77A224A17EE903A1D2BC2ED037AC8
:104DF0001DDC01239372D37A4BB91E4902A805F03A
:104E0000D0FA02A8FFF7EAFE02A805F07FFA012512
:104E1000257005F0F4FD184B60601D70284606B043
:104E200070BDFFEE007AC3E7FFEE007AD8E70023FB
:104E30009372ECE724E5032064E50320D0C10B0066
:104E4000B1E50320D8C10B00C8E40320C4E503206A
:104E5000E0C10B0008E50320ECC10B0001E60320D4
:104E6000FAC10B00E8E3032006C20B0084E4032030
:104E700080E5032094BF0B0020E5032010B586B029
:104E800004F0AAF8A0B1FFF7B5FD10B904F094F84A
:104E9000F9E7FFF7AFFD194B194A1B788DF8003081
:104EA00002A818493C2304F091FC03A8FFF725FE53
:104EB000154C16481649FFF7EFFB01232370042019
:104EC00000236372A37205F07EFFA0B1114902A80E
:104ED00005F067FA02A8FFF781FE02A805F016FAAE
:104EE000094A0D4801210023E175A38506B0BDE8FC
:104EF0001040FFF7A1B90949E9E700BF45E40320E5
:104F00000AC20B0036C00B0080E5032070E60320C8
:104F100022C20B0094BF0B00B0E4032024C00B009E
:104F2000F0B53B4A3B4D1268AB8D0132934295B0D0
:104F300032D90023AB85384E00227068114604F048
:104F4000B3F808B1FFF7D6FCAB8D344A402104A872
:104F500004F01AF9324804A9FFF79EFB04F03CF86C
:104F60000446F8B12F492E48FFF796FB6B7A63B1E0
:104F70002D4B2E491B788DF8003002A83C2304AA43
:104F800004F024FC03A8FFF7B8FD294A012313709D
:104F9000284A137015B0F0BD274A918E994238BF48
:104FA0009386C8E7024601467068234F1E4E04F000
:104FB0007BF80546C0B1214919481E25FFF76CFB57
:104FC0003D6305F01CFD1E4A00902B46402104A8BD
:104FD00004F0DAF801F07EFF8DF8004033781949CB
:104FE00004AAFFF731F9D0E717490D481F24FFF74E
:104FF00053FB3C6305F003FD114A0090234640211A
:1050000004A804F0C1F801F065FF8DF80050E5E751
:10501000D4E2032080E5032038E603203AC20B00E7
:1050200070E603204FC20B0045E403206BC20B0067
:10503000B0E5032020E5032024E5032074C20B0023
:10504000BABF0B00DCBF0B009BC20B0013B50B46B5
:105050000246D0E900016C4684E8030093E80300AF
:1050600082E8030094E8030083E8030002B010BD67
:105070002DE9F04194B005461A9904A817461E463A
:10508000FFF708FD04A908A8FFF704FD08A90CA86C
:10509000FFF700FD4FF000081020CDF84880FEF724
:1050A000FAFF044668B1C0F8088001460CA8FFF773
:1050B000CDFF0E9BA2680E92A360E2680F9BE36097
:1050C0000F92244B1393244B1293002200234FF092
:1050D0000008C5E90023214BC5F808801020109472
:1050E000CDE90138CDF80C80FEF7D5FF0446D8B1E4
:1050F000129BC0F8088033B1022210A99847139B75
:10510000E360129BA360164B0393164A029401AB13
:105110003846314603F0E0FEB0B12046FFF7CEF945
:1051200010212046FEF7BBFF10A8FFF7C7F90CA817
:10513000FFF7C4F908A8FFF7C1F904A8FFF7BEF903
:10514000284614B0BDE8F081029BAB60C5E900764B
:10515000EAE700BFBF410B00B34A0B0002000C009E
:10516000CF440B00E5400B002DE9F0430021A7B030
:10517000082005F017FE0121052005F013FE00218F
:10518000042005F00FFE0021132005F00BFEFFF7B1
:1051900029FB0023009301224FF0FF33B849082078
:1051A00004F026FEB74B06AA03F1100591461868D5
:1051B0005968144603C40833AB422246F7D1198814
:1051C0009B78A3702D222180AF4FB04E00210DF1AE
:1051D0002B0006F061FC022502A83D7003F004FFDD
:1051E00002A916A8002405F01CF9A94916A805F083
:1051F00071F9CDE90044A74900682346224603F02F
:1052000003FF16A805F082F802A805F07FF8A24B6C
:105210001693A24B1993A24B189316AB4FF48072BE
:10522000009302A80023FFF723FF16A8FFF746F913
:105230009C4B16939C4B19939C4B189316AB4FF4B5
:105240008022009302A80023FFF712FF16A8FFF7A1
:1052500035F9974B97481968FFF703F9964997482E
:10526000FFF7FFF896499748FFF7FBF896499748EC
:10527000FFF7F7F896499748FFF7F3F896499748EC
:10528000FFF7EFF896499748FFF7EBF896499748EC
:10529000FFF7E7F82A4696499648234603F07CFE36
:1052A000234601229449954803F076FE9449954897
:1052B000FFF7D7F894499548FFF7D3F82A46944961
:1052C0009448234603F068FE2346092292499348F6
:1052D00003F062FE8A498B48FFF7C3F823462A464B
:1052E00006F130018E488F4D03F056FE8E4A8F49ED
:1052F0008F4804F03EF98F4A8F498D4804F039F900
:105300008E4A8F498A4804F034F97C4A8D4988488E
:1053100004F02FF98C498D4A854804F02AF94FF0A2
:105320000108032241F2883316A8CDE91623ADF80F
:10533000608004F049F9864808234146438103F020
:10534000A7FA7C21824802F0A5FE824804F082FC84
:105350004FF4FA7003F07CFF7E4804F072FC7E4844
:1053600001F04CF843467C4802AA214601F088F837
:105370009DF80830052B00F01781774801F048F8B8
:10538000764A75480423214601F0C5F84346724821
:1053900002AA214601F074F89DF80830052B00F0B0
:1053A000008187F8008003F095FB6D4B18600C239B
:1053B00033636C48442101F094F948B96A4948467E
:1053C00006F0AAFB01233B7003F084FB644B1860DA
:1053D00005F052FD0146654800F011FF60B903F089
:1053E00079FB5F4C62492060484606F095FB01233B
:1053F0003B7003F06FFB20605C48002100F077FEFB
:105400005A480C2100F06AFE0121584800F060FE65
:10541000FFF7C4F90022114616A8169203F03AFBD2
:10542000169B142B4FF0000240F0CB806B6A0133C7
:10543000032B6B6200F3CF8001F04CFD01F056FFAF
:1054400096F83C30022B40F29D80336B172B00F016
:105450009980002211461724012003F04DFD34638A
:1054600005F0CDFA434A00902346402116A803F0E8
:105470008BFE01F02FFD00238DF800307CE000BF93
:10548000B5400B00ECC50B0070E5032024E50320BC
:10549000ADC20B00294B0B0065420B0017420B00FD
:1054A00003420B00C1400B00F9410B00E5410B002A
:1054B000DCE20320D0C20B00B1E50320D8C20B0010
:1054C000C8E40320E4C20B0008E50320EDC20B0092
:1054D00001E60320F1C20B00E8E30320F7C20B0052
:1054E00084E40320FFC20B0074E4032007C30B0015
:1054F00084E5032016C30B0081E5032044C00B00A4
:10550000F8E4032025C30B00F8E3032032C30B00AB
:10551000A4E5032039C30B0098E5032044C30B0026
:1055200053C30B0080E503205AC30B0041410B001D
:1055300047950B0066C30B0075430B0008C00B00BA
:1055400011430B00F9450B00DD4B0B0073C30B003F
:1055500054E40320C0E40320B0E403202CC60B0075
:105560001CE5032064E5032081C30B00C4E5032090
:105570009EC30B00BABF0B00344B35491B7816AAEB
:10558000FEF762FEEB7A102243B33249324806F04E
:10559000F0FA6B7893B303F01FFD08BB03F00CFD2A
:1055A000F9E7FFF76BFC04E72A46414630232B4816
:1055B00000F066FF40233246A021284800F060FF3B
:1055C000F7E6114616A8169203F064FA169B8C2B88
:1055D0007FF432AF2AE70D2333632DE72049D5E767
:1055E00003F0FAFC6868FEF7F6FF6B681D484FF49D
:1055F0007A716FF000425943FEF718FF042005F05E
:10560000E2FB08B9FFF73AFCFFF750FBAB7A4BB16E
:10561000154916A804F0C5FE16A8FFF7DFFA16A86C
:1056200004F074FE6B7A53B101F054FC00238DF842
:105630000030064B0D491B784A46FEF705FE3B78C5
:105640000BB902233B7027B0BDE8F08345E403208B
:10565000DCBF0B00BAC30B00F8E40320B0E4032066
:10566000BFC30B00D8E4032094BF0B00C5C30B00DD
:10567000374B30B501251D70364B02201870364B64
:1056800008221A70354B002464229C869A6383F8A2
:105690003C40334B334A9A6087B0C3E9004403F07F
:1056A0000BFC2146284603F01FFC2946042003F08A
:1056B000E9F92D4B2D481C611A1D1A602C4A5A60BD
:1056C000C3E902441D7500F0F7FC2A482A4D00F09A
:1056D000E3FF05F0D1FB234601464FF40052284674
:1056E00000F082FE254B2B60254B0293254B264D67
:1056F0000593264B0493264B2B6005F10C0102A861
:105700002C71AC606C61FFF7A1FC6A69049B6B6152
:105710000492059BAA690592AB611E4A2B464FF481
:105720007A71CDE9004405F1080003F04BF902A8B5
:10573000FEF7C4FE05F0A0FB69220146164802F000
:10574000ABFB1648214607B0BDE8304004F0F4B981
:1057500045E4032044E4032046E4032024E5032039
:1057600038E403200000FFFF94E40320C4E5032095
:105770001000030064E50320B0E4032094C50B008F
:10578000F5430B0035420B00D8E4032021420B0007
:1057900080C50B0085410B0054E40320C0E40320C6
:1057A000F0B59E4C2378013B97B0072B5CD8DFE81F
:1057B00013F07B0208007601D500E6012E00A6005A
:1057C0001103974B1B78022B01D0FFF763F8954B21
:1057D000DB7A53B103F07EF9934B1B68C01A934BED
:1057E0001B68984284BF04232370914B1B780BB134
:1057F0000823237005F014F98E4B05460021186824
:1058000004F0DCFF85422FD0062323702CE0844B6C
:105810001B78062B01D0FFF73DF805F0F0F8854B1B
:105820001860FFF743FAFEF7EDFF0523237003F03E
:10583000D3FB40B17D4B804A1A6003F04BF97A4BA1
:1058400018600723E1E7774DAB7A002B3CD1EB7A68
:1058500053B1042005F0B7FA30B1EB68412B3DDDC0
:1058600076497748FEF718FF01F034FB01F025FA7E
:10587000744802F0BBFF744B1B68002B08DB734BB2
:105880000E221A6303F026F9714B1860012323706E
:10589000704B1B780BB1FEF7A5FF6F4C237833B12B
:1058A000604A6E480121FEF7C7FC002323706C4C50
:1058B00023783BB14023654A6848A02100F02BFEC5
:1058C0000023237017B0F0BD042005F07CFA0028F7
:1058D000BDD064495A48FEF7DFFE1FE0322B06DCDC
:1058E00005F09EF8820708D1EB68412BBCDC05F07F
:1058F00097F8C307B8D55C49ECE75C49EAE7484B41
:105900005B4D1B78072B07D003F0E4F8594B186068
:1059100001232B70FEF7BEFF2B780BB9022374E72F
:1059200003F0D8F8534B1B68C01A47F23053984223
:105930009AD9464B28221A63494B01251D7005F060
:105940005EF8384B1B69C01A42F630239842E5D9FD
:1059500003F0C0F83E4B2570186085E7304B1B788C
:10596000042B01D0FEF796FF03F036FB002800F071
:105970008D80FFF703F82D4B3F4D32484FF47A727C
:105980001A6000210223237002F084FB2E6805F0C8
:1059900036F82D6890FBF5F303FB1500301A00284C
:1059A0007BDD8542A8BF05462A4634492448FEF7D8
:1059B00073FE334B1A7D0AB102221A7200220421AF
:1059C0002F48FEF7CBFD4FF47A716943FEF74EFD89
:1059D0002B4903A804F03CFE4FF0FF31194802F0B8
:1059E00059FB284804F036F903F074F80E4B1860A0
:1059F000039B7BB19A88012A0CD19B89042B09D186
:105A0000214906A804F0CDFC06A8FFF7E7F806A890
:105A100004F07CFC03A8FEF7D5FD25E770E5032024
:105A200018E5032080E5032078E5032074E50320D2
:105A3000ADE40320F4E40320905F0100EFC30B000A
:105A400070E6032054E40320D8E2032024E5032079
:105A50001CE5032000E60320B0E50320B0E40320AA
:105A600020E50320CDC30B0046C40B0013C40B007C
:105A7000ACE4032048E4032070E303207AC40B0065
:105A800094E40320C0E4032024C00B00A94804F0E0
:105A90007DFA00283FF46DAF6DE7012584E7A64B42
:105AA0001B78032B01D0FEF7F5FE03F095FA0028D2
:105AB0005DD0FEF763FFA14EA14FA2484FF47A7369
:105AC000336000210223237002F0E4FA3D6804F001
:105AD00096FF3B6890FBF3F202FB13002D1A002D9A
:105AE0004BDDAB42A8BF2B465D1C2A469649974822
:105AF000FEF7D2FD964B1A7D0AB102221A720022DD
:105B000004219348934FFEF729FD4FF47A716943BE
:105B1000FEF7ACFC8E4903A804F09AFD4FF0FF316C
:105B2000884802F0B7FA8C4804F094F802F0D2FFEB
:105B3000039B3860002B3FF46DAF9D88012D7FF4EF
:105B400069AF9B89042B7FF465AF844906A804F0F4
:105B500028FC06A8FFF742F806A804F0D7FB02F0DD
:105B6000B9FF7F4B33607F4B38601D7052E771483F
:105B700004F00CFA00289CD09DE70123B4E76E4B9B
:105B8000794D1B78052B21D0784E33700023AB85DF
:105B9000FEF780FE03F020FA78B175496B48FEF7F6
:105BA0007BFD664B6E4A1A6002F094FF694B1860E9
:105BB0003378062B7FF4B2AE43E602F08BFF6D4BD9
:105BC00018605C48FEF7C4FC03F0FEF902F082FFA7
:105BD000684B1B68C01A4FF47A73B0FBF3F0A885CA
:105BE00003F0FAF9002835D003F0F6F910B10020DF
:105BF00003F012FA002002F07DFF47F2305706460C
:105C0000002002F077FF801B61F10001B84271F1C2
:105C1000000305D2FEF718FC10B903F0CDF9EFE749
:105C2000FEF712FC04F0EBFE444B4D4A1A60A862EA
:105C300002F050FF474B1860FFF772F90023009302
:105C40004D494FF0FF330222042004F0D1F8474BB6
:105C50001B78AEE7494BAA8D1B689A427FF604AECB
:105C6000FFF75EF946493948FEF716FDFEF786FE56
:105C7000EB7D4BB1434906A804F093FB06A8FEF761
:105C8000ADFF06A804F042FB04F0B9FEAB6AC01AEF
:105C900045F2604398427FF641AE0123237002F043
:105CA00019FF394B1860DFE5234B1B78012B01D01E
:105CB000FEF7F0FD02F00EFF334B1B6803F5EA43DD
:105CC00030338342BFF4D0AD304D314A2B6B40218D
:105CD00006A803F059FA03F07FF960B12D4B2E4965
:105CE0001B788DF8003003A83C2306AA03F06EFD54
:105CF00004A8FEF702FF154806A9FEF7CDFC4FF4F5
:105D0000FA6003F0A5FA03F067F960B1FEF736FE1A
:105D10002B6B0D2B53D041DC0C2B4DD11E21094890
:105D200002F012FBA0E5034804F030F90028EDD0A2
:105D3000EEE700BF38E6032018E5032074E50320F2
:105D400070E3032054E4032091C40B0070E60320A9
:105D500094E4032078E50320C0E4032024C00B0072
:105D6000905F0100B0E5032080E5032047E40320B5
:105D7000AFC40B004CE40320CD400B00D4E2032061
:105D8000D6C40B0094BF0B001CE5032024E50320C0
:105D9000F4C40B0045E4032018C50B001E3B012B87
:105DA0000AD804F02CFE2A4A012190622948FEF705
:105DB00043FA642003F04CFA04F046FC54E5244A0C
:105DC0002448002301215362FEF736FA642003F0D1
:105DD0003FFAA3E7204B1B78082B09D002F07AFE8C
:105DE0001E4B1F4918601F48FEF756FCFEF752FD78
:105DF0001D4B1B780BB91D496CE502F06BFE174B70
:105E00001B68C01A1A4B98427FF62EAD194D1A49DD
:105E100014481526FEF740FC2E6304F0F0FD174AE7
:105E200000903346402106A803F0AEF901F052F885
:105E300000238DF80030124B12491B7806AAFEF79A
:105E400003FA95F83C30013385F83C3066E500BF35
:105E500080E50320B0E4032018E5032050E403208C
:105E600024C50B0070E60320ADE4032041C50B0000
:105E7000BF27090024E503205BC50B00BABF0B0058
:105E800045E40320DCBF0B00426000220170027277
:105E9000704710B5037A044653B12178606803F067
:105EA0006DFF606803F08DFFB0FA80F0400910BD0F
:105EB00000F003F80028F0D1F9E710B50446406877
:105EC00003F02AFF012323722046BDE81040FFF7AC
:105ED000E0BF2DE9F843DDE908961F469319202B12
:105EE00004468846154602D90020BDE8F8830178AB
:105EF000406803F043FF7EB9606803682A46DB68A8
:105F0000414698478542EFD16068394603F055FF16
:105F1000B0FA80F04009E8E7B9F1000FECD0606812
:105F200003683246DB68494698478642DCD1E3E79E
:105F3000202A70B506460C4615460FD801784068F1
:105F400003F007FFA84209D12518A54208D07068C0
:105F500003685B69984704F8010BF6E7002070BD01
:105F60000120FCE773B51D460023CDE900339DF801
:105F70001C30069E0446FFF7ACFF40B101233246B9
:105F80002946204602B0BDE87040FFF7D1BF02B0FD
:105F900070BD10B5016082809DF80C109DF808203E
:105FA000C1710272837110BD1FB583888DF80C30EA
:105FB0001B0A8DF80D30C379019303AB0093006881
:105FC0000123FFF786FF05B05DF804FBF0B40C4633
:105FD00002B98279042A13D800F1090583182946E9
:105FE000834209D0077AE6B227B92E70240A013518
:105FF000013BF5E71E72F9E7F0BC1846FFF7D4BF86
:106000000020F0BC704713B504460B46818804F8A5
:10601000091F0021CDE90021012221460068FFF778
:10602000A1FF02B010BD38B500F1090582792946FB
:106030000446FFF7E8FF78B1A27929462244002000
:10604000A2420BD00302207A20B9107A1843013AF9
:106050000131F5E70878F9E74FF0FF3038BD10B5AA
:1060600001600271437110BD10B504460068FFF76E
:10607000DAFF23795A1C012393406279013BD04017
:10608000184010BD70B5044600680E46FFF7CBFF00
:1060900023796179013301229A40531E03FA01F5F5
:1060A00020EA05053340206803FA01F1294382798B
:1060B000BDE87040FFF78ABF704708B54068FFF73A
:1060C000B2FF80B208BDC06981F00101FFF7DABFFD
:1060D000006AFFF7D7BF406AFFF7D4BF806AFFF7B7
:1060E000D1BF08B5806AFFF7BFFFC0B208BDC06A64
:1060F000FFF7C8BF08B5C06AFFF7B6FFC0B208BD5A
:1061000010B52DED028B0446B0EE408AFFF7F2FF8A
:10611000022818D0032813D0012803D1F6EE007A04
:1061200028EE278A2046FFF7DCFF01380B2814D819
:10613000DFE800F0181B1E13131313111313130CB5
:10614000F1EE007AECE7F2EE007AE9E7F1EE007AA0
:1061500028EE278A01E038EE088AB0EE480ABDEC46
:10616000028B10BDF6EE007AF2E7F5EE007AEFE76B
:10617000F4EE007AECE7000010B504464068FFF743
:1061800052FF07EE900A2046B8EE670AFFF7B8FF05
:1061900010EE100A05F06AF805A3D3E9002305F014
:1061A000BDF805F0B3FB00EE100A10BDAFF30080A0
:1061B00092CB7F48BF7DAD3F10B504468068FFF7A6
:1061C00032FF07EE900A2046B8EE670AFFF798FF05
:1061D00010EE100A05F04AF805A3D3E9002305F0F4
:1061E0009DF805F093FB00EE100A10BDAFF30080A0
:1061F00092CB7F48BF7DAD3F006BFFF743BF7FB5BC
:1062000004460C200391FDF746FF054618B1039A9A
:106210001021FFF739FEA5632846FFF74EFE05461D
:10622000002800F0D2801020FDF735FF064638B177
:1062300001230022CDE90023A16B0223FFF7A9FE71
:1062400026601020FDF727FF064638B10023012203
:10625000CDE90032A16B0223FFF79BFEE660102020
:10626000FDF719FF064640B100230122CDE90032B7
:106270000223A16B1A46FFF78CFE26611020FDF762
:106280000AFF064648B100234FF0010ECDE9003E5B
:10629000A16B02230322FFF77CFE66611020FDF74D
:1062A000FAFE064648B100234FF0010CCDE9003C50
:1062B000A16B02230422FFF76CFE66601020FDF73D
:1062C000EAFE064640B100230121CDE90031052256
:1062D000A16B0223FFF75DFEA6601020FDF7DBFE39
:1062E000064640B100230122CDE90032A16B022312
:1062F0000622FFF74EFEA6610820FDF7CCFE0646FB
:1063000020B1216800230122FFF7A9FEE6610820E1
:10631000FDF7C1FE064620B1012321681A46FFF7AA
:106320009EFE26620820FDF7B6FE064620B12168D3
:1063300004230222FFF793FE66620820FDF7ABFEFE
:10634000064620B1216806230422FFF788FEA662D4
:106350000820FDF7A0FE064620B121680B2302228B
:10636000FFF77DFEE6620820FDF795FE064620B1A8
:10637000616900230122FFF772FE26630820FDF702
:106380008AFE064620B1616901230222FFF767FEFB
:10639000002120466663FFF796FE00212046FFF7A6
:1063A00097FE00212046FFF796FE00212046FFF7CA
:1063B0009EFE00212046FFF791FE00212046FFF7B8
:1063C0001BFF01212046FFF77EFE284604B070BD6A
:1063D000704710B510210446FDF761FE204610BD40
:1063E0000368C9B29B68184730B5034DC0E9022362
:1063F000C0E9005130BD00BF64C60B00406803F027
:106400008BBC10B50446006803F0E7FC204610BDC5
:106410002DE9F0418AB004464068019003F0D4FCB5
:106420001E22002102A8A76805F036FB0026EFB166
:1064300023681E2FB84628BF4FF01E08DD6802AA49
:10644000434631462046A847054658B90A480B49F5
:106450003246FEF721F901A8FFF7D3FF28460AB01C
:10646000BDE8F081A7EB08074644E0E701A8FFF785
:10647000C8FF0125F2E700BF70E6032030C60B001D
:106480002DE9F7430446406801900D4616461F4625
:1064900003F09AFCA7B1E168606841F0500103F095
:1064A00071FC290A6068FFF79BFF29466068FFF7C7
:1064B00097FF6068002103F080FC48B1002400E0F1
:1064C000012401A8FFF79DFF204603B0BDE8F0833B
:1064D000202F217B6068B84628BF4FF02008012399
:1064E000424641F0500103F034FC04F0C5FC03685F
:1064F0001B6998474045E1DB06EB080904F0BCFC4A
:1065000003685B69984706F8010B4E45F6D1454490
:10651000A7EB0807BEE72DE9F74F04464068019056
:106520000E4690461D4603F04FFC4FF00109B9F1AD
:10653000000F2AD04DB3E168606841F0500103F0CC
:1065400021FC310A6068FFF74BFF60683146FFF7B6
:1065500047FFA5F11E0A4746A6EB080B606817F82F
:10656000011B0368013D9B68984755450BEB0706E7
:10657000B84601D0002DF1D16068012103F01DFC67
:106580000028D7D04FF00009D1E701A8FFF739FF65
:10659000484603B0BDE8F08F2DE9F0438BB00E46BE
:1065A00015468046406801901C4603F00DFCAE4243
:1065B00029D2264425448CB11E2C2746D8F8003019
:1065C00028BF1E27F61BD3F8089002AA3B46314687
:1065D0004046ED1BC84748B9002400E0012401A84B
:1065E000FFF70FFF20460BB0BDE8F083D8F800306E
:1065F00002AAD3F80C9029463B464046C8470028DB
:10660000EAD0E41BD7E7E9D9002CE7D0D8F800306E
:106610001E2C274628BF1E27D3F8089002AA3B4607
:1066200031464046C8470028D6D0D8F8003002AAE4
:10663000D3F80C9029463B464046C8470028CBD0AB
:106640003E443D44E41BDFE7014B024A1A607047B9
:1066500014E6032078C60B0010B501230374836889
:10666000044643B1C0689847012363740020BDE825
:10667000104002F0F7B900680028F5D083680BB924
:1066800004F08CFCC368EEE7014B024A1A607047C5
:1066900018E6032080C60B00704738B505460C4647
:1066A00004F0EAFB297803F069FB04F0E5FB0368DA
:1066B000210A9B68984704F0DFFB0368E1B29B68FE
:1066C000984704F0D9FBBDE8384003F07ABB08B521
:1066D00043F2A201FFF7E1FFBDE808400A2002F003
:1066E000B7BD38B504460D4604F0C6FB03F014FBF5
:1066F00020462570FFF7EBFF012038BD0A44FF203C
:1067000091420ED011F8013B5840082310F0800F41
:106710004FEA400018BF80F03100013BC0B2F5D114
:10672000EEE770470000000073B54FF410510546C6
:10673000FFF7B3FF4FF4FA7002F08AFD04F09CFB00
:106740002978062203F017FB04F096FB03681B6907
:1067500098470628044602D0002002B070BD6E465D
:1067600004F08AFB03685B699847013C14F0FF045E
:1067700006F8010B6946F3D102222846FFF7BEFF57
:106780009DF802408442E7D102220DF10301284620
:10679000FFF7B4FF9DF805408442DDD1BDF800004D
:1067A000BDF8034040BA80B204F03EFD16A3D3E921
:1067B000002304F0B3FD10A3D3E9002304F0D8FEB6
:1067C0000F4B002204F0F2FB05F0A0F8A86060BABD
:1067D00080B204F029FD0B4B002204F09FFD06A3BC
:1067E000D3E9002304F0C4FE05F090F868600120AE
:1067F000B3E700BFAFF3008000000000E0FFEF4010
:1068000000804640000059400000000000E0654064
:1068100010B50446FFF788FF10B194ED020A10BDD1
:106820009FED010AFBE700BF0000C07F10B50446E2
:10683000FFF77AFF10B194ED010A10BD9FED010A38
:10684000FBE700BF0000C07F012A02D101600020E9
:106850007047022A04BF0B680360F8E738B5056883
:10686000044635B12846FDF729FE10212846FDF7DC
:1068700016FC20461421BDE83840FDF710BC10B5C9
:1068800003680446ABB1586802F074F888B923680D
:106890005A7C12B9586802F07DF82368586802F0F3
:1068A00081F820680023236018B1BDE81040FFF78D
:1068B000D5BF10BD054A026000224260027380F815
:1068C0004F24C0F85824C0F860247047A8C60B00B5
:1068D00010B5074C236843B940F26440FDF7DBFB79
:1068E000034608B1FFF7E6FF2360206810BD00BF34
:1068F0001CE6032038B50446406890B10223237398
:10690000FFF7BDFF656855B12846FFF7B8FF286857
:1069100008B1FFF7A3FF04212846FDF7C0FB0023C1
:10692000636038BD10B5054B03600446FFF7E2FF16
:1069300004F58A60FDF7C2FD204610BDA8C60B0015
:1069400010B50446FFF7EEFF204640F26441FDF724
:10695000A6FB204610BDF0B5044689B000F10D0637
:1069600000F14E07237B1BB9012002F071FCF9E70F
:10697000237B022B64D0A06802F04CF8A06802F0E0
:1069800051F894F84F348DF800303A463C233146A4
:1069900006A802F01BFF069D6B7833B9237B022B00
:1069A00003D0012002F054FCF5E7D4F858341BB3AF
:1069B000002002F0A9FA20B16B7813B902F0FCFABA
:1069C000FAE72B78D4F860240592591E4B424B41CC
:1069D0008DF80B30D4F85834CDE903670BB904F0C7
:1069E000DDFA05AB0093D4F85C5404AB03AA0DF1B7
:1069F0000B0104F58A60A847A06802F00BF8237B1E
:106A0000022B17D0D4F858340025C4F8605443B191
:106A100004F58A61032208469847C4F85854C4F81C
:106A20005C540023A068237301F0FCFF07A8FEF765
:106A300064F897E7A06801F0F5FF07A8FEF75DF896
:106A400009B0F0BD0068FFF786BF00002DE9F743ED
:106A500006468846142026491746994604F094FABB
:106A6000044630B10020C4E90000C4E902002074EB
:106A700060743460002C31D01D49102004F084FA79
:106A8000054668B10023836001463846FEF7DEFA0A
:106A9000BB68AA68BA60AB60EA68FB68EB60FA6042
:106AA0002768256037B13846FDF708FD10213846C4
:106AB000FDF7F5FA3068036883B10A9B4A46CDE9D1
:106AC000000341460B4B043001F04CFF30B93368F2
:106AD0001B7C4BB9012001F0EDFFF8E73068002383
:106AE000336008B1FFF7BAFE304603B0BDE8F0836B
:106AF000A8CE0B0059660B0030B5436887B004463A
:106B0000C3B9083001F07EFF0B4B059304200B4BFB
:106B100002940493FDF7BFFA054638B14FF4406381
:106B200000930749022302AAFFF790FF656002A8BD
:106B3000FDF7C4FC07B030BD456A0B0049680B0087
:106B400089C60B002DE9F043044685B080680C9F90
:106B500098460D46164601F05DFF63681BB1237B26
:106B600003F0FF0933B1A06801F05CFF002005B01D
:106B7000BDE8F083A06801F055FF002D3DD0402214
:106B8000294604F10D0004F0F4FF84F84D908EB313
:106B900040F20142314604F14E0004F0EAFF84F86D
:106BA0004E9400230293BB6804F58A653BB1022230
:106BB000394668469847FB680393BB6802932946A9
:106BC0006846FEF743FA029BD4F85824C4F85834B8
:106BD000039B02926846D4F85C24C4F85C340392A8
:106BE000FDF76CFC0D9BC4F86034012084F84F84E1
:106BF0002073BCE784F84E60D3E72846B7E7036804
:106C00000A7883F8B120012183F8B010704710B4DE
:106C100042680346541001EB6200D20748BF0A598C
:106C20001B685DF8044B48BFD3581847012A02D1AE
:106C3000016000207047022A04BFD1E90023C0E9A7
:106C40000023F6E7012A02D1016000207047022AE2
:106C500004BF0B680360F8E710B504468AB0084625
:106C60004FF0200C0021CDE90023CDE902C10B46F5
:106C700002AA216802F006F90AB010BD0EB403B5ED
:106C800003AB012153F8042B0193FFF7E5FF02B09A
:106C90005DF804EB03B070470EB403B503AB3221CB
:106CA00053F8042B0193FFF7D7FF02B05DF804EB14
:106CB00003B07047406F01F0C5BED0F8C830014640
:106CC0001BB1D0F8CC30C03018477047F8B5124D22
:106CD0000846002A18BF15460E461F4604F041FF1D
:106CE000402816D8284604F03CFFB0F5806F10D835
:106CF0004330FDF7D2F9044648B1314600F8017B34
:106D000004F00AFF294604F1420004F005FF204682
:106D1000F8BD0024FBE700BFC8CE0B00F0B59FB064
:106D20000A4600230E46011D08A800F041FE0898FF
:106D3000002104F0D7FF054608A803F0E7FA002D6C
:106D400060D008A9284604F0BBFF0C9B2E492F48B1
:106D50003246FFF793FF00221146284604F0B8FFA1
:106D6000082206A9284604F0D1FF0C9F4A2F39DDDE
:106D7000274B069A9A4235D1264B079A9A4231D12F
:106D8000A7F1080210460592FDF787F90446C0B145
:106D900027440146059A284604F0B8FF17F8093C35
:106DA000ABB9631C1846059304F0DBFE3F28059B36
:106DB0000DD804F142020092174914483246FFF7F9
:106DC0005DFF284604F074FF20461FB0F0BD134954
:106DD0000E483246FFF752FF43212046FDF75FF988
:106DE0000024EEE7BDF81E3002939DF81D3001939C
:106DF0009DF81C3000930A49069B04483246FFF771
:106E00003DFFEDE72C46DFE7B0C60B0020E6032090
:106E10006376B63101084100C4C60B00E6C60B001C
:106E200014C70B002DE9F8438046284B48F8043B73
:106E30000446404600F0D4FC022264230025C4E945
:106E40001B230823E367C4E92055C4E92255C4E99C
:106E50002455C4E92655A5672020FDF71CF9E66FE7
:106E6000A067013E760800EB860907464FF40070E4
:106E7000FDF711F900F50073C4E92503C4F8883063
:106E80004FF4FA614FF47A73C4E92D1347F230538B
:106E900047F82600C4F88400C4F88000C4F89000C5
:106EA000C4E92855C4E92A550949C4F88C90C4F8A6
:106EB0009C90C4F8B050C4F8BC30C4F8C8504046E8
:106EC00000F0D4FC2046BDE8F88300BF24C90B00C5
:106ED00059C70B0038B5064D2B683BB9D020FDF7DC
:106EE000DAF8044608B1FFF79DFF2C60286838BD2A
:106EF00024E603204269436A9B1A9B105A1ED0E97C
:106F000006315B1A9B1003EBC21302698068101AEA
:106F100003EBA000704738B50546FFF7CBFE05F13F
:106F20007800FFF7E7FF044650B9281D00F094FFF2
:106F3000D5F8A03004461BB1D5F8A43003B901340C
:106F4000686F01F087FD204638BD10B5026983687F
:106F5000043A9342044602D00433A36010BDC068D3
:106F60004FF40071FDF79BF863691A1D62615B685D
:106F7000E36003F500722261EFE700002DE9F04FB6
:106F800085B00446FFF796FEDFF8A490DFF8A4A0D2
:106F9000DFF8A4B0D4F88030D4F89020934205D123
:106FA000606F05B0BDE8F04F01F054BD04F178000A
:106FB00004F104081F68FFF7C8FF404600F0F0FE28
:106FC0000023024641460646684600F0F1FC009860
:106FD00040F2022104F086FE0546684603F096F969
:106FE000C5B1082269462846CDE9009A04F0A0FE02
:106FF00007F1420004F0B5FD394600F1430228468E
:1070000004F096FE284604F053FE084832465946DE
:10701000FFF734FE3146404600F004FF002FB9D0A0
:1070200043213846FDF73BF8B2E700BF20E60320D6
:107030006376B6310108410067C70B002DE9F041C6
:107040000446FFF737FE04F17800FFF753FFE36EC5
:10705000984202D92046FFF791FFDFF844800F4F96
:10706000261D304600F0F8FE236F984204DC606F66
:10707000BDE8F04101F0EEBC0121304600F09CFE7D
:1070800005460028EDD001460022304600F0CCFC39
:107090002A4641463846FDF7FFFAE2E720E603209C
:1070A00084C70B0008B5A0F500630B4305D040383A
:1070B00050EA01030BD1092A09D105490548FFF718
:1070C000DDFDFFF707FFBDE80840FFF757BF08BD2C
:1070D00097C70B0020E6032070B50368044683B110
:1070E000436A45691E1DAE4206D955F8040B4FF49C
:1070F0000071FCF7D4FFF6E7616820688900FCF7AF
:10710000CEFF204670BD00001FB5D1E9002300214D
:10711000044602910AB9D90705D5CDE900230A4BE7
:1071200003930A4B029321466846FDF78FFF029BAB
:10713000A268A360039B02926846E268E360039240
:10714000FDF7BCF904B010BD0F6C0B002D6C0B00EB
:1071500070B586B0044601F03FFF48B9484B02A91C
:10716000CDE9023004F1C000FFF7CEFF06B070BDDC
:1071700094F8B2501DB1012384F8B330F6E701F062
:10718000A9FCD4F8A830C01AD4F8AC30984208D280
:107190002046FFF7C0FEB0FA80F0400984F8B30043
:1071A000E4E7261D2946304600F006FE0146C4F8F5
:1071B000A400002852D02046FFF7B0FD0546C4F8D1
:1071C000A000002835D001F085FC02AE00252D4B33
:1071D000C4F8A800314604F1C00002930395FFF7FC
:1071E00093FFD4E9283003F1420200922649274A4E
:1071F000A4F8B050A84208BF0A46013324492548E4
:1072000084F8B350FFF73AFDFFF762FBD4F8A020F3
:10721000214B0593CDE900651146204B0294049360
:1072200011F8013B4232FFF78DFC3046FDF746F97D
:107230009CE7D4F8A4201A491648FDF72DFA01213D
:10724000304600F0B9FDD4F8A4102A46304600F0CC
:10725000EBFBD4F8A030002BB5D18CE7D4F880300C
:10726000D4F890209A4207D01B68C4F8A03004F1EB
:107270007800FFF76AFEECE7C4F8A0007BE700BFE8
:10728000A5720B001D760B00C6C70B001ECA0B00B3
:10729000E7C70B0020E60320FF6B0B00456C0B00DB
:1072A000CAC70B0013B590F8B230044623B9FFF7F4
:1072B00032FEB0FA80F35B0984F8B33001F08CFE43
:1072C00080B101F007FCD4F8B430C4F8AC30064B00
:1072D000C4F8A80000936946002304F1C00001939C
:1072E000FFF712FF02B010BD51710B0070B50546DB
:1072F00098B0002001F018FE012805D03E493F4813
:10730000FFF7CAFC18B070BD05F1740001F092FBE4
:107310003B4B04933B4B079304A93B4B069308A8B4
:10732000FDF7B8FB08A90CA8FDF7B4FB0CA910A841
:10733000FDF7B0FB002610201696FCF7ACFE0446C5
:1073400060B18660014610A8FDF780FE129BA2681E
:107350001292A360E268139BE36013922B4B179386
:107360002B4B16932B4B149400261020CDE901369D
:107370000396FCF790FE0446D8B1169B866033B1A5
:10738000022214A99847179BE360169BA360224B27
:107390000393224A029401AB4FF40460002101F0F0
:1073A0009BFD30B12046FDF789F810212046FCF7FF
:1073B00076FE14A8FDF782F810A8FDF77FF80CA858
:1073C000FDF77CF808A8FDF779F804A8FDF776F832
:1073D000FFF77EFAFFF790FB281D00F069FC2846B6
:1073E000FFF72CFE0E4B149314A9002305F1C000E7
:1073F0001593FFF789FE85E706C80B0020E60320FA
:10740000A5700B00F9410B00E5410B00BF410B00DB
:10741000B34A0B0002000C00CF440B00E5400B0008
:10742000A5720B002DE9F04706468946406A71694E
:107430007368471A09EBA7050135B3EB450F1446EE
:1074400027D95D1B6D083268AD000CB14FEA890485
:107450002C441444031DA142A3EB010213D9994209
:1074600002D0204604F0FEFA74612368F36003F54D
:1074700000733361E3197362E359F36103F5007339
:107480003362BDE8F0879942EED0381D801A20445F
:10749000E8E703F102084B452CBF9844C844B8F113
:1074A000005F01D303F074FD4FEA8800FCF7F3FDA1
:1074B000A8EB05056D088246AD000CB14FEA8904C2
:1074C000726A716904322C449142544403D0521AB6
:1074D000204604F0C7FA716830688900FCF7DFFDC8
:1074E000C6E900A8C0E70000F0B585B004469DF8E5
:1074F00028509DF82C302B430F461646FFF7E6FB2D
:10750000054600283CD03F4B3F494048002E18BF5D
:1075100033463A46FFF7B2FB2046FFF7CBFBD4F8E1
:107520009820D4F89030043A934204F1780629D098
:1075300003B11D60D4F890300433251DC4F8903099
:10754000284600F089FC03903046FFF7D3FC0290F8
:1075500001F042FDDDE9023200902D492B48FFF792
:107560008DFB284600F078FC00283BD02046FFF732
:1075700005FD2046FFF762FD606F01F06BFA012008
:1075800005B0F0BD3046FFF7B5FC6FF060439842A0
:1075900002D1204803F0FFFCD4F89C30A26F9A1A65
:1075A000E36FA3EBA203012B04D800220121304694
:1075B000FFF738FF4FF40070D4F89C70FCF76BFDB8
:1075C0007860D4F8903003B11D60D4F89C301A1D57
:1075D000C4F89C205B68C4F8943003F50072C4F8CA
:1075E0009820AAE73046FFF785FCE36E9842BDD8A5
:1075F00001F0F2FC0028B9D007490448FFF73EFB30
:10760000B7E700BFC8CE0B0029C80B0020E6032057
:1076100081C80B0051C80B00ADC80B0073B590F8C2
:10762000B0300446002B41D090F8B130D0F8A420FF
:10763000002B3DD050495148FFF720FBD4F8A4302F
:10764000D3B1261D0021304600F0B6FBD4F8A4309B
:10765000984205460DD10121304600F0ADFB0022D5
:107660002946304600F0E0F9454944482A46FFF7EC
:1076700005FB0023C4F8A430D4F8A00010B14321C6
:10768000FCF70DFD0023C4F8A030D4F8B830C4F8DE
:10769000AC303C4B00936946002304F1C0000193D9
:1076A000FFF732FD01F016FAC4F8A80002B070BD71
:1076B00035493248FFF7E2FAD4F8BC30C4F8AC30B0
:1076C000D4F8A4304BB1D4F8A00010B14321FCF79A
:1076D000E6FC0023C4F8A030DBE72046FFF7EAFA17
:1076E000D4E92032934213D0D4F8A02043F8042CDC
:1076F000D4F88030043BC4F88030606F01F0AAF900
:1077000022491E48FFF7BAFA2046FFF737FCC0E7C8
:1077100004F178052846FFF7EDFB6FF060439842CF
:1077200002D11B4803F037FCD4F88C20A36F9A4297
:1077300004D1012211462846FFF774FE4FF4007071
:10774000D4F88C50FCF7A7FC45F8040CD4F88C3026
:107750001A1FC4F88C2053F8043CC4F8843003F595
:107760000072C4F8882003F5FE72C4F88020D4F8B3
:10777000A020C3F8FC21C0E7C0C80B0020E603200E
:10778000D3C80B0051710B00E3C80B00F5C80B0008
:1077900051C80B00014B024A1A60704720E60320D3
:1077A00080C60B0010B5074B044640F8C03BFCF701
:1077B00085FE04F17800FFF78FFC201D00F0B8F97A
:1077C000204610BD24C90B0010B50446FFF7EAFFA0
:1077D0002046D021FCF763FC204610BD01207047F5
:1077E000F8B51F4D1F4B0446294640F8043B02F0F4
:1077F000D8FD1D4904F1140002F0D3FD294604F11F
:10780000240002F0CEFD0023C4E90E33C4E9123394
:10781000C4E91433C4E91633C4E9183384F83430A6
:107820002364082363642020FCF735FC656C206426
:10783000013D6D0800EB850706464FF40070FCF72C
:107840002AFC00F50073C4E9170346F82500E0643C
:10785000A064A0656765236567662046F8BD00BF24
:10786000C8CE0B002CCA0B0030C90B007FB5051D1C
:107870000446284602F0E8FD0E49684602F091FDF4
:107880006946284602F04DFE0646684602F03EFD77
:107890006EB1E3680022013B2946684602F056FEBD
:1078A0006946284602F0C8FD684602F02FFD2046D2
:1078B00004B070BDCEC20B0010B5C36B044613B943
:1078C0003C3001F09FF8E06BBDE8104001F0A2B839
:1078D000C06B01F0A7B8000010B596B06946044629
:1078E00001F020FAD0B9019B5B04224606D5154968
:1078F0001548FCF7D1FE012016B010BD12481349FF
:10790000FFF7CAF9204604F00BFA40F2FF112046B7
:1079100001F010FA80B90E492246E9E701F054FC63
:107920000368022BF1D001F04FFC0A4902680648B7
:10793000FFF7B2F90020DFE701F046FC06490268D4
:10794000F5E700BF40C90B0028E603205DC90B0026
:107950008EC90B007AC90B009DC90B0038B51546BE
:10796000044602F01EFD4DB12B783BB10449204680
:1079700002F093FD2946204602F08FFD204638BDD7
:107980001CCE0B007FB505460E461C46496968466D
:1079900002F0FCFD009904B9746A22462846FFF7FC
:1079A000DDFF684602F0B2FC284604B070BD00005E
:1079B00070B50C468EB01A49CDE90032054602F08A
:1079C000F0FCE068E16901440431284602F0BCFCA7
:1079D000211D06A802F025FD124902A802F0E1FCD3
:1079E00002A906A802F06AFDDDE90032064621463A
:1079F0000AA8FFF7C7FF0AA9304602F05FFD01465B
:107A0000284602F0FFFC0AA802F080FC02A802F05F
:107A10007DFC06A802F07AFC28460EB070BD00BFBF
:107A2000C8CE0B00CEC20B002DE9F04713468EB036
:107A300005460F46002A4AD0406801F08BF90646F9
:107A4000002854D0DFF8B4A0DFF8AC90DFF8A480B1
:107A5000304601F087F9002833D0827A082AF7D11E
:107A600000F10B04696901AA204601F085FB012899
:107A7000EED1019BBB42EBD1291D0AA802F0D1FC3B
:107A8000514606A802F08DFC06A90AA802F016FDD0
:107A9000214602F01FFD014602A802F0C2FC06A822
:107AA00002F034FC0AA802F031FC029804F038F924
:107AB0004046029A4946FFF7E1F802A802F026FC88
:107AC000C6E730460EB0BDE8F04701F053B90A46AC
:107AD00001460AA8FFF76CFF0A9804F021F905484F
:107AE0000A9A0549FFF7CAF80AA802F00FFC0EB07F
:107AF000BDE8F08728E6032035C90B00CEC20B0095
:107B000070B50368044683B1436A45691E1DAE42E1
:107B100006D955F8040B4FF40071FCF7C0FAF6E7EC
:107B2000616820688900FCF7BAFA204670BD000041
:107B300010B5094B044640F8403BFFF7E1FF04F164
:107B4000240002F0E3FB04F1140002F0DFFB201D2F
:107B500002F0DCFB204610BD2CCA0B0010B5044619
:107B6000FFF7E6FF20466821FCF799FA204610BD92
:107B7000C368CA689B1A9B105A1ED0E900301B1AB2
:107B80009B1003EBC21388680A68801A03EBA000FD
:107B9000704700002DE9F047026A8369043A934276
:107BA00004460F4607D00BB10A681A60A369043374
:107BB000A361BDE8F08700F108011830FFF7D8FF96
:107BC0006FF06043984202D1384803F0E4F9626AEA
:107BD00020686368111AA3EBA101012925D8616906
:107BE000A2EB01084FEAA806B51CB3EB450F36D946
:107BF0005D1B6D0800EB8505131DA942A3EB010277
:107C000026D98B4202D0284603F02CFF65612B68F1
:107C1000E36003F50073236105EB0803636255F825
:107C20000830E36103F5007323624FF40070656A66
:107C3000FCF731FA6860A3690BB13A681A60636AAD
:107C40001A1D62625B68E36103F500722262AFE7AE
:107C50008B42DBD008F10400801A2844D4E703F1FA
:107C60000209012B2CBF994409F10109B9F1005F08
:107C700001D303F08DF94FEA8900FCF70CFA626A30
:107C80006169A9EB050504326D089142824600EB5B
:107C9000850503D0521A284603F0E4FE6168206887
:107CA0008900FCF7FCF9C4E900A9AFE751C80B0053
:107CB0002DE9F047C368012B86B0044608D8344943
:107CC0003448FEF7E9FF0026304606B0BDE8F087ED
:107CD0004068FFF701FE06460028F4D06369626839
:107CE0002D492C48FEF7CAFF606801F033F80746BB
:107CF0000028E8D00023DFF8A490DFF89880A36381
:107D0000384601F02FF80546002839D0837A082B31
:107D1000F6D10B35616901AA284601F02DFA012838
:107D2000EED1E36A7BB1294602A802F03AFB04F1E6
:107D3000240102A802F0F5FB824602A802F0E6FA4E
:107D4000BAF1000FDCD0236829469B68204698478B
:107D50000028D5D0019AA36B9342B8BFA2632B46EB
:107D600049464046FEF78AFF2046FFF7A5FD04F18D
:107D7000400001A9FFF70EFF2046FFF7A9FDBFE76E
:107D8000384600F0F7FF012384F834309CE700BF49
:107D9000B3C90B0028E60320C8C90B00E4C90B00D7
:107DA00010B590F8343004460BB9FFF781FFA06B93
:107DB0000130A06310BD000070B590F83430044667
:107DC0000E460BB9FFF774FF2046FFF775FDA36C55
:107DD000A26D9A4220D0D4E913021D6826B1043A5C
:107DE00093420CD00433A3642046FFF771FD25B104
:107DF0000A490B482A46FEF741FF284670BD4FF45A
:107E00000071FCF74CF9636D1A1D62655B68E364F1
:107E100003F500722265E6E70025E5E7FAC90B00E5
:107E200028E6032013B590F83430019104460BB9CD
:107E3000FFF73EFF019BA26B9A42B8BFA3632046A7
:107E4000FFF73AFD01A904F14000FFF7A3FE204629
:107E5000FFF73EFD02B010BD38B50446FFF72CFD1C
:107E600004F1480104F15800FFF782FE0546204660
:107E7000FFF72EFD284638BD014B024A1A607047B5
:107E800028E6032017CA0B00704710B520210446CE
:107E9000FCF705F9204610BD10B50272FF224281A1
:107EA0000022C0E9032242610276C261024A034C09
:107EB0001060C0E9004110BD30E6032088CC0B0003
:107EC0002DE9F8439DF820800446894616461F4652
:107ED000B8F1000F02D0406801F076FF217A6068A7
:107EE00001F04CFF6068036849469B6898476068EA
:107EF000002101F062FF054600BB0123217A606882
:107F00003A4601F026FF8742034609D13744BE4274
:107F10001CD0606803685B69984706F8010BF6E7B8
:107F20000B490C484A46FEF7B7FEB8F1000F02D0E5
:107F3000606801F052FF2846BDE8F8830346064911
:107F400004484A46FEF7A8FE0025EEE70125ECE7C7
:107F500038CA0B002CE603205DCA0B0007B500935E
:107F60000123FFF7ADFF03B05DF804FB73B5438950
:107F7000FF2B044610D0194E194D00F0ABFDB0F5A3
:107F80007A7F09D2608902F01EFF012804D03146B1
:107F90002846FCF781FBF0E701230DF107022821B9
:107FA0002046FFF7DBFF30B90D480E49FCF774FBA4
:107FB000002002B070BD9DF80730182BF4D10123CA
:107FC0000DF1070229212046FFF7C8FF0028EBD05A
:107FD0009DF80730052BE7D1EBE700BF81CA0B0006
:107FE0002CE6032096CA0B0007B5134600228DF835
:107FF00007200DF10702FFF7B1FF9DF8070003B05E
:108000005DF804FB2DE9F0419DF8188004460F4609
:1080100015461E46B8F1000F02D0406801F0D4FEAC
:10802000217A606801F0AAFE6068036839469B689F
:1080300098472E44B542606805D0036815F8011BC7
:108040009B689847F6E7012101F0B7FE034670B13F
:10805000084909483A46FEF71FFE0025B8F1000F0F
:1080600002D0606801F0B9FE2846BDE8F081012524
:10807000F4E700BFA3CA0B002CE603201FB58DF860
:108080000F2000930DF10F020123FFF7BBFF05B096
:108090005DF804FBF8B50A460C4605461A491B482C
:1080A000FCF7FAFA002CB8BFEC687CB90123224631
:1080B0001B212846FFF7E2FF1549024606461348F2
:1080C000FEF7DCFDEC606C613046F8BD032C19DD79
:1080D000A7101F2FA8BF1F27BA0062F07C02012340
:1080E000D2B21B212846FFF7C9FF3A460346094989
:1080F00006460648FEF7C2FD4FF4FA635F43EC60A4
:108100006F61E1E70127E7E7C8CA0B002CE603200F
:10811000D2CA0B00EECA0B00064B1A684AB1A0F592
:1081200000630B4305D1D3681BB100211046FFF754
:10813000B1BF704730E603202DE9FF419DF828804C
:10814000054616461F46B8F1000F04D0406801915D
:1081500001F03AFE0199019100230DF10F0228462A
:10816000FFF7FCFE044660B19DF80F3003EA0602FB
:108170003A43934205D0019900232846FFF77EFF3A
:108180000446B8F1000F02D0686801F026FE2046D0
:1081900004B0BDE8F08113B514460DF10702FFF7F6
:1081A000DDFE28B19DF807301C420CBF01200020E5
:1081B00002B010BD13B514460DF10702FFF7CEFE55
:1081C00028B19DF807301C4214BF0120002002B0E6
:1081D00010BD07B5D2430093D2B20023FFF7ACFF26
:1081E00003B05DF804FB000037B501230DF1070271
:1081F0000F210446FFF7B2FE054638B91E491F4855
:10820000AD22FEF749FD284603B030BD9DF807308A
:1082100013F0200F4FF001030BD02022E3610F2158
:108220002046FFF7D6FF164A16491448FCF734FAE1
:10823000E9E7082217212046FFF7BCFF18B1022307
:10824000114AE361F0E79DF807301A0709D50323C7
:10825000E361082201230F212046FFF7BAFF0B4AF2
:10826000E2E75B07CFD50422E26101230F2120461C
:10827000FFF7AFFF064AD7E741CB0B002CE6032000
:1082800012CB0B0060CB0B001BCB0B002BCB0B00DE
:108290003BCB0B0007B500931346FF22FFF74CFFC3
:1082A00003B05DF804FB0000F8B50F461646012345
:1082B00000220F210546FFF7E1FE044638B94FF4CE
:1082C00025721F491F48FEF7E7FC2046F8BD012331
:1082D000232218212846FFF7D1FE044610B940F2A8
:1082E0009B22EEE7FF2FA8BFFF27012FB8BF012772
:1082F0000123FAB219212846FFF7C0FE044610B93F
:108300004FF42A72DDE70123082212212846FFF7E5
:10831000C1FF044610B940F2AF22D2E7002E14BFCD
:1083200003220222012342F0800218212846FFF78F
:10833000A5FE04460028C8D140F2B922C1E700BF1B
:1083400071CB0B002CE603202DE9F7430A460546C6
:108350000F464F484F49FCF79FF900212846FFF789
:1083600099FE044648B940F2F7124B494848FEF7D7
:1083700093FC204603B0BDE8F08301231A46302168
:108380002846FFF787FF044610B940F20522ECE7C4
:108390001022012311462846FFF71BFF044610B99F
:1083A0004FF40372E1E70123262213212846FFF749
:1083B00065FE044610B940F21322D6E70126009666
:1083C0003346FC2211212846FFF7B6FE044610B9B9
:1083D00040F21B22C9E7002239462846FFF764FF16
:1083E000044610B940F22222BFE70096022377220A
:1083F00010212846FFF7A0FE044610B940F22B22B8
:10840000B3E7334604221C212846FFF743FF044606
:1084100010B940F23222A8E700961823E322112176
:108420002846FFF789FE044610B940F239229CE73E
:108430003346C02217212846FFF720FE044610B914
:108440004FF4107291E700F045FBDFF85490DFF82D
:1084500040804FF47A7106464F4300F03BFB801B8F
:10846000B8420ED2012217212846FFF7BDFD49462A
:1084700002464046FCF710F94FF47A7000F0E8FE2F
:10848000EBE706490248FEF707FC02F0DDF870E76B
:108490002CE603209CCB0B0091CB0B00C2CB0B0036
:1084A000ADCB0B002DE9F3479DF828A005460C46FF
:1084B00091461F46BAF1000F02D0406801F084FCDB
:1084C00007B3202F3E4628BF20267F2C26D83319FD
:1084D000802B01D9C4F18006012304223F212846C4
:1084E000FFF777FE002364F07F0100934A4633468E
:1084F000C9B22846FFF7E4FC804628B13444BF1BCC
:10850000B144DDE74FF00108BAF1000F02D068680E
:1085100001F063FC404602B0BDE8F087012304226D
:108520003F212846FFF7B6FEDCE72DE9F3479DF82B
:1085300028A005460C4691461F46BAF1000F02D00E
:10854000406801F041FC07B31F2F3E4628BF1F269D
:108550007F2C26D83319802B01D9C4F18006012342
:1085600004223F212846FFF734FE002364F07F01F8
:1085700000934A463346C9B22846FFF743FD80467A
:1085800028B13444BF1BB144DDE74FF00108BAF114
:10859000000F02D0686801F020FC404602B0BDE840
:1085A000F087012304223F212846FFF773FEDCE712
:1085B00030B585B00D68D1E9043203954D68029558
:1085C0008D680195C96800910133044902F26C720B
:1085D000044601F0DBFF204605B030BDD4CB0B00D4
:1085E00003090A2200F00F0002FB0300704738B5B0
:1085F000044600781546FFF7F3FF08606078FFF740
:10860000EFFF4860A078FFF7EBFF8860E078FFF7A6
:10861000E7FFC8602079FFF7E3FF013808612DB953
:10862000651D2878FFF7DCFF886138BD6079FFF7AA
:10863000D7FF6430A51D4861F3E7000070B5012342
:1086400088B00D461A4610210446FFF7A4FDF0B18C
:1086500008230126204600960DEB03020021FFF7B8
:108660002FFC044698B1324629460DF10900FFF768
:10867000BEFF04A8FFF79CFF0848049A0849FCF7CE
:108680000BF804A801F042FE204608B070BD242279
:108690000021284603F000FA0024F5E72CE6032029
:1086A000F2CB0B0030B58BB00D4601A9FFF7C6FF2A
:1086B000044620B101A800F0B7FDC5E9000120463D
:1086C0000BB030BD0A2390FBF3F103FB110091FBCB
:1086D000F3F203FB121240EA0210C0B2704770B509
:1086E000054600680C461646FFF7ECFF20706868E8
:1086F000FFF7E8FF6070A868FFF7E4FFA070E86884
:10870000FFF7E0FFE07028690130FFF7DBFF207121
:108710002EB9661DA869FFF7D5FF307070BD6A6974
:10872000642392FBF3F003FB1020FFF7CBFFA61DA1
:108730006071EFE7F0B587B0054602A816460C4613
:10874000FFF736FF1E48029A1E49FBF7A5FF02A855
:1087500001F0DCFD16B1686801F036FB204601220D
:108760000DF1090100278DF80870FFF7B8FF01230C
:108770001A4610212846FFF78DFD0446E8B108236C
:1087800000970DEB030239462846FFF73BFC0446F1
:1087900060B101231A4610212846FFF71AFD16B1D1
:1087A000686801F01AFB204607B0F0BD4FF48D72E7
:1087B00005490348FEF770FAF1E74FF48F72F7E7C7
:1087C0002CE6032000CC0B000ECC0B0013B50446A6
:1087D0006846CDE9002303F019F99DF81020014601
:1087E0002046FFF7A7FF02B010BD0000F0B5057EE0
:1087F00089B0044675BB02F0E5F858B3002600279F
:1088000004A92846CDE9046700F016FC10B3012541
:10881000257602F0F4F8C317CDE90203024600956D
:108820002046FFF7D3FF02A92046CDE90267FFF7F4
:1088300039FF134B13491B68009304A8DDE9022399
:1088400002F07EF81048049A1049FBF725FF04A8AF
:1088500001F05CFD63698BB100F03CF92369C01A3B
:10886000636998420AD300F035F94FF0FF31206177
:10887000204609B0BDE8F040FFF70CBC09B0F0BDE0
:1088800074E303209CE603202CE6032029CC0B0094
:1088900030B504468BB011B1406801F03DFA204676
:1088A000FFF764FB06AD002837D02046FFF79CFC9D
:1088B00001231A4610212046FFF76DFCD8B102F0C3
:1088C00081F8C0B902A92046FFF7ECFEDDE90201FC
:1088D00001F07CFF134B14491B6800932846DDE927
:1088E000022302F02DF81148069A1149FBF7D4FE35
:1088F000284601F00BFD0F4B06930F4B09930F4BCE
:1089000008934FF40062002302A80095FCF7B0FB27
:108910002846FBF7D3FD0BB030BD09490348FEF7ED
:10892000BBF9E8E774E303209CE603202CE6032070
:108930003FCC0B0019810B00F9410B00E5410B0006
:108940005CCC0B00014B024A1A6070472CE60320F6
:1089500074CC0B0008B5024B1B685B6C019308BD1F
:108960007402030008B5024B1B685B68019308BDE5
:108970004802030008B5024B1B689B68019308BDC1
:108980004802030008B5024B1B68DB68019308BD71
:108990004802030008B5024B1B681B69019308BD20
:1089A0004802030008B5024B1B685B69019308BDD0
:1089B0004802030008B5024B1B68DB69019308BD40
:1089C0004802030008B5024B1B681B6A019308BDEF
:1089D0004802030008B5024B1B685B6A019308BD9F
:1089E0004802030008B5024B1B689B6A019308BD4F
:1089F0004802030008B5024B1B68DB6A019308BDFF
:108A00004802030008B5024B1B681B6B019308BDAD
:108A10004802030008B5024B1B689B6B019308BD1D
:108A20004802030008B5024B1B681B6C019308BD8C
:108A30004802030008B5024B1B685B6C019308BD3C
:108A40004802030008B5024B1B68DB6C019308BDAC
:108A50004802030008B5024B1B685B6D019308BD1B
:108A60004802030008B5024B1B68DB6E019308BD8A
:108A70004802030008B5024B1B681B6F019308BD39
:108A80004802030008B5024B1B685B6E019308BDEA
:108A90003402030008B5024B1B68DB6E019308BD6E
:108AA0003402030008B5024B1B685B68019308BDE4
:108AB0001802030008B5024B1B689B68019308BDB0
:108AC0001802030008B5024B1B68DB68019308BD60
:108AD0001802030008B5024B1B685B69019308BDCF
:108AE0001802030008B5024B1B689B6D019308BD7B
:108AF0001802030008B5024B1B68DB6D019308BD2B
:108B00001802030008B5024B1B685B6E019308BD99
:108B10001802030008B5024B1B689B6E019308BD49
:108B20001802030008B5024B1B681B68019308BDBF
:108B30002C02030008B5024B1B685B68019308BD5B
:108B40002C02030008B5024B1B689B68019308BD0B
:108B50002C02030008B5024B1B68DB68019308BDBB
:108B60002C02030008B5024B1B685B69019308BD2A
:108B70002C02030008B5024B1B689B69019308BDDA
:108B80002C02030008B5024B1B68DB69019308BD8A
:108B90002C02030008B5024B1B681B6B019308BD38
:108BA0002C02030008B5024B1B68DB68019308BD6B
:108BB0002802030008B5024B1B689B69019308BD9E
:108BC0002802030008B5024B1B68DB69019308BD4E
:108BD0002802030008B5024B1B681B6A019308BDFD
:108BE0002802030008B5024B1B685B6A019308BDAD
:108BF0002802030008B5024B1B689B6A019308BD5D
:108C00002802030008B5024B1B68DB6A019308BD0C
:108C10002802030008B5024B1B681B6B019308BDBB
:108C20002802030008B5024B1B685B6B019308BD6B
:108C30002802030008B5024B1B681B6C019308BD9A
:108C40002802030008B5024B1B689B6C019308BD0A
:108C50002802030008B5024B1B68DB6C019308BDBA
:108C60002802030008B5024B1B681B6D019308BD69
:108C70002802030008B5024B1B685B69019308BD1D
:108C80006402030008B5024B1B689B68019308BD92
:108C90006802030008B5024B1B68DB68019308BD3E
:108CA0006802030008B5024B1B68DB69019308BD2D
:108CB0003002030008B5024B1B681B6A019308BD14
:108CC0003002030008B5024B1B681B68019308BD06
:108CD0008402030008B5024B1B685B68019308BD62
:108CE0008402030008B5024B1B689B68019308BD12
:108CF0008402030008B5024B1B68DB68019308BDC2
:108D00008402030008B5024B1B685B69019308BD30
:108D10008402030008B5024B1B681B6A019308BD5F
:108D20008402030008B5024B1B685B6A019308BD0F
:108D30008402030008B5024B1B689B6A019308BDBF
:108D40008402030008B5024B1B681B6B019308BD2E
:108D50008402030008B5024B1B68DB6B019308BD5E
:108D60008402030008B5024B1B681B6C019308BD0D
:108D70008402030008B5024B1B685B6D019308BDBC
:108D80008402030008B5024B1B68DB68019308BD31
:108D90003C02030008B5024B1B681B69019308BD28
:108DA0003C02030008B5024B1B685B69019308BDD8
:108DB0003C02030008B5024B1B689B69019308BD88
:108DC0003C02030008B5024B1B68DB69019308BD38
:108DD0003C02030008B5024B1B681B6A019308BDE7
:108DE0003C02030008B5024B1B689B6A019308BD57
:108DF0003C02030008B5024B1B681B6C019308BDC5
:108E00003C02030008B5024B1B681B68019308BDB8
:108E10004C02030008B5024B1B681B69019308BD97
:108E20004C02030008B5024B1B685B69019308BD47
:108E30004C02030008B5024B1B689B69019308BDF7
:108E40004C02030008B5024B1B68DB69019308BDA7
:108E50004C02030008B5024B1B681B6A019308BD56
:108E60004C02030008B5024B1B685B6B019308BD05
:108E70006002030008B5024B1B681B6D019308BD1F
:108E80006002030008B5024B1B685B6D019308BDCF
:108E90006002030008B5034B1B68D3F898300193B8
:108EA00008BD00006002030008B5024B1B681B6888
:108EB000019308BD2002030008B5024B1B685B68E4
:108EC000019308BD2002030008B5024B1B685B69D3
:108ED000019308BD2002030008B5024B1B681B6A02
:108EE000019308BD2002030008B5024B1B68DB6A32
:108EF000019308BD2002030008B5024B1B689B6B61
:108F0000019308BD2002030008B5024B1B68DB6C0F
:108F1000019308BD2002030008B5024B1B685B6D7E
:108F2000019308BD2002030008B5024B1B689B6D2E
:108F3000019308BD2002030008B5024B1B68DB6DDE
:108F4000019308BD2002030008B5034B1B68D3F84A
:108F50008830019308BD00002002030008B5034BD0
:108F60001B68D3F89430019308BD00002002030071
:108F700008B5034B1B68D3F8AC30019308BD000063
:108F80002002030008B5034B1B68D3F8B0300193EF
:108F900008BD00002002030008B5024B1B681B68D7
:108FA000019308BD4402030008B5024B1B685B68CF
:108FB000019308BD4402030008B5024B1B689B687F
:108FC000019308BD4402030008B5024B1B68DB682F
:108FD000019308BD4402030008B5024B1B685B699E
:108FE000019308BD4402030008B5024B1B68DB690E
:108FF000019308BD4402030008B5024B1B681B6ABD
:10900000019308BD4402030008B5024B1B685B6A6C
:10901000019308BD4402030008B5024B1B68DB6ADC
:10902000019308BD4402030008B5024B1B681B6B8B
:10903000019308BD4402030008B5024B1B685B6B3B
:10904000019308BD4402030008B5024B1B689B6BEB
:10905000019308BD4402030008B5024B1B68DB6B9B
:10906000019308BD4402030008B5024B1B685B6C0A
:10907000019308BD4402030008B5024B1B685B68FE
:10908000019308BD4002030008B5024B1B689B68B2
:10909000019308BD4002030008B5024B1B68DB6862
:1090A000019308BD4002030008B5024B1B681B6911
:1090B000019308BD4002030008B5024B1B685B69C1
:1090C000019308BD4002030008B5024B1B689B6971
:1090D000019308BD4002030008B5024B1B68DB6921
:1090E000019308BD4002030008B5024B1B681B6AD0
:1090F000019308BD4002030008B5024B1B681B6BBF
:10910000019308BD4002030008B5024B1B685B6B6E
:10911000019308BD4002030008B5024B1B681B6C9D
:10912000019308BD4002030008B5024B1B685B6C4D
:10913000019308BD4002030008B5024B1B681B6881
:10914000019308BD1C02030008B5024B1B685B6855
:10915000019308BD1C02030008B5024B1B689B6805
:10916000019308BD1C02030008B5024B1B681B6974
:10917000019308BD1C02030008B5024B1B685B6924
:10918000019308BD1C02030008B5024B1B68DB6994
:10919000019308BD1C02030008B5024B1B685B6A03
:1091A000019308BD1C02030008B5024B1B68DB6A73
:1091B000019308BD1C02030008B5024B1B681B6B22
:1091C000019308BD1C02030008B5024B1B68DB6B52
:1091D000019308BD1C02030008B5024B1B681B6C01
:1091E000019308BD1C02030008B5024B1B685B6CB1
:1091F000019308BD1C02030008B5024B1B689B6C61
:10920000019308BD1C02030008B5024B1B68DB6C10
:10921000019308BD1C02030008B5024B1B681B6DBF
:10922000019308BD1C02030008B5024B1B685B6D6F
:10923000019308BD1C0203008A4210B507D0441AEE
:109240000298C01A4443501A94FBF0F0184410BD21
:109250000021FFF739BE10B5836804460BB901F051
:109260009DFEC3689847A3681BB103222146204690
:10927000984720461021BDE81040FAF710BF0000C3
:10928000024800230360FFF7D5BB00BF34E603208C
:10929000002240681146FFF707BF002240681146D0
:1092A000FFF722BF002240681146FFF72DBF40683C
:1092B0000022FFF721BF4068002281F00101FFF783
:1092C0000BBF002340681A461946FFF7FDBE002277
:1092D00040681146FFF7D8BE406800220221FFF720
:1092E000DBBE002340681A46FFF7C6BE70B5134BBD
:1092F00003601825303386B00E4643602A460021AD
:109300000446083002F0C8FB002270681146FFF7DF
:10931000CBFE78B100212A46684602F0BDFB6946C3
:109320000020ADF80050FFF715FB18B9694620463C
:1093300000F0B8F8204606B070BD00BFDCCC0B00D2
:10934000084B10B5282422461846002102F0A4FB41
:10935000054B04804FF0FF32426004225A60034AFA
:109360001A6010BD40E6032038E60320A0CC0B00B5
:109370007047007B7047037B4BB10369B3F1004F2B
:1093800005D08069B0F1004018BF0120704700206F
:10939000704703681B6A184770B503680D461B6960
:1093A000064698470221284600F090FF2C210446EB
:1093B000284600F0A1FE336804449B693046984774
:1093C0000221284600F082FF204470BDA0F1040075
:1093D000FFF7E2BF10B520210446FAF760FE2046F1
:1093E00010BD0000037B7BB14369002B0CDB07EE53
:1093F000903A9FED077AF8EEE77A87EE870ADFED7D
:10940000057A20EE270A7047BFEE000A704700BFBA
:1094100000FF7F470000C842037B63B10369B3F1DB
:10942000004F08D007EE903A9FED047AF8EEE77A05
:1094300087EE870A70479FED020A70470000C84216
:1094400000000000037B7BB1C369002B0CDB07EE3F
:10945000903A9FED077AF8EEE77A87EE870ADFED1C
:10946000057A20EE270A7047BFEE000A704700BF5A
:1094700000FF7F470000C842037B63B18369B3F1FB
:10948000004F08D007EE903A9FED047AF8EEE77AA5
:1094900087EE870A70479FED020A70470000C842B6
:1094A0000000000030B50D4600F108040FCD0FC4D8
:1094B00095E8030084E80300012030BD70470020D8
:1094C000704710B510210446FAF7E9FD204610BD9B
:1094D00008B5FFF7F6FF08BD30B500224FF69C74C3
:1094E000026084808D888C800C68858004600A60AE
:1094F00030BD10B504460068FFF726FE204610BDBB
:1095000038B5C468F4B12378022B03D104F10C0000
:10951000FFF7EFFF656835B12846FAF7CFFF102156
:109520002846FAF7BCFDA56835B12846FAF7C6FF0C
:1095300010212846FAF7B3FD20461421BDE8384033
:10954000FAF7ADBD38BD10B588B00446684600F0E6
:1095500028FF694604A800F064FF04A8A047044659
:1095600004A800F0D3FE684600F0D0FE204608B004
:1095700010BD1FB50023CDE90201019210241A4647
:1095800069461846ADF80230ADF80040FFF70CFD13
:1095900004B010BD1FB50C23ADF8043003688DF87E
:1095A0000630037A8DF80730436802930021437A2E
:1095B000ADF80D1001A88DF80F108DF80C30FFF7E5
:1095C00053FD05B05DF804FB1FB50C22ADF8042077
:1095D00002688DF80620027A8DF807204268029210
:1095E0000023427A8DF80C20194601AA0220ADF81A
:1095F0000D308DF80F30FFF727FD05B05DF804FB47
:109600000B6803604B68436013B15A6801325A60BB
:10961000704737B5044668460D46FFF7F1FF009BDB
:10962000019A23606260002301A801930093FBF775
:1096300064FA35B1281DFBF760FA08212846FAF7CD
:109640002EFD204603B030BD826810B50AB901F086
:10965000A5FCBDE81040C368184708B5006800F1D4
:109660001001FFF7F1FF08BD826810B50AB901F0DB
:1096700095FCBDE81040C368184708B5006800F1C4
:109680001001FFF7F1FF08BD38B500230446036061
:1096900010200D46FAF7FFFC28B10123C0E9013381
:1096A000024B0360C5602060204638BD18CD0B001A
:1096B00038B5002383608B6804460D462BB1022227
:1096C0009847EB68E360AB68A360204638BD0000B4
:1096D000F0B589B004686846FFF7FEFE4FF002035C
:1096E000D4E84F2F002A03D1C4E8413F0029F7D125
:1096F00025D104F10C0569462846FFF7EDFEBFF3BE
:109700005B8F01236370002004F10803BFF35B8FBC
:1097100053E8006F43E80002002AF9D1BFF35B8FE2
:109720006EB1FFF7F1FB78B129463046FFF78CFFA9
:109730003046FAF7C3FE10213046FAF7B0FC68460F
:10974000FFF7D7FE09B0F0BD314602A8FFF7B0FF22
:10975000E068B4F9105008B102F0E6F90690102064
:10976000ADF81C50FAF797FC0546E8B10027876072
:109770001820FAF790FC044688B10146876002A8D9
:10978000FBF764FC049BA268A360059B049206A9F6
:10979000E268E36004F110000592FFF79DFE084BBC
:1097A000EB60084B2C60AB6006A8FFF7A2FE02A896
:1097B000FAF784FE002229460348FFF7ADFBB7E71E
:1097C0005B960B00DD980B0057920B002DE9F04FD4
:1097D0008BB005469DF850A00F4690469946FFF77E
:1097E000FBFB07AE834638BB4FF62E73059005A9E9
:1097F0003046ADF81830FFF76FFE1420FAF74BFC37
:10980000044648B1022303700123C0E901BB437041
:1098100031460C30FFF760FE2846214640F8044BE5
:10982000FFF732FF3046FFF764FE05A8FFF761FE41
:1098300028460BB0BDE8F08F0C2300241420CDE99E
:1098400008440793FAF727FC014618B1C0E9014420
:109850000470447004A80391FFF716FF1E4B089391
:109860000820FAF718FC044610B103A9FFF7C8FE58
:1098700000965FFA8AF34A46414638460994FFF754
:10988000BBFBB8B9039B5B7803F0FF0293B94FF6BB
:109890009C7305A903A80592ADF81830FFF718FFCF
:1098A00005A8FFF726FE05A80999FFF7B2FE06A84E
:1098B000FBF723F903A905A8FFF7A2FE059B069A6B
:1098C0002B606A60002306A806930593FBF715F941
:1098D00004A8FBF712F9ABE759990B00012AF8B578
:1098E000054603D10B6803600020F8BD022A10D0A2
:1098F000032AF9D10468002CF6D004F11000FFF718
:10990000F8FD2046FAF7DAFD18212046FAF7C7FBE2
:10991000EAE718200E68FAF7BEFB044650B131465C
:10992000FFF7C6FE3069B6F9147008B102F0FCF812
:109930002061A7822C60D7E738B5002383608B684D
:1099400004460D462BB102229847EB68E360AB68F2
:10995000A360204638BD0000F0B589B004460D462E
:1099600001A81146FFF755FEA4B124B21DB1284647
:1099700002F0DAF8054601A803A90395ADF81040F6
:10998000FFF7A6FE03A8FFF7B4FD02A8FBF7B5F8A2
:1099900009B0F0BD019D0123D5E84F2F002A03D166
:1099A000C5E8413F0029F7D1EFD12B73BFF35B8F9F
:1099B0006B702B1DBFF35B8F53E8006F43E80042D1
:1099C000002AF9D1BFF35B8F002EDED02046FFF7CF
:1099D0009BFA074660B105F10C013046FFF744FEE3
:1099E0003046FAF76BFD10213046FAF758FBCCE70A
:1099F000314603A8FFF7A0FF2B7B8DF81C30102009
:109A0000FAF749FB0546D0B187601420FAF743FB0B
:109A1000044678B18760014603A8FBF717FB059B56
:109A2000A268A360069B0592E268E3609DF81C3083
:109A300006922374064BEB60064B2C60AB6003A8C8
:109A4000FAF73CFD002229460348FFF765FAC7E70D
:109A50007B960B005D9A0B0057920B00012A70B5A4
:109A6000044603D10B680360002070BD022A0CD0AD
:109A7000032AF9D10468002CF6D02046FAF71EFD1F
:109A800014212046FAF70BFBEEE714200E68FAF7D4
:109A900002FB054620B13146FFF74EFF337C2B74A5
:109AA0002560E1E7002240681146FFF71DBB002258
:109AB00040681146FFF728BB40680022FFF71CBB37
:109AC0004068002281F00101FFF706BB00234068D7
:109AD0001A461946FFF7F8BA002340681A46194695
