:02000002B0004C
:1040000000400B0030AB0B00000006000D00050265
:084010000401A30F00000000F1
:0440180084960B007F
:1040200009480A49884208B505D0094A824202D0A7
:10403000121A05F08DF90748074A0021121A05F0F7
:10404000AFF9014808BD00BF24E30320C8A90B0055
:1040500064E4032068E40320F1E7032070B5074E11
:10406000074C04F0DBFBA41BA4080025AC4200D1E4
:1040700070BD56F8043B98470135F7E768A10B007F
:1040800094A10B0000F0B0BF08B500F0EFFDBDE853
:10409000084004F07BBB03F021B903F01FB903F023
:1040A00025B9000008B5034A03490C2002F0BCFF03
:1040B000FEE700BF496D0B0098960B000078B0FA40
:1040C00080F040097047012303707047014B0122C3
:1040D0001A70704730E6032010B503682F2B044692
:1040E00004D9074A07490A2002F09EFF23681F2BC4
:1040F00083BF03F01F03044823604FF0A04010BDAE
:10410000496D0B00ED960B000003005008B5044903
:1041100003F0FDFF18B1034B03221A70012008BD04
:10412000EB960B00B8E5032010B5034B0360044683
:1041300001F04AFC204610BDAC9A0B0010B50446B5
:10414000FFF7F2FF20461021FFF7A9FF204610BD20
:1041500010B5034B0360044602F038FB204610BD47
:10416000849A0B0010B50446FFF7F2FF2046382171
:10417000FFF795FF204610BD436913B183690C30EA
:104180001847704713B500210446084602F06CFD3D
:104190000023204601A9019302F07EFD019C0CB191
:1041A000012323710021012002F05EFD2CB1236860
:1041B00020469B6898470023237102B010BD012A56
:1041C00002D1016000207047022A04BF0B6803601F
:1041D000F8E70368184737B504689DF818508DF85C
:1041E00000308DF80450E4683C23A04703B030BD94
:1041F00010B5C4B000680A2203A905F0D3F9B0F5E0
:10420000966F1AD80E4C606002F0B8FF80B16368F8
:104210000C4A4FF4807104A803F080F800238DF855
:104220000030094B09491B78094804AAFFF7D3FF5E
:10423000084B0120187044B010BD0020FBE700BF00
:10424000C4E5032011970B008DE403202A970B008F
:1042500020E50320E0E5032037B51649054603F0C5
:1042600056FF044688B1144B1448154A15490124D9
:104270005C7200238DF80030134B1B78FFF7ABFF07
:10428000124B20461C7003B030BD1149284603F084
:104290003EFF0028F7D0084B08485C720A4B8DF8A7
:1042A00000401B780B4A0749FFF795FF074B012099
:1042B0001870E8E7EB960B00C4E5032020E5032027
:1042C00035970B0058970B008DE40320E0E50320A1
:1042D00046970B0048970B0010B50B7892B00C4630
:1042E0007BB9194902A805F09BF800238DF800302E
:1042F000164B17491B78174802AAFFF76CFF12B03C
:1043000010BD084605F002F8C8280ED1124902A8CF
:1043100005F086F804F013F9104B9861104B012258
:104320001A70104B00221A70DFE7204604F0EEFFEF
:10433000C928EBD0204604F0E9FF0B4A0346402190
:1043400002A802F0EBFFD0E75D970B008DE403209D
:1043500094970B0020E5032065970B00C4E503202C
:10436000E0E50320C8E4032077970B0007B5084B6E
:1043700008491A78084B09481B788DF800308DF8E9
:1043800004203C23064A02F073FA03B05DF804FBF4
:104390008CE40320A1970B008DE4032020E503208B
:1043A000649F0B0007B580680B4630B10021CDE952
:1043B00000210A46032102F077FC03B05DF804FBFC
:1043C0000023042202F0BABE70B5037D05460E46F6
:1043D000CBB10368DB6823B19A88042A16D09B68A6
:1043E000F9E70B49102004F03FFB044660B11022AE
:1043F000002104F0D5FF074B23600423A3802B6921
:104400002C61C4E9023670BD2875FCE7DE60FAE76E
:10441000449F0B001000030010B58368044613B1DD
:10442000032201469847204610BD000037B5134BC4
:10443000036004468068C8B100256FF00043CDE9F1
:10444000003502212B462A4602F02EFCA0682946A0
:1044500002F05AFC237903F0FF0513B102F0FCFBD4
:10446000F8E7A068294602F00FFCA56004F10C00F3
:10447000FFF7D2FF204603B030BD00BF709A0B009B
:1044800010B50446FFF7D2FF20461C21FFF707FEB8
:10449000204610BDF8B5037D05460F4616468BB184
:1044A0000368DB6883B19A88012A06D09B68F9E724
:1044B0009B684BB19A88012AFAD12BB19A89BA42EA
:1044C000F6D19E732846F8BD0A49102004F0CCFAB4
:1044D000044668B11022002104F062FF064B2360FD
:1044E0000123A3802B69A360A781A6732C61E9E750
:1044F0002875E7E7449F0B001000030010B5044641
:10450000006818B102F0F2FE0023236010BD07B569
:1045100001230822CDE900234FF47A71002341439F
:104520006A46184602F062FE03B05DF804FB000024
:1045300037B51C49054603F0EAFD044600B31A4CA2
:10454000012360686370FFF7E2FF636817484FF468
:104550007A716FF000425943FFF724FF02F00EFE1C
:1045600048B100238DF80030114B124A1B781249D4
:104570001248FFF730FE124B0120187003B030BD17
:104580001049284603F0C3FD0028F7D0064B5C70A5
:1045900002F0F4FD0028EED0054B8DF800401B78AA
:1045A000094AE4E7EB960B00C4E50320ECE40320A2
:1045B0008DE40320A3970B0058970B0020E5032000
:1045C000E0E5032046970B00B8970B00F7B5324D96
:1045D000324C2B78BFF35B8F060171B3D80709D437
:1045E0002846FFF76BFD28B102F0DEFB206028466D
:1045F000FFF769FD23689B5D5F012B78BFF35B8F3D
:10460000D90709D42448FFF759FD28B102F0CCFBA3
:1046100020602148FFF757FD2068064401A8737801
:1046200003F01F033B430193FFF756FD019A01235B
:104630009340C0F8083503B0F0BDDA0709D4284626
:10464000FFF73CFD28B102F0AFFB20602846FFF7E2
:104650003AFD23689B5D5F012B78BFF35B8FDB071F
:1046600009D40D48FFF72AFD28B102F09DFB206018
:104670000948FFF728FD2068064401A8737803F075
:104680001F033B430193FFF727FD019A012393404A
:10469000C0F80C35CFE700BF68E403206CE40320CA
:1046A00007B502F06BFD48B100238DF800300B4BCD
:1046B0000B4A1B780B490C48FFF78DFD0B4A0C4841
:1046C0007823536000230121537293721C231180BD
:1046D00003B05DF804EB01F032BA00BF8DE40320B3
:1046E000CC970B0058970B0020E50320C4E503206E
:1046F000CCE40320084B5A68B2F5966F84BF4FF4A0
:1047000016725A605A69FF2A84BF00225A61034B0D
:1047100001221A70704700BFC4E50320E0E50320C2
:1047200008B501210520FFF751FF00210520FFF703
:104730004DFF024B00221A7008BD00BF30E6032077
:1047400010B51D4CCEB0236AE0690C9304F0F8FA62
:10475000CDE90A01A06904F0F3FACDE90801606926
:1047600004F0EEFAE36A0593CDE90601A36A206935
:10477000049304F0E5FACDE90201E06804F0E0FA00
:104780000E4ACDE900014FF480710EA802F0C6FD7B
:1047900000238DF800300A4B0A491B780A480EAAFC
:1047A000FFF719FD094B01221A7002F0D5FA084BE8
:1047B00018604EB010BD00BF7CE50320E4970B00ED
:1047C0008DE403206F980B0020E50320C8E403204C
:1047D00034E6032030B5114D114C12492A78207867
:1047E0008DB01A2303FB0212009203FB00130E4A42
:1047F000282102A802F092FD2B78237002F0BEFC63
:1048000048B100238DF80030084B09491B7809484E
:1048100002AAFFF7E0FC0DB030BD00BFB8E50320F1
:104820001EE5032028E3032082980B008DE403207B
:1048300090980B0020E5032070B51B481B4E406884
:1048400000231A46194602F009FD02F08FFC4FF4CE
:104850009675002002F090FA0446002002F08CFACF
:10486000001B61F10001B0F57A7F71F1000305D200
:1048700002F084FC10B902F071FCEEE702F07EFC5D
:1048800040B902F069FA306002F068FCFFF748FFB7
:10489000013DDED102F072FC20B1054A0123137202
:1048A000044A137070BD00BF54E603202CE70320B8
:1048B000C4E50320E0E5032037B52749044603F0AB
:1048C00026FC40B32449204603F021FC58BB234971
:1048D000204603F01CFC00283AD002F04FFC204C8C
:1048E00018B9FFF7A9FF0123237200251D4B8DF88E
:1048F00000501B781C4A1D491D48FFF76CFC4FF403
:104900007A7002F067FD1B4A1B4B11689288E572B2
:1049100019609A801CE01149204603F0F8FB00283A
:10492000D0D103B030BD02F029FC48B100238DF88E
:1049300000300C4B114A1B780C490D48FFF74BFC1B
:10494000074B0F490C480122DA72062204F095FD4C
:104950000C4B01201870E4E7EB960B0046970B0018
:10496000C4E503208DE40320B5980B0058970B0095
:1049700020E50320C7980B0008E50320A1980B0051
:10498000B0980B00E0E5032008B502F0F7FB80F0DB
:104990000100C0B208BD000030B585B0002401A8F8
:1049A000CDE90144ADF80C4002F01AFE204602F0B9
:1049B000E3F943F698250446002002F0DDF9001BD8
:1049C00061F10001A84271F1000305D2FFF7DCFF9D
:1049D00010B902F0C3FBEFE7FFF7D6FF0948002349
:1049E00019461A46406802F041FC074B00221A7231
:1049F000064B01244FF4FA601C7002F0EBFC2046D9
:104A000005B030BD54E60320C4E50320E0E50320F3
:104A100030B585B00D4600226946009202F01CFBBD
:104A200090B9009C0CB1236923B9084A08490A20AF
:104A300002F0FAFA0C23CDE901350423039301AA0D
:104A4000236901212046984705B030BD496D0B0010
:104A5000CD980B0030B50E4D0FCD89B001AC0FC411
:104A600095E8070084E8070069460720FFF7D0FFB4
:104A70000028A8BF0098074A08AB03EB800010216C
:104A800050F81C3C044809B0BDE8304002F046BC78
:104A9000C09A0B00949B0B008EE4032070B5614C10
:104AA000614886B00025257002F0B2F8B5EE400AE4
:104AB000F1EE10FA00F0AA805B4802F0A9F810EEBF
:104AC000100A84ED030A04F03BF9584ACDE90001CD
:104AD0001021574802F022FC534802F0A7F810EECC
:104AE000100A84ED040A04F02BF9524ACDE90001C2
:104AF0001021514802F012FC504800F039FE4F4896
:104B000084ED050A00F054FE4C4884ED060A00F0DE
:104B1000D0FD07EE900AF8EE677A64261320C4ED04
:104B2000077A03F00FFF2B4640F68A62294600966B
:104B300002F044FCA062122003F004FF2B4640F672
:104B40008A622946009602F039FCE062606904F04E
:104B5000F7F83B4ACDE9000110213A4802F0DEFBAC
:104B6000A06904F0EDF8384ACDE90001102137487A
:104B700002F0D4FBE06904F0E3F8354ACDE9000126
:104B80001021344802F0CAFB02A90320FFF740FFBE
:104B900000283ED1BDF8083007EE903AFBEECC7A03
:104BA000FDEEE77A102117EE903A2B4A2B48C4ED20
:104BB000087A02F0B3FBFFF74DFF02A90320FFF7CD
:104BC00027FF48BBBDF8083007EE903AFBEECC7AE1
:104BD000FDEEE77A224A17EE903A1D2BC2ED037ADA
:104BE0001DDC01239372D37A4BB91E4902A803F04E
:104BF00034FA02A8FFF760FE02A803F0E3F90125EA
:104C0000257003F09CFC184B60601D70284606B0B0
:104C100070BDFFEE007AC3E7FFEE007AD8E700230D
:104C20009372ECE77CE50320ACE50320F3980B00DE
:104C3000E1E50320FB980B00DCE40320F4E503200E
:104C400003990B000EE503200F990B0038E60320B3
:104C50001D990B0070E4032029990B009EE40320AA
:104C6000C4E50320EB960B0078E5032070B5784C83
:104C70002378013B8AB0062B49D8DFE813F0C10046
:104C8000070029006A008F0015015F01714D6B7AE2
:104C90002BB1714B1B78022B01D0FFF79BFDEB7AF8
:104CA00053B102F059F86D4B1B68C01A6C4B1B686E
:104CB000984284BF0623237003F041FC4FF49663AF
:104CC00090FBF3F202FB130008BB032323701EE0EA
:104CD000604E737A2BB1604B1B78032B01D0FFF72A
:104CE00079FDFFF7DBFE0546002830D10123237054
:104CF00002F032F85B4B1860737A43B15A4B8DF86F
:104D000000501B78594A5A495A48FFF764FA5A48E2
:104D100001F018FB594B1B780BB1FFF701FD584C04
:104D200023783BB11C234B4A5648012100F007FF72
:104D300000232370544C23783BB13023534A51480D
:104D4000A02100F0FCFE002323700AB070BD0423F4
:104D5000BCE7404D6B7A2BB13F4B1B78042B01D045
:104D6000FFF738FD2B7A0BB9FFF766FD02F006FA64
:104D700068B103F0F5FB0C2805D102F0FFF910B182
:104D8000002002F01BFAFFF7DBFC05239EE701235E
:104D9000237001F0E1FF334B1860B8E72D4B5B7ACD
:104DA0002BB12D4B1B78052B01D0FFF713FD384B92
:104DB0001B7843B902232370294B364A1A6001F04D
:104DC000CBFF264BE8E701F0C7FF334B1B68C01A47
:104DD0004AF6C87398429AD901F0BEFF214D2F4A76
:104DE000286000238DF800301F4B2D491B78214887
:104DF000FFF7F1F90123237001F0AEFF286086E789
:104E0000144B5B7A2BB1144B1B78012B01D0FFF7AD
:104E1000E1FC01F0A1FF134B1B6803F5922303F59E
:104E200078738342BFF473AF02F0A8F948B100234E
:104E30008DF800300C4B1B4A1B780D490D48FFF7CD
:104E4000CAF94FF4FA6002F0C5FA03F0A8F95EE778
:104E5000B8E50320C4E503201EE50320C0E50320D8
:104E6000BCE5032058E503208DE403202E990B00B8
:104E700048990B0020E503205CE5032030E6032081
:104E8000E0E50320CCE4032078E503207CE5032063
:104E9000C8E40320905F010034E60320649F0B0008
:104EA0004E990B0067990B004A4D6B7A2BB14A4B18
:104EB0001B78062B01D0FFF78DFC2B7A0BB1FFF787
:104EC0006BFD464B4FF47A721A6003F038FB4FF4D7
:104ED000966590FBF5F303FB1500414B2D1A1A7DE7
:104EE000B5F5966FA8BF4FF496650AB102221A7203
:104EF000002204213A48FFF7CDFA4FF47A71694352
:104F0000FFF762FA364903A803F04CF9039B7BB123
:104F10009A88012A0CD19B89042B09D1314906A812
:104F200003F09BF806A8FFF7C7FC06A803F04AF8B1
:104F3000032303A82370FFF7E1FAE8E6254D6B7A17
:104F40002BB1254B1B78072B01D0FFF743FC2B7AA5
:104F50000BB1FFF721FDFFF7E3FB03F0F0FA4FF48D
:104F6000966590FBF5F303FB15001D4B2D1A1A7D7A
:104F7000B5F5966FA8BF4FF496650AB102221A7272
:104F8000002204211648FFF785FA4FF47A7169432D
:104F9000FFF71AFA124906A803F004F906A8FFF76A
:104FA000ADFA0F4903A803F0FDF8039B7BB19A8883
:104FB000012A0CD19B89042B09D10A4906A803F0C8
:104FC0004CF806A8FFF778FC06A802F0FBFF0223C6
:104FD000AFE700BFC4E503201EE50320BCE50320C6
:104FE000B0E4032046970B00F0B500219BB00820E9
:104FF00003F084FC0121052003F080FC0021042043
:1050000003F07CFC0021132003F078FCFFF788FB01
:105010000023009301224FF0FF339949082002F04A
:105020001BFE984B0AAA03F110051646186859682A
:10503000144603C40833AB422246F7D119889B7843
:10504000A3702D222180904D00210DF13B0004F032
:10505000A7F9022702A82F7002F098F802A906A863
:10506000002403F01DF8894906A803F03BF8CDE9B8
:105070000044224686490068234602F097F806A8B5
:1050800002F0A0FF02A802F09DFF824B824819683F
:10509000FFF796F981498248FFF792F981498248E2
:1050A000FFF78EF981498248FFF78AF981498248E2
:1050B000FFF786F981498248FFF782F981498248E2
:1050C000FFF77EF981498248FFF77AF981498248E2
:1050D00023463A4602F032F8234601227F498048AF
:1050E00002F02CF87F498048FFF76AF97F4A80492F
:1050F000804802F064FA804A80497E4802F05FFAF4
:105100007F4A80497B4802F05AFA754A7E497948BD
:1051100002F055FA7D4A7E49764802F050FA7D4801
:1051200001F008F821467B4801F043F97A48442110
:1051300001F0D9FC48B97949304604F071F90123EE
:105140002B7001F009FE764B186003F029FC014634
:10515000744800F050FB60B901F0FEFD704C7249DC
:105160002060304604F05CF901232B7001F0F4FD5F
:1051700020606C48002100F0B6FA6A480C2100F06B
:10518000A9FA0121674800F09FFA684800F04AFC3C
:105190000123664802AA002100F086FC9DF8083031
:1051A000052B2BD0614800F047FC614A5F4804237F
:1051B000002100F0C4FC01235C4802AA002100F099
:1051C00073FC9DF80830052B15D001232B70594C2A
:1051D000FFF790FAFFF730FBE37AB3B15649414845
:1051E000062204F04AF9637823B301F0C7FF98B9A7
:1051F00001F0B4FFF9E7FFF753FAE8E74D4A4B48EF
:105200001C23012100F050FCE1E74C4A354B1168AA
:10521000928819609A80E6E701F0B0FF6068FFF7B6
:1052200076F9636846484FF47A716FF0004259434B
:10523000FFF7B8F8042003F072FB08B9FFF730FA63
:10524000FFF72CFCA37A4BB13E4906A802F005FFFC
:1052500006A8FFF731FB06A802F0B4FE637A4BB153
:1052600000238DF80030384B38491B7838483246D7
:10527000FEF7B1FF2B780BB902232B701BB0F0BDEA
:10528000CD400B00DC9A0B00B8E503207B990B00A6
:10529000D9420B0024E303209E990B00E1E5032093
:1052A000A6990B00DCE40320B2990B000EE5032065
:1052B000BB990B0038E60320BF990B0070E4032074
:1052C000C5990B009EE40320CD990B008EE40320CA
:1052D000D5990B00C8E50320E4990B00C5E5032030
:1052E000AA970B0008E50320F3990B00009A0B0026
:1052F0000D410B0093750B000C9A0B0059420B00EB
:105300002A970B00F1410B0031450B00199A0B0055
:10531000B9480B005CE50320ACE50320279A0B009D
:1053200058E50320F4E50320449A0B00CCE4032065
:105330001C9B0B00C4E50320B0980B00C7980B0022
:10534000ECE40320EB960B008DE40320609A0B0045
:1053500020E50320364B374A70B501251D70364BCA
:1053600002201870354B002488B0C3E900449A60CD
:1053700001F084FE2146284601F090FE29460420D3
:1053800001F0CAFC2E4B2F481C611A1D1A602E4AD0
:105390005A60C3E902441D7500F08AF92B482C4D70
:1053A00001F07CFB03F0FCFA4FF400520146234667
:1053B000284600F02DFB274B2B6003F0F1FA264D19
:1053C0000146264800F09EFD25494FF4006228461C
:1053D00001F024FB234B2B60234B049304AD234BA0
:1053E000234A1A6095E8030003F10C0202AE86E836
:1053F000030092E8030085E8030096E8030082E8D2
:1054000003001C4A5A619A6907921B4A9A611C71EF
:105410009C601A4A06944FF47A7103F10800CDE9B2
:10542000004401F029FC2846FEF7F6FF08B070BDE5
:105430008DE403200000FFFF8CE4032080E40320C0
:10544000B0E40320F4E5032010000300ACE50320E2
:10545000CCE40320AC9A0B0020E503205CE503209C
:1054600000F40320849A0B006D430B00ECE403204E
:10547000709A0B00BF410B00D3410B0085410B001C
:105480004260002201700272704710B5037A044630
:1054900053B12178606802F0BDFB606802F0C5FB83
:1054A000B0FA80F0400910BD00F003F80028F0D1F8
:1054B000F9E710B50446406802F07AFB0123237235
:1054C0002046BDE81040FFF7E0BF2DE9F843DDE9D5
:1054D00008961F469319202B04468846154602D984
:1054E0000020BDE8F8830178406802F093FB7EB9A4
:1054F000606803682A46DB68414698478542EFD1D9
:105500006068394602F08DFBB0FA80F04009E8E7A8
:10551000B9F1000FECD0606803683246DB68494699
:1055200098478642DCD1E3E7202A70B506460C4650
:1055300015460FD80178406802F057FBA84209D100
:105540002518A54208D0706803685B69984704F87D
:10555000010BF6E7002070BD0120FCE773B51D4686
:105560000023CDE900339DF81C30069E0446FFF76A
:10557000ACFF40B1012332462946204602B0BDE8C7
:105580007040FFF7D1BF02B070BD10B501608280DE
:105590009DF80C109DF80820C1710272837110BD36
:1055A0001FB583888DF80C301B0A8DF80D30C37938
:1055B000019303AB009300680123FFF786FF05B05A
:1055C0005DF804FBF0B40C4602B98279042A13D8C2
:1055D00000F1090583182946834209D0077AE6B20B
:1055E00027B92E70240A0135013BF5E71E72F9E751
:1055F000F0BC1846FFF7D4BF0020F0BC704713B5CD
:1056000004460B46818804F8091F0021CDE90021DA
:10561000012221460068FFF7A1FF02B010BD38B596
:1056200000F10905827929460446FFF7E8FF78B1C1
:10563000A279294622440020A2420BD00302207AFC
:1056400020B9107A1843013A0131F5E70878F9E7F3
:105650004FF0FF3038BD10B501600271437110BDCD
:1056600010B504460068FFF7DAFF23795A1C0123BE
:1056700093406279013BD040184010BD70B504469C
:1056800000680E46FFF7CBFF2379617901330122D1
:105690009A40531E03FA01F520EA050533402068BD
:1056A00003FA01F129438279BDE87040FFF78ABF10
:1056B000704708B54068FFF7B2FF80B208BDC06907
:1056C00081F00101FFF7DABF006AFFF7D7BF406A38
:1056D000FFF7D4BF806AFFF7D1BF08B5806AFFF734
:1056E000BFFFC0B208BDC06AFFF7C8BF08B5C06A37
:1056F000FFF7B6FFC0B208BD10B52DED028B044612
:10570000B0EE408AFFF7F2FF022818D0032813D02A
:10571000012803D1F6EE007A28EE278A2046FFF70B
:10572000DCFF01380B2814D8DFE800F0181B1E132B
:10573000131313111313130CF1EE007AECE7F2EECE
:10574000007AE9E7F1EE007A28EE278A01E038EEE8
:10575000088AB0EE480ABDEC028B10BDF6EE007A66
:10576000F2E7F5EE007AEFE7F4EE007AECE70000FE
:1057700010B504464068FFF752FF07EE900A204636
:10578000B8EE670AFFF7B8FF10EE100A03F0D8FA78
:1057900005A3D3E9002303F02BFB03F03BFD00EE50
:1057A000100A10BDAFF3008092CB7F48BF7DAD3FA4
:1057B00010B504468068FFF732FF07EE900A2046D6
:1057C000B8EE670AFFF798FF10EE100A03F0B8FA78
:1057D00005A3D3E9002303F00BFB03F01BFD00EE50
:1057E000100A10BDAFF3008092CB7F48BF7DAD3F64
:1057F000006BFFF743BF7FB504460C200391FEF713
:105800004AFC054618B1039A1021FFF739FEA5633B
:105810002846FFF74EFE0546002800F0D2801020F3
:10582000FEF739FC064638B101230022CDE90023FA
:10583000A16B0223FFF7A9FE26601020FEF72BFCC8
:10584000064638B100230122CDE90032A16B0223C4
:10585000FFF79BFEE6601020FEF71DFC064640B1F8
:1058600000230122CDE900320223A16B1A46FFF783
:105870008CFE26611020FEF70EFC064648B1002380
:105880004FF0010ECDE9003EA16B02230322FFF78A
:105890007CFE66611020FEF7FEFB064648B1002341
:1058A0004FF0010CCDE9003CA16B02230422FFF76D
:1058B0006CFE66601020FEF7EEFB064640B100234A
:1058C0000121CDE900310522A16B0223FFF75DFE26
:1058D000A6601020FEF7DFFB064640B10023012240
:1058E000CDE90032A16B02230622FFF74EFEA6612E
:1058F0000820FEF7D0FB064620B1216800230122D4
:10590000FFF7A9FEE6610820FEF7C5FB064620B1B9
:10591000012321681A46FFF79EFE26620820FEF743
:10592000BAFB064620B1216804230222FFF793FE4A
:1059300066620820FEF7AFFB064620B12168062309
:105940000422FFF788FEA6620820FEF7A4FB0646A5
:1059500020B121680B230222FFF77DFEE6620820BA
:10596000FEF799FB064620B1616900230122FFF78B
:1059700072FE26630820FEF78EFB064620B16169A1
:1059800001230222FFF767FE002120466663FFF72E
:1059900096FE00212046FFF797FE00212046FFF7E4
:1059A00096FE00212046FFF79EFE00212046FFF7CD
:1059B00091FE00212046FFF71BFF01212046FFF743
:1059C0007EFE284604B070BD704710B51021044615
:1059D000FEF765FB204610BD0368C9B29B681847F7
:1059E0000EB400B58CB00DAA4FF0200C52F8041B79
:1059F0000392CDE900120023016804AA1E20CDE91C
:105A000004C301F021FB0CB05DF804EB03B0704758
:105A100030B5034DC0E90223C0E9005130BD00BFDD
:105A2000549B0B00406802F0C3B810B504460068F0
:105A300002F007F9204610BD2DE9F0418AB0044676
:105A40004068019002F0F4F81E22002102A8A76825
:105A500003F0A6FC0026EFB123681E2FB84628BF2E
:105A60004FF01E08DD6802AA434631462046A8478B
:105A7000054658B90A480B493246FFF7B1FF01A85D
:105A8000FFF7D3FF28460AB0BDE8F081A7EB08076F
:105A90004644E0E701A8FFF7C8FF0125F2E700BF91
:105AA0008CE60320209B0B002DE9F7430446406859
:105AB00001900D4616461F4602F0BAF8A7B1E168FC
:105AC000606841F0500102F0A9F8290A6068FFF708
:105AD00083FF29466068FFF77FFF6068002102F0BE
:105AE000A0F848B1002400E0012401A8FFF79DFFC1
:105AF000204603B0BDE8F083202F217B6068B846C4
:105B000028BF4FF020080123424641F0500102F027
:105B10006CF802F045FF03681B6998474045E1DBDC
:105B200006EB080902F03CFF03685B69984706F83A
:105B3000010B4E45F6D14544A7EB0807BEE72DE91A
:105B4000F74F0446406801900E4690461D4602F00D
:105B50006FF84FF00109B9F1000F2AD04DB3E16899
:105B6000606841F0500102F059F8310A6068FFF7AF
:105B700033FF60683146FFF72FFFA5F11E0A474645
:105B8000A6EB080B606817F8011B0368013D9B68D2
:105B9000984755450BEB0706B84601D0002DF1D1CB
:105BA0006068012102F03DF80028D7D04FF00009CD
:105BB000D1E701A8FFF739FF484603B0BDE8F08FF1
:105BC0002DE9F0438BB00E461546804640680190A3
:105BD0001C4602F02DF8AE4229D2264425448CB151
:105BE0001E2C2746D8F8003028BF1E27F61BD3F8F6
:105BF000089002AA3B4631464046ED1BC84748B9CB
:105C0000002400E0012401A8FFF70FFF20460BB09D
:105C1000BDE8F083D8F8003002AAD3F80C902946EA
:105C20003B464046C8470028EAD0E41BD7E7E9D9FD
:105C3000002CE7D0D8F800301E2C274628BF1E279E
:105C4000D3F8089002AA3B4631464046C847002890
:105C5000D6D0D8F8003002AAD3F80C9029463B469B
:105C60004046C8470028CBD03E443D44E41BDFE714
:105C7000402070470020704780207047FF20704709
:105C8000704770477047704710B514210446FEF7FF
:105C900006FA204610BD10B508210446FEF7FFF9AC
:105CA000204610BD10B508210446FEF7F8F920463D
:105CB00010BD10B51C210446FEF7F1F9204610BDB9
:105CC0002DE9FF410368DB6804469847102201462E
:105CD000684603F065FB236820469B6898470025CB
:105CE00007462846BD420ED27E1B2368102E28BFD1
:105CF0001026D3F818806A46334629462046C04706
:105D000008B13544EEE704B0BDE8F0810368C9B2DC
:105D10009B6818474FF48073438140F20113C360BE
:105D20000023038270470000064A026008B5064A55
:105D3000426040F20472028100224274FFF7EAFFDF
:105D400008BD00BF349C0B000001020303090A22B6
:105D500000F00F0002FB0300704708B5807AFFF7E0
:105D6000F5FF00F5FA6008BDC07A00F01F00FFF7EC
:105D7000EDBF007B00F03F00FFF7E8BF08B5817B77
:105D80004A060DD501F01F00FFF7E0FF8B0603D593
:105D90000C2800D00C3008BD0C2808BF0020FAE702
:105DA000BDE8084001F03F00FFF7D0BFC07B00F026
:105DB0007F00FFF7CBBF007C00F07F00FFF7C6BF7E
:105DC00010B58AB024220446002101A803F0E8FAA5
:105DD0002046FFF7C2FFA0F26C7006902046FFF746
:105DE000C3FF013805902046FFF7C3FF049020460B
:105DF000FFF7C4FF03902046FFF7D8FF029020462C
:105E0000FFF7D9FF019001A801F0D0FA0AB010BD48
:105E10000A2290FBF2F191FBF2F302FB13131B0138
:105E2000DBB202FB11001843C0B27047642310B507
:105E3000044691FBF3F000FB1310FFF7E9FFA0729B
:105E400010BD10B504460846FFF7E2FFE07210BD32
:105E500010B504460846FFF7DBFF237B23F03F0322
:105E60001843207310BD10B50446481CFFF7D0FF3F
:105E7000637B23F007031843607310BD10B504461D
:105E80000846FFF7C5FFA07310BD10B504460846CD
:105E9000FFF7BEFFE07310BD10B504460846FFF7DC
:105EA000B7FF237C23F07F031843207410BD37B560
:105EB00004466846CDE9002303F02CFA0546416903
:105EC0002046FFF7B3FF296920460131FFF7B9FFEC
:105ED000E9682046FFF7BCFFA9692046FFF7C3FF2A
:105EE000A9682046FFF7CAFF69682046FFF7CDFF83
:105EF00029683B29A8BF3B212046FFF7CDFF03B00F
:105F000030BD0000054A0061C0E90021044A8260FA
:105F1000044AC260044A806142617047689C0B0079
:105F200000000103109C0B00449C0B002DE9F84F6E
:105F300004460F469046994600260A9B9E4231D25F
:105F40006068394601F066FE606808EB0601FFF7FD
:105F5000DDFE6068002101F064FE0546D0B90A9BB1
:105F600060689A1B202A4FF0010328BF202239467F
:105F700001F03BFE09EB060B05460BEB000ADA4588
:105F800006D0606803685B6998470BF8010BF6E779
:105F90002E44D2E7024604490448FFF721FD284673
:105FA000BDE8F88F0025FAE7689B0B0048E6032060
:105FB0002DE9F34101EB03081E4603689B68054683
:105FC0000C461746984780450DD8203468680096DF
:105FD0003B46E2B26F21FFF7A9FFB0FA80F040091B
:105FE00002B0BDE8F0810020FAE72DE9F34101EBB2
:105FF00003081E4603689B6804460D4617469847EB
:1060000080450CD8606800963B46EAB25721FFF7FE
:106010008DFFB0FA80F0400902B0BDE8F0810020A9
:10602000FAE7012B7FB514461E4624D8002B0CBF7F
:106030000723062300930A4602AB6F21FFF776FF82
:106040000546A8B99DF8083023749DF80930E3731C
:106050009DF80A30A3739DF80B3063739DF80C30E4
:1060600023739DF80D30E372F6B99DF80E30A372DC
:10607000284604B070BD022B1CD1042300930A46AD
:1060800002AB6F21FFF752FF05460028F0D19DF8C3
:106090000830E3739DF80930A3739DF80A30237329
:1060A0009DF80B302074E37202F066FAFFF7B0FE41
:1060B000A072DDE74FF0FF35DAE71FB501230A468E
:1060C00000936F2103ABFFF731FF20B99DF80C005F
:1060D00005B05DF804FB0020FAE708B50321FFF7DF
:1060E000ECFFC0F3401008BD38B500230C460A464B
:1060F00019460546FFF795FF30B9A37A23B1284624
:10610000BDE83840FFF7E9BF002038BD10B586B0C4
:10611000044601A8FFF708FE01A92046FFF7E4FFA7
:1061200020B101A8FFF74CFE06B010BD00200146CB
:10613000FAE7000070B5044686B0406801F038FD0B
:1061400002F0E0F9E8B9E37A9B071AD52046FFF799
:10615000DDFF50EA010306460D4612D002F0D7F8E3
:106160000A4B0B491B68009332462B4602A802F0EB
:1061700087F90848029A0849FFF732FC02A801F0A3
:1061800021FF0123237206B070BD00BFF8E3032096
:10619000B8E6032048E60320829B0B002DE9F84F68
:1061A0000646884691469A4600250A9B9D4229D27A
:1061B0007068414601F02EFD706809EB0501FFF79C
:1061C000A5FD0A9B5F1B1F2F28BF1F270AEB050495
:1061D00007EB040B706814F8011B02689268904783
:1061E000A345F7D17068012101F01BFD044638B1C9
:1061F000024605490548FFF7F3FB2046BDE8F88F46
:106200003D44D2E70024F8E7979B0B0048E60320C3
:106210002DE9F34101EB03081E4603689B68054620
:106220000C461746984780450DD82034686800967C
:106230003B46E2B26F21FFF7B1FFB0FA80F04009B0
:1062400002B0BDE8F0810020FAE71FB5137C8DF89D
:106250000830D37B8DF80930937B8DF80A30537B5F
:106260008DF80B30137B8DF80C30D37A8DF80D3010
:10627000937A8DF80E30072300930A4602AB6F2104
:10628000FFF78CFF05B05DF804FB10B588B004463D
:1062900003A8CDE90032FFF747FDDDE9003203A88E
:1062A000FFF705FE9DF81C30A27A63F07F038DF89E
:1062B0001C309DF819306AB143F0080303AA00218D
:1062C00020468DF81930FFF7C0FFB0FA80F0400982
:1062D00008B010BD03F0F703F0E7000030B589B057
:1062E000054602F00FF90446E8B102F028F9C31799
:1062F000CDE9023002462846FFF7C7FF0C4909687E
:106300000091DDE902320B49044604A802F0B8F816
:106310000948049A0949FFF763FB04A801F052FEFB
:10632000204609B030BD06490348FFF759FBF7E79F
:10633000F8E30320B8E6032048E60320B29B0B00F5
:10634000C89B0B0037B5457A04469DB902F0DAF8D0
:1063500080B10022002369462846CDE9002300F0E1
:106360003DFF38B1E37ADB0702D52046FFF7B6FFE1
:106370000123637203B030BD1FB501238DF80C20DB
:1063800000930A4603AB6F21FFF708FF05B05DF8E5
:1063900004FBF8B5174604460D461E46FFF78DFE72
:1063A000384040EA060229462046BDE8F840FFF79B
:1063B000E3BF012908B50DD800290CBF1022202207
:1063C000002382F0FF020721FFF7E3FFB0FA80F01D
:1063D000400908BD0020FCE738B504463225606856
:1063E000572101F017FC6068012101F01AFC08B187
:1063F000013DF4D138BD00002DE9F04104460F46BF
:10640000164602EB0308B04520D06068572101F022
:1064100001FC39466068FFF779FC606816F8011BDB
:1064200003689B6898476068012101F0FAFB013717
:10643000054638B1024606490648FFF7D1FA284614
:10644000BDE8F0812046FFF7C7FFDCE70025F6E74F
:10645000DD9B0B0048E60320F7B5CF181E46036806
:1064600001929B6804460D46984787420AD8019AD4
:1064700060683346E9B2FFF7BFFFB0FA80F0400929
:1064800003B0F0BD0020FBE7014B024A1A607047E1
:1064900048E60320FE9B0B0010B5012303748368BC
:1064A000044643B1C0689847012363740020BDE8E7
:1064B000104000F021BC00680028F5D083680BB9BB
:1064C00002F0D6FAC368EEE710B4426803465410EF
:1064D00001EB6200D20748BF0A591B685DF8044B04
:1064E00048BFD3581847012A02D1016000207047E5
:1064F000022A04BFD1E90023C0E90023F6E7000027
:1065000010B50346D1E9000286B00021049108B914
:10651000D10705D5CDE902020F4A05920F4A049230
:1065200002AA92E803006C4684E8030093E80300A3
:1065300082E8030094E8030083E803000499986864
:1065400004909960D8680599D96005901046FDF7C8
:1065500063FF06B010BD00BFC9640B00E7640B0009
:1065600013B5044600F0F8FB636AC01AE36898426A
:1065700008D3054B00936946002304F110000193F2
:10658000FFF7BEFF02B010BD69660B0007B5054BF3
:1065900000936946002310300193FFF7B1FF03B069
:1065A0005DF804FB69660B002DE9F34104460E46D5
:1065B00014201C4990461F4602F056FA30B10025BF
:1065C000C0E90055C0E9025505744574206098B1D2
:1065D000099B9DF82020C0E902873146CDE90003E0
:1065E000114B043000F030FB30B923681B7CA3B999
:1065F000012000F0A1FBF8E725680023236065B1C6
:106600002E6836B13046FDF707FF10213046FDF702
:1066100046FD14212846FDF742FD204602B0BDE8A4
:10662000F08100BF449F0B0099640B00012337B534
:1066300080F829300446083000F03EFB0420FDF7C6
:106640002AFD054648B102234FF40062CDE900322D
:106650000349044A2346FFF7A7FF656003B030BD36
:10666000709C0B0083690B002DE9F04190F82A30F3
:1066700086B00446002B64D100F080FD002860D075
:1066800000F06AFB636AC01A40F2F133984258D9AD
:10669000236820465B6998470546002851D000F1E1
:1066A0000807012384F82830384602F0DEFE95F80A
:1066B0000480CDF8048001302B682B4900933E18EC
:1066C00033462A483A46FFF78BF92B688DF800804D
:1066D0003246394602A801F083F8029D6B781BB957
:1066E000012000F077FEF8E7002000F0DFFC20B189
:1066F0006B7813B900F032FDFAE72B78012B23D128
:106700001B491A48FFF76CF9236800219B69204652
:106710009847002384F8283000F01EFB6062039C39
:106720007CB16368013B63605BB9236820469B686A
:106730009847A368013BA3601BB923682046DB6828
:10674000984706B0BDE8F081E2680A490748FFF7BC
:1067500047F9094B049304A9002304F110000593A1
:10676000FFF7CEFED5E700BF829C0B004CE603206E
:10677000A39C0B00BA9C0B0061650B0047F23051E3
:10678000084AC160084902600022C0E904120749B2
:10679000C16107494260C0E908228161028580F831
:1067A0002A207047349D0B008D650B00C9640B00D7
:1067B000E7640B0010B5044B044640F8103BFDF7AE
:1067C0002BFE204610BD00BF349D0B0010B5034BBF
:1067D00003600446FFF7EEFF204610BD5C9D0B00F2
:1067E00010B50446FFF7F2FF20463821FDF757FCAD
:1067F000204610BD806800F067BA806800F06CBA6F
:1068000010B504460068FFF7F8FF204610BD13B529
:1068100004460190FFF7EEFFE36ADC88A4B20CB1F6
:1068200003F1080401A8FFF7EBFF204602B010BDFA
:1068300013B504460190FFF7DDFF94F8283043B903
:10684000E26A0124D38001A8FFF7DAFF204602B0F4
:1068500010BD0024F7E713B504460190FFF7CAFF07
:10686000E36A01A8DC88FFF7CBFF204602B010BD29
:106870002DE9F047994686B090F829309DF838A068
:106880009DF83C8004460F46164613B903689B6882
:106890009847314B3846002E08BF1E4602F0E5FDF2
:1068A0000546304602F0E1FD284400F10A05AB0739
:1068B0001CBF25F0030504353346CDE90285CDE93B
:1068C000009A264926483A46FFF78AF8238E083B65
:1068D000AB4212D20024204606B0BDE8F087CB8838
:1068E000012B36D005A8FFF78BFF236894F82810FA
:1068F0009B69204698470028ECD020460594FFF776
:1069000079FFE16A228E636B0A44D21AAA42E6D367
:1069100048EA0A0883F80480C3F80090636B03F127
:1069200008083946404602F07BFD404602F09DFDD6
:1069300001303146404402F073FD636BE26A2B4440
:106940006363D3880133D380012405A8FFF758FF80
:10695000C1E70024F9E700BF649F0B00E19C0B0036
:106960004CE6032008B5044600F11005A3690BB9F5
:1069700002F07EF8E36921462846984700F06CF95A
:10698000F4E708B5FFF7EEFF68B501F10805064624
:10699000284602F06AFD01300544284602F065FDF4
:1069A000F36A01302844C31A13F003031CBFC3F178
:1069B0000403C01868BDF7B504460E460190FFF702
:1069C00019FFE76AFB8807F10805E6B1012B22D918
:1069D00029462046FFF7D8FF054629462046FFF7FF
:1069E000D3FF228E3A44121A0146A0EB050602D0CC
:1069F000284602F0BBFC636B9B1B6363FB88013B77
:106A0000FB80012601E0002BE7D101A8FFF7F8FE8B
:106A1000304603B0F0BD0026F7E700002DE9F0474F
:106A20000D4604462F46174BDFF85C901646FFF7DD
:106A3000A5FE236057F8083BE5624B45268617D133
:106A4000AB889BB2B34213D105EB060A67634FF0E4
:106A50000008EB881FFA88F29BB29A420ED2616B53
:106A60002046FFF791FF5045606308F10108F0D917
:106A70000023C5F800906763AE80EB802046BDE838
:106A8000F08700BF5C9D0B0061AB9CD1014B024ABB
:106A90001A6070474CE60320229D0B00704738B502
:106AA00005460C4601F07CFF297801F0B3F801F0AF
:106AB00077FF0368210A9B68984701F071FF03681C
:106AC000E1B29B68984701F06BFFBDE8384001F0E8
:106AD000ACB808B543F2A201FFF7E1FFBDE80840FA
:106AE0000A2000F077BC38B504460D4601F058FF87
:106AF00001F05EF820462570FFF7EBFF012038BD5E
:106B00000A44FF2091420ED011F8013B584008235F
:106B100010F0800F4FEA400018BF80F03100013BB9
:106B2000C0B2F5D1EEE7704773B54FF4105105468A
:106B3000FFF7B5FF4FF4FA7000F04CFC01F030FFA6
:106B40002978062201F063F801F02AFF03681B6927
:106B500098470628044602D0002002B070BD6E4659
:106B600001F01EFF03685B699847013C14F0FF04C5
:106B700006F8010B6946F3D102222846FFF7C0FF51
:106B80009DF802408442E7D102220DF1030128461C
:106B9000FFF7B6FF9DF805408442DDD1BDF8000047
:106BA000BDF8034040BA80B202F0A8F816A3D3E9BA
:106BB000002302F01DF910A3D3E9002302F042FAEA
:106BC0000F4B002201F05CFF02F024FBA86060BACA
:106BD00080B202F093F80B4B002202F009F906A3F1
:106BE000D3E9002302F02EFA02F014FB68600120C2
:106BF000B3E700BFAFF3008000000000E0FFEF400C
:106C000000804640000059400000000000E0654060
:106C100010B50446FFF788FF10B194ED020A10BDCD
:106C20009FED010AFBE700BF0000C07F10B50446DE
:106C3000FFF77AFF10B194ED010A10BD9FED010A34
:106C4000FBE700BF0000C07F08B5024B1B685B6814
:106C5000019308BD4802030008B5024B1B68DB68BE
:106C6000019308BD4802030008B5024B1B68DB69AD
:106C7000019308BD4802030008B5024B1B681B6A5C
:106C8000019308BD4802030008B5024B1B685B6A0C
:106C9000019308BD4802030008B5024B1B689B6ABC
:106CA000019308BD4802030008B5024B1B68DB6A6C
:106CB000019308BD4802030008B5024B1B681B6B1B
:106CC000019308BD4802030008B5024B1B689B6B8B
:106CD000019308BD4802030008B5024B1B681B6CFA
:106CE000019308BD4802030008B5024B1B685B6CAA
:106CF000019308BD4802030008B5024B1B68DB6E18
:106D0000019308BD4802030008B5024B1B681B6FC6
:106D1000019308BD4802030008B5024B1B685B6E77
:106D2000019308BD3402030008B5024B1B685B6881
:106D3000019308BD1802030008B5024B1B689B684D
:106D4000019308BD1802030008B5024B1B68DB68FD
:106D5000019308BD1802030008B5024B1B685B696C
:106D6000019308BD1802030008B5024B1B689B6D18
:106D7000019308BD1802030008B5024B1B68DB6DC8
:106D8000019308BD1802030008B5024B1B685B6E37
:106D9000019308BD1802030008B5024B1B689B6EE7
:106DA000019308BD1802030008B5024B1B681B685D
:106DB000019308BD2C02030008B5024B1B685B68F9
:106DC000019308BD2C02030008B5024B1B689B68A9
:106DD000019308BD2C02030008B5024B1B68DB6859
:106DE000019308BD2C02030008B5024B1B685B69C8
:106DF000019308BD2C02030008B5024B1B689B6978
:106E0000019308BD2C02030008B5024B1B68DB6927
:106E1000019308BD2C02030008B5024B1B681B6BD5
:106E2000019308BD2C02030008B5024B1B68DB6808
:106E3000019308BD2802030008B5024B1B689B693B
:106E4000019308BD2802030008B5024B1B68DB69EB
:106E5000019308BD2802030008B5024B1B681B6A9A
:106E6000019308BD2802030008B5024B1B685B6A4A
:106E7000019308BD2802030008B5024B1B689B6AFA
:106E8000019308BD2802030008B5024B1B68DB6AAA
:106E9000019308BD2802030008B5024B1B681B6B59
:106EA000019308BD2802030008B5024B1B685B6B09
:106EB000019308BD2802030008B5024B1B681B6C38
:106EC000019308BD2802030008B5024B1B689B6CA8
:106ED000019308BD2802030008B5024B1B68DB6C58
:106EE000019308BD2802030008B5024B1B681B6D07
:106EF000019308BD2802030008B5024B1B685B69BB
:106F0000019308BD6402030008B5024B1B689B682F
:106F1000019308BD6802030008B5024B1B68DB68DB
:106F2000019308BD6802030008B5024B1B68DB69CA
:106F3000019308BD3002030008B5024B1B681B6AB1
:106F4000019308BD3002030008B5024B1B68DB68E3
:106F5000019308BD3C02030008B5024B1B681B6986
:106F6000019308BD3C02030008B5024B1B685B6936
:106F7000019308BD3C02030008B5024B1B689B69E6
:106F8000019308BD3C02030008B5024B1B68DB6996
:106F9000019308BD3C02030008B5024B1B681B6A45
:106FA000019308BD3C02030008B5024B1B689B6AB5
:106FB000019308BD3C02030008B5024B1B681B6C23
:106FC000019308BD3C02030008B5024B1B681B6817
:106FD000019308BD4C02030008B5024B1B681B69F6
:106FE000019308BD4C02030008B5024B1B685B69A6
:106FF000019308BD4C02030008B5024B1B689B6956
:10700000019308BD4C02030008B5024B1B68DB6905
:10701000019308BD4C02030008B5024B1B681B6AB4
:10702000019308BD4C02030008B5024B1B685B6B63
:10703000019308BD6002030008B5024B1B681B6D7D
:10704000019308BD6002030008B5024B1B685B6D2D
:10705000019308BD6002030008B5034B1B68D3F819
:107060009830019308BD00006002030008B5024B90
:107070001B681B68019308BD2002030008B5024B82
:107080001B685B68019308BD2002030008B5024B32
:107090001B685B69019308BD2002030008B5024B21
:1070A0001B68DB6A019308BD2002030008B5024B90
:1070B0001B68DB6C019308BD2002030008B5024B7E
:1070C0001B685B6D019308BD2002030008B5024BED
:1070D0001B689B6D019308BD2002030008B5024B9D
:1070E0001B68DB6D019308BD2002030008B5034B4C
:1070F0001B68D3F88830019308BD0000200203000C
:1071000008B5034B1B68D3F89430019308BD000009
:107110002002030008B5034B1B68D3F8AC30019381
:1071200008BD00002002030008B5034B1B68D3F81C
:10713000B030019308BD00002002030008B5024BE7
:107140001B681B68019308BD4402030008B5024B8D
:107150001B685B68019308BD4402030008B5024B3D
:107160001B689B68019308BD4402030008B5024BED
:107170001B68DB68019308BD4402030008B5024B9D
:107180001B685B69019308BD4402030008B5024B0C
:107190001B68DB69019308BD4402030008B5024B7C
:1071A0001B681B6A019308BD4402030008B5024B2B
:1071B0001B685B6A019308BD4402030008B5024BDB
:1071C0001B68DB6A019308BD4402030008B5024B4B
:1071D0001B681B6B019308BD4402030008B5024BFA
:1071E0001B685B6B019308BD4402030008B5024BAA
:1071F0001B689B6B019308BD4402030008B5024B5A
:107200001B68DB6B019308BD4402030008B5024B09
:107210001B685B6C019308BD4402030008B5024B78
:107220001B685B68019308BD4002030008B5024B70
:107230001B689B68019308BD4002030008B5024B20
:107240001B68DB68019308BD4002030008B5024BD0
:107250001B681B69019308BD4002030008B5024B7F
:107260001B685B69019308BD4002030008B5024B2F
:107270001B689B69019308BD4002030008B5024BDF
:107280001B68DB69019308BD4002030008B5024B8F
:107290001B681B6A019308BD4002030008B5024B3E
:1072A0001B681B6B019308BD4002030008B5024B2D
:1072B0001B685B6B019308BD4002030008B5024BDD
:1072C0001B681B6C019308BD4002030008B5024B0C
:1072D0001B685B6C019308BD4002030008B5024BBC
:1072E0001B681B68019308BD1C02030008B5024B14
:1072F0001B685B68019308BD1C02030008B5024BC4
:107300001B689B68019308BD1C02030008B5024B73
:107310001B681B69019308BD1C02030008B5024BE2
:107320001B68DB69019308BD1C02030008B5024B12
:107330001B68DB6A019308BD1C02030008B5024B01
:107340001B681B6B019308BD1C02030008B5024BB0
:107350001B68DB6B019308BD1C02030008B5024BE0
:107360001B681B6C019308BD1C02030008B5024B8F
:107370001B685B6C019308BD1C02030008B5024B3F
:107380001B689B6C019308BD1C02030008B5024BEF
:107390001B68DB6C019308BD1C02030008B5024B9F
:1073A0001B681B6D019308BD1C02030008B5024B4E
:1073B0001B685B6D019308BD1C0203008A4210B577
:1073C00007D0441A0298C01A4443501A94FBF0F0B4
:1073D000184410BD0021FFF759BE10B5836804465C
:1073E0000BB901F045FBC3689847A3681BB10322A2
:1073F00021462046984720461021BDE81040FCF762
:107400004EBE10B54368013B0446436063B9036850
:107410009B689847A368013BA3602BB9236820466B
:10742000DB68BDE81040184710BD10B50446006881
:1074300008B1FFF7E6FF204610BD13B50B46024624
:10744000D0E900016C4684E8030093E8030082E879
:10745000030094E8030083E8030002B010BD0000BD
:10746000024800230360FFF73FBC00BF50E6032043
:10747000002240681146FFF7E9BE0022406811462D
:10748000FFF704BF002240681146FFF70FBF4068B6
:107490000022FFF703BF4068002281F00101FFF7DF
:1074A000EDBE002340681A461946FFF7DFBE0023F1
:1074B00040681A461946FFF7D1BE002240681146BF
:1074C000FFF7B4BE406800220221FFF7B7BE0023D9
:1074D00040681A46FFF7A2BE084B10B52824224682
:1074E0001846002101F05CFF054B04804FF0FF328D
:1074F000426004225A60034A1A6010BD5CE6032011
:1075000054E60320849D0B0070470020704710B59F
:1075100010210446FCF7C3FD204610BD08B5FFF757
:10752000F6FF08BD30B500224FF69C7402608480DF
:107530008D888C800C68858004600A6030BD10B531
:1075400004460068FFF7D2FE204610BD38B5C46877
:10755000F4B12378022B03D104F10C00FFF7EFFF05
:10756000656835B12846FCF757FF10212846FCF71F
:1075700096FDA56835B12846FCF74EFF1021284638
:10758000FCF78DFD20461421BDE83840FCF787BD8F
:1075900038BD10B588B00446684600F05EFD694607
:1075A00004A800F07DFD04A8A047044604A800F04C
:1075B00009FD684600F006FD204608B010BD1FB565
:1075C0000023CDE90201019210241A4669461846AB
:1075D000ADF80230ADF80040FFF7B8FD04B010BDC3
:1075E0001FB50C23ADF8043003688DF80630037A1C
:1075F0008DF80730436802930021437AADF80D10EF
:1076000001A88DF80F108DF80C30FFF7FFFD05B0C5
:107610005DF804FB0B6803604B68436013B15A6864
:1076200001325A60704737B5044668460D46FFF789
:10763000F1FF009B019A23606260002301A801937F
:107640000093FFF7F2FE35B1281DFFF7EEFE08218B
:107650002846FCF724FD204603B030BD826810B5F3
:107660000AB901F005FABDE81040C368184708B52B
:10767000006800F11001FFF7F1FF08BD826810B546
:107680000AB901F0F5F9BDE81040C368184708B51C
:10769000006800F11001FFF7F1FF08BD38B50023C5
:1076A0000446036010200D46FCF7F5FC28B10123C9
:1076B000C0E90133024B0360C5602060204638BD3D
:1076C000C09D0B0038B5002383608B6804460D46CF
:1076D0002BB102229847EB68E360AB68A3602046B9
:1076E00038BD0000F0B589B004686846FFF71AFF9E
:1076F0004FF00203D4E84F2F002A03D1C4E8413FE2
:107700000029F7D125D104F10C0569462846FFF779
:1077100009FFBFF35B8F01236370002004F10803AE
:10772000BFF35B8F53E8006F43E80002002AF9D1F2
:10773000BFF35B8F6EB1FFF7B9FC78B129463046D5
:10774000FFF78CFF3046FCF767FE10213046FCF750
:10775000A6FC6846FFF7F3FE09B0F0BD314602A86B
:10776000FFF7B0FFE068B4F9105008B101F060FE17
:1077700006901020ADF81C50FCF78DFC0546E8B1D2
:10778000002787601820FCF786FC044688B1014674
:10779000876002A8FFF751FE049BA268A360059BC7
:1077A000049206A9E268E36004F110000592FFF775
:1077B000B9FE084BEB60084B2C60AB6006A8FFF7E6
:1077C000BEFE02A8FCF728FE002229460348FFF768
:1077D00075FCB7E76F760B00F1780B00DB730B00DD
:1077E0002DE9F04F8BB005469DF850A00F4690460E
:1077F0009946FFF7C3FC07AE834638BB4FF62E739E
:10780000059005A93046ADF81830FFF78BFE14201F
:10781000FCF741FC044648B1022303700123C0E990
:1078200001BB437031460C30FFF77CFE28462146F1
:1078300040F8044BFFF732FF3046FFF780FE05A803
:10784000FFF77DFE28460BB0BDE8F08F0C23002427
:107850001420CDE908440793FCF71DFC014618B13C
:10786000C0E901440470447004A80391FFF716FFB7
:107870001E4B08930820FCF70EFC044610B103A928
:10788000FFF7C8FE00965FFA8AF34A46414638463B
:107890000994FFF783FCB8B9039B5B7803F0FF0200
:1078A00093B94FF69C7305A903A80592ADF818305B
:1078B000FFF718FF05A8FFF742FE05A80999FFF793
:1078C000B2FE06A8FFF7B1FD03A905A8FFF7A2FEC7
:1078D000059B069A2B606A60002306A80693059311
:1078E000FFF7A3FD04A8FFF7A0FDABE76D790B0040
:1078F000012AF8B5054603D10B6803600020F8BDE6
:10790000022A10D0032AF9D10468002CF6D004F121
:107910001000FFF714FE2046FCF77EFD18212046DC
:10792000FCF7BDFBEAE718200E68FCF7B4FB044641
:1079300050B13146FFF7C6FE3069B6F9147008B190
:1079400001F076FD2061A7822C60D7E738B50023CF
:1079500083608B6804460D462BB102229847EB6882
:10796000E360AB68A360204638BD0000F0B589B085
:1079700004460D4601A81146FFF755FEA4B124B2F6
:107980001DB1284601F054FD054601A803A9039541
:10799000ADF81040FFF7A6FE03A8FFF7D0FD02A840
:1079A000FFF743FD09B0F0BD019D0123D5E84F2F3E
:1079B000002A03D1C5E8413F0029F7D1EFD12B734D
:1079C000BFF35B8F6B702B1DBFF35B8F53E8006FB2
:1079D00043E80042002AF9D1BFF35B8F002EDED0CE
:1079E0002046FFF763FB074660B105F10C01304606
:1079F000FFF744FE3046FCF70FFD10213046FCF740
:107A00004EFBCCE7314603A8FFF7A0FF2B7B8DF898
:107A10001C301020FCF73FFB0546D0B187601420D6
:107A2000FCF739FB044678B18760014603A8FFF7ED
:107A300004FD059BA268A360069B0592E268E360D3
:107A40009DF81C3006922374064BEB60064B2C60AD
:107A5000AB6003A8FCF7E0FC002229460348FFF7CF
:107A60002DFBC7E78F760B00717A0B00DB730B00E1
:107A7000012A70B5044603D10B680360002070BD75
:107A8000022A0CD0032AF9D10468002CF6D0204633
:107A9000FCF7C2FC14212046FCF701FBEEE71420A2
:107AA0000E68FCF7F8FA054620B13146FFF74EFFA5
:107AB000337C2B742560E1E7002240681146FFF714
:107AC000E5BB002240681146FFF7F0BB406800228A
:107AD000FFF7E4BB4068002281F00101FFF7CEBB55
:107AE000002340681A461946FFF7C0BB00234068D0
:107AF0001A461946FFF7B2BB002240681146FFF74D
:107B0000A5BB002240681146FFF790BB40680022E9
:107B10000221FFF793BB002340681A46FFF77EBBA4
:107B2000024B03225A60024A1A60704784E603201F
:107B3000DC9D0B007047F8B5064615460C468F18BD
:107B4000BC4206D0336814F8011B9B683046984746
:107B5000F6E72846F8BD007C0022FFF77DB9007CDF
:107B60000021FFF781B9007C0021FFF785B9007C77
:107B70000021FFF789B9007C0021FFF78DB910B50E
:107B800014210446FCF78BFA204610BD10B54FF4C3
:107B90007A73044608460021C4E90113034B2360AD
:107BA00020741146FFF788F9204610BD189E0B007F
:107BB0000023007C1A461946FFF736B97FB500222C
:107BC0001423CDE90122ADF804300B788DF808308C
:107BD0004B680393CB680493007C0B7A059301A94F
:107BE000FFF782F907B05DF804FB1FB5003B8DF885
:107BF00000104FF06401039118BF01236946019200
:107C00008DF80830FFF7DAFF05B05DF804FB0123BB
:107C1000FFF7EBBF007C0022FFF70EB9C9B2FFF7F8
:107C2000F9BF007C0022FFF70FB90121FFF7F9BF70
:107C300008B50021007CFFF747F9B0FA80F0400951
:107C400008BD08B50021007CFFF746F9B0FA80F0C6
:107C5000400908BD004700002DE9FF4100241D46F2
:107C60000F4690460646FFF7CFF8A5424FF00403B3
:107C7000ADF80D408DF80C308DF80F40A2BF9DF887
:107C800028308DF80E3003AC0749009443463A463D
:107C90003046A8BF8DF80D50FFF7AEF8B0FA80F06F
:107CA000400904B0BDE8F081557C0B00704710B569
:107CB00018210446FCF7F3F9204610BDF0B5037D0A
:107CC000062B8DB00E4600F104074FF0000412D0D1
:107CD00000F1080515F8011D0A22304600F043F9AD
:107CE000AF42044419D0002CF4D02E21304600F0CD
:107CF00037F90444EEE72F236A4639460A208DF807
:107D00000040FFF7F9F8684601F0AFFB3368024620
:107D1000DB68694630469847044620460DB0F0BD02
:107D200010B5054B0446112240F8043B002101F038
:107D300037FB204610BD00BF409E0B000346074A9C
:107D400010B543F8042B01F1100251F8044B43F82D
:107D5000044B9142F9D10A781A7010BD409E0B0075
:107D600010B59DF8084044EA032343EA024242EA80
:107D7000016104234160037510BD000007B5064B87
:107D80000360CB7800938B784A780978FFF7E8FF97
:107D900003B05DF804FB00BF409E0B00014B024A9C
:107DA0001A6070478CE603204C9E0B00002340684D
:107DB0001A46FFF733BA406800220221FFF73EBAA5
:107DC000002240681146FFF731BA00224068114690
:107DD000FFF73CBA002340681A461946FFF73EBA3F
:107DE000002340681A461946FFF740BA4068002150
:107DF000FFF764BA40680021FFF768BA40680022C4
:107E000081F00101FFF73ABA40680022FFF746BA55
:107E1000002240681146FFF749BA00224068114627
:107E2000FFF734BA2DE9F04395B014460D460746E6
:107E3000FFF776FF00211C220DA8009101F0B0FA97
:107E400040230C9320466B460CAA0021FFF764F8F0
:107E5000044600284BD1024601216868FFF7F6F975
:107E60000221804622466868FFF7F0F9009E8146AD
:107E70002146002E3BD0002939D17368022B03D054
:107E80000A2B11D0F669F4E7B8F1000FFAD0716946
:107E900006A8043107ADFFF771FF0FCD3C1D0FC4DD
:107EA0002B6823704146EDE7B9F1000FEAD0746901
:107EB000102201A801F074FA06238DF8143001ADE8
:107EC00004F108031834186859682A4603C20833B5
:107ED000A3421546F7D101A906A807ADFFF72EFF6B
:107EE0000FCD3C1D0FC42B6823704946CAE700988C
:107EF000FFF70AF8384615B0BDE8F083024B034A95
:107F00001A6000225A60704790E60320589E0B00CA
:107F1000F8B506460D468F180024BD420CD03368D4
:107F200015F8011B9B6830469847031E01DB1C4473
:107F3000F3E7002C08BF1C462046F8BD13B50446E5
:107F4000084659B1019101F090FA23680199DB6864
:107F50000246204602B0BDE81040184702B010BDEE
:107F600003689B68184730B58BB00023012A8DF851
:107F7000243098BF0A2209AC0D46B1FBF2F101FB97
:107F8000125303F0FF03092B94BF30333733DBB2B6
:107F9000AA4204F8013DEFD92146FFF7CFFF0BB00D
:107FA00030BD0000014B00229A60704798E6032024
:107FB00010B5044608462170FEF7B6FF0023636043
:107FC000204610BD10B504460068FFF78FF9204623
:107FD00010BD10B50446006808B1FFF787F900230B
:107FE000C4E90133236010BD38B504460D4600686E
:107FF0000131FFF783F910B1C4E90005012038BD54
:1080000010B50368044623B143688B4201D30120B5
:1080100010BD2046FFF7E8FF0028F9D0A368002B29
:10802000F5D122681370F2E737B50D46114601927B
:108030000446FFF7E5FF019A28B92046FFF7C9FF7C
:10804000204603B030BDA2602946206801F080F9C7
:108050002268A3680021D154F2E7002313B5C0E9D8
:10806000003304468360037341B10846019101F077
:10807000FCF9019902462046FFF7D6FF204602B0E0
:1080800010BD884210B5044605D00B682BB18A6834
:108090001946FFF7C9FF204610BDFFF79AFFFAE720
:1080A00010B500230446C0E9003383600373FFF773
:1080B000E8FF204610BD70B505460E4609B9002000
:1080C00070BD6AB1846814442146FFF799FF002807
:1080D000F5D02868AB683146184401F0A1F9AC60CE
:1080E0000120EDE713B5044629B92046FFF771FFDB
:1080F000204602B010BD0846019101F0B6F9019981
:1081000002462046FFF7D7FF0028EED0F0E708B57B
:1081100082683AB921B10878B0FA80F0400900E0ED
:10812000012008BD006809B90078F5E701F06EF993
:10813000F2E738B50C460546FCF7E0F954B1208863
:10814000FFF7CCF8286028B122882146BDE83840E6
:1081500001F0FEB838BD38B5B1F904308380D1F8EC
:108160000630C0F806304B8943810C460546FCF7C3
:10817000C5F9236813B12B600023236038BD07B510
:108180000B4600210246009101208C21FEF7CCFF16
:1081900003B05DF804FB01460020FFF7F0BF0020AC
:1081A000FFF7F9BFF0B52B4D0B7D04468BB00846A9
:1081B000AF1D002B36D00B681B79002B32D0264B1D
:1081C0000493002202A90430CDE90222FEF7A2FFA7
:1081D000DDF80E30C5F8063000B2BDF81230ADF84B
:1081E0000C00A8800299BB802846FFF7A2FF02A8D6
:1081F000FCF784F900232360A380A37123814FF649
:10820000FF736381B5F90430A380D5F80630C4F854
:108210000630BB88296863812046FFF78AFF204625
:108220000BB0F0BD00262023CDE902360B4B0093A6
:1082300002AA33460A493220FEF7FEFE064B0548E5
:1082400002964FF6F26202A9CDE90323FFF783FFFE
:10825000CDE700BFA8E603200000FFFF939E0B00C0
:108260008C9E0B00054B02221A60054B054A9A6052
:108270000020C3E90000FEF701BF00BFB4E6032001
:10828000A8E603200000FFFF2DE9F041154ADFF8C2
:108290006080D2E90063801943EB0101124BD3E9FE
:1082A0000067D8E90023861941EB0707BB4208BFE6
:1082B000B2428CB013D003A96846CDE90067FFF73E
:1082C00065F8089B094D03F26C7303AC08930FCC5F
:1082D0000FC50FCC0FC5C8E9006723682B600CB031
:1082E000BDE8F081F0E60320E8E60320C0E60320C5
:1082F000F8E6032008B50020FEF768FF28B1FEF776
:108300003DFF80F00100C0B208BD0120FCE71FB5B1
:1083100002460B4668460021CDE90023CDE9021153
:10832000FEF73AFD024610B90146FEF7D7FE05B04A
:108330005DF804FB30B593B0CDE90023194B04463A
:10834000D3E90010019B521843EB00031648D0E913
:108350000010521843EB0003CDE9002324220DEB5B
:108360000200002101F01CF8002509A96846FFF76A
:108370000DF81622294603A8029501F011F802A96A
:1083800009A800F097FF02A801F06FF812AB18449B
:1083900002A900F8415C2046FFF75FFE204613B0BB
:1083A00030BD00BFF0E60320E8E603202DE9F047EA
:1083B000A4B00746884614A811463F221C4601F087
:1083C0005CF8002314A88DF88F3001F04EF80546B4
:1083D0004CBB294903A801F023F814AC002605F191
:1083E000FF39B14534D92378252B06F1010A17D17D
:1083F00063787A2B14D103A801F037F814AB054643
:1084000030181844A9EB0602A11C00F0A1FF2A466F
:1084100003A9204600F09CFF14A801F026F80546A9
:1084200001345646DBE73C2394FBF3F2002AB8BF45
:108430005242B2FBF3F103FB112200924FF461634D
:108440000E4A94FBF3F3102103A8FEF767FFC4E77D
:1084500000212E2208A8079100F0A2FF434614AA8B
:10846000322107A8FEF78AFF07A93846FFF7F5FD76
:10847000384624B0BDE8F087BA9E0B00BC9E0B00C6
:10848000F0B58DB0CDE90023129D044615B9194B06
:108490001D682DB1184B2846196800F0B7FF38B990
:1084A000DDE900232046FFF745FF20460DB0F0BD73
:1084B000124E0099124FD6E900325B18019942EB37
:1084C0000102D7E900011B1842EB0102CDE900329D
:1084D0000021242203A800F063FF03A96846FEF7E9
:1084E00055FF32683B6803A9134420462A46FFF72C
:1084F0005DFFDAE7BCE60320F8E30320F0E60320A3
:10850000E8E6032010B50020FEF72EFC0446A0B9D3
:10851000FEF7ACFD012810D12046FEF7D7FD60B96B
:10852000FFF7E8FE10B9FEF719FEF9E7FFF7E2FEE4
:10853000BDE810400020FEF717BC204610BD1FB557
:10854000FFF7E0FF10220021684600F029FF00211C
:108550006846FEF719FC009805B05DF804FB0000C2
:1085600008B5FFF7ECFFC117FFF78EFE014B9868C7
:1085700008BD00BFC0E6032008B5FFF7E0FFC11744
:10858000FFF782FE014B586908BD00BFC0E603201B
:10859000024B1A68024B1A60704700BFF8E30320D1
:1085A000BCE6032070474174704708B5007CFEF7B5
:1085B000FBFC20EAE07008BD08B5007CFEF7CCFCAF
:1085C00020EAE07008BD08B5007CFEF7D5FC40EA63
:1085D000E07008BD08B5007CFEF7C6FC40EAE0701C
:1085E00008BD007CFEF7D0BC37B5457C04462DB1F4
:1085F000207C03B0BDE83040FEF7A6BC007C0191B2
:10860000FEF7D2FC00280199F2DC284603B030BD09
:1086100010B514210446FBF742FD204610BD0000B2
:1086200010B54FF47A730446084611460022C4E997
:108630000123044B2360012320746374FEF7BCFC08
:10864000204610BDEC9E0B00417470477047704788
:1086500008B50021007CFEF7CFFC40EAE07008BDC1
:1086600008B50121007CFEF7C7FC40EAE07008BDB8
:1086700008B5007CFEF7B8FC20EAE07008BD08B53C
:10868000007CFEF7A9FC20EAE07008BD13B50446A3
:10869000007C0191FEF7A8FC0028019901DC607CB8
:1086A00020B1207CFEF7B0FC20EAE07002B010BDE3
:1086B000007CFEF7B1BC10B514210446FBF7EFFCBB
:1086C000204610BD10B54FF47A73044608460021C9
:1086D000C4E90113044B2360012320746374114621
:1086E000FEF772FC204610BD1C9F0B0010B5142233
:1086F0000446002100F054FE204610BD10B50F4C7A
:1087000088B003A8FFF7F2FF2178BFF35B8F11F069
:1087100001010FD120460191FBF7D0FC019948B12E
:1087200003AA0748FFF7CEFF2046FBF7CCFC05481D
:1087300000F0E6FD024808B010BD00BF00E70320CE
:1087400004E703204D860B00014B1860704700BF03
:10875000FCE3032008B50B4B43B1FFF7CFFF0368E1
:108760001B699847002801DDAFF30080064B43B139
:1087700000F056F903681B699847002801DDAFF344
:10878000008008BD000000000000000008B5FFF7F1
:10879000E1FFFEF7E1FA014B186008BD2CE703206A
:1087A0000548064A064908B5121A00F0D1FD054BE6
:1087B000054A1A6008BD00BF00F4032004FC032032
:1087C000C4A10B0000FC03201E1C279A07B5002340
:1087D00000931A466FF07701FEF792FC03B05DF844
:1087E00004FB000007B543880A2B08D0502B0BD19F
:1087F000094B1B684BB103B05DF804EB1847FFF75A
:10880000E5FF03B05DF804FB002300931A466FF008
:108810007701FEF775FCF4E71CE7032010B512485A
:108820000021FEF7A3FD114B1A68114B9A42114B20
:108830000CBF012200221A7001D0FFF7B1FFFEF732
:1088400073FA044600F0B4FD0B4B13B12046AFF3AE
:10885000008000210848FEF7D1FCBDE81040074821
:108860000021FEF743BC00BF49870B0000FC03203A
:108870001E1C279A18E7032000000000E5870B0064
:10888000232813B502D9002002B010BDA0F10B03BC
:10889000022B1AD8174C2178BFF35B8F11F001011E
:1088A0000BD120460191FBF709FC019928B1124830
:1088B000FFF77EFB2046FBF706FC0F4B1878FEF710
:1088C0003BFB0028DFD10120DEE7012809D800F0BA
:1088D00067F80021007CFEF7E7FA80F00100C0B2E3
:1088E000D2E709380128EED800F09AF8007CFEF7AC
:1088F00053FBF2E720E7032024E70320232838B5C1
:1089000004460D460AD8FF2908D0FFF7B9FF28B161
:1089100029462046BDE83840FEF756BA38BD10B5A6
:108920000446FEF759FA031FDBB2012B08D9204693
:10893000FFF7A6FF20B12046BDE81040FEF754BA6D
:10894000002010BD0D2810B504469CBF0E34A4B203
:108950002046FFF795FF50B103212046FEF72CFA81
:10896000032804D12046BDE81040FEF755BA002088
:1089700010BD704738B52025142304460360856078
:1089800005610649284600F071F8044960602846F0
:1089900000F06CF8E060204638BD00BF449F0B003B
:1089A00030B50E4D2978BFF35B8F11F0010487B00D
:1089B00011D12846FBF782FB68B101A8FFF7DAFF67
:1089C00001AA21460648FFF7E1F82846FBF77BFBA2
:1089D000044800F095FC024807B030BD30E70320A2
:1089E00034E7032073890B007047000038B5044654
:1089F00014252A46002100F0D3FC25804025074994
:108A000025812846258200F031F804496060284617
:108A100000F02CF8E060204638BD00BF449F0B00FA
:108A200030B50E4D2978BFF35B8F11F0010487B08C
:108A300011D12846FBF742FB68B101A8FFF7D6FF2A
:108A400001AA21460648FFF7EBFD2846FBF73BFB52
:108A5000044800F055FC024807B030BD48E7032049
:108A60004CE70320E9890B00FBF715BBFBF715BBAF
:108A700008B5FEF75BFC000081F0004102E000BF9A
:108A800083F0004330B54FEA41044FEA430594EACE
:108A9000050F08BF90EA020F1FBF54EA000C55EA09
:108AA000020C7FEA645C7FEA655C00F0E2804FEADA
:108AB0005454D4EB5555B8BF6D420CDD2C4480EABC
:108AC000020281EA030382EA000083EA010180EAEC
:108AD000020281EA0303362D88BF30BD11F0004F3A
:108AE0004FEA01314FF4801C4CEA113102D0404270
:108AF00061EB410113F0004F4FEA03334CEA1333AB
:108B000002D0524263EB430394EA050F00F0A780C2
:108B1000A4F10104D5F1200E0DDB02FA0EFC22FABD
:108B200005F2801841F1000103FA0EF2801843FAB1
:108B300005F359410EE0A5F120050EF1200E012AA2
:108B400003FA0EFC28BF4CF0020C43FA05F3C018E0
:108B500051EBE37101F0004507D54FF0000EDCF159
:108B6000000C7EEB00006EEB0101B1F5801F1BD302
:108B7000B1F5001F0CD349085FEA30004FEA3C0C06
:108B800004F101044FEA445212F5800F80F09A80FC
:108B9000BCF1004F08BF5FEA500C50F1000041EB00
:108BA000045141EA050130BD5FEA4C0C404141EB04
:108BB0000101013C28BFB1F5801FE9D291F0000FFF
:108BC00004BF01460020B1FA81F308BF2033A3F1AE
:108BD0000B03B3F120020CDA0C3208DD02F1140CA5
:108BE000C2F10C0201FA0CF021FA02F10CE002F1E0
:108BF0001402D8BFC2F1200C01FA02F120FA0CFCD9
:108C0000DCBF41EA0C019040E41AA2BF01EB045121
:108C1000294330BD6FEA04041F3C1CDA0C340EDC1F
:108C200004F11404C4F1200220FA04F001FA02F362
:108C300040EA030021FA04F345EA030130BDC4F120
:108C40000C04C4F1200220FA02F001FA04F340EA15
:108C50000300294630BD21FA04F0294630BD94F0C6
:108C6000000F83F4801306BF81F480110134013DAD
:108C70004EE77FEA645C18BF7FEA655C29D094EA1E
:108C8000050F08BF90EA020F05D054EA000C04BF9C
:108C90001946104630BD91EA030F1EBF0021002087
:108CA00030BD5FEA545C05D14000494128BF41F026
:108CB000004130BD14F580043CBF01F5801130BD8A
:108CC00001F0004545F0FE4141F470014FF0000015
:108CD00030BD7FEA645C1ABF194610467FEA655CC6
:108CE0001CBF0B46024650EA013406BF52EA033568
:108CF00091EA030F41F4002130BD00BF90F0000F56
:108D000004BF0021704730B54FF4806404F1320491
:108D10004FF000054FF0000150E700BF90F0000F4A
:108D200004BF0021704730B54FF4806404F1320471
:108D300010F0004548BF40424FF000013EE700BF41
:108D400042004FEAE2014FEA31014FEA02701FBFD1
:108D500012F07F4393F07F4F81F06051704732F003
:108D60007F4208BF704793F07F4F04BF41F400215A
:108D7000704730B54FF4607401F0004521F00041B8
:108D80001CE700BF50EA010208BF704730B54FF042
:108D900000050AE050EA010208BF704730B511F043
:108DA000004502D5404261EB41014FF4806404F17B
:108DB00032045FEA915C3FF4D8AE4FF003025FEA01
:108DC000DC0C18BF03325FEADC0C18BF033202EB85
:108DD000DC02C2F1200300FA03FC20FA02F001FADF
:108DE00003FE40EA0E0021FA02F11444BDE600BF82
:108DF00070B54FF0FF0C4CF4E06C1CEA11541DBF31
:108E00001CEA135594EA0C0F95EA0C0F00F0DEF8FB
:108E10002C4481EA030621EA4C5123EA4C5350EAE0
:108E2000013518BF52EA033541F4801143F4801331
:108E300038D0A0FB02CE4FF00005E1FB02E506F0C2
:108E40000042E0FB03E54FF00006E1FB03569CF017
:108E5000000F18BF4EF0010EA4F1FF04B6F5007F1D
:108E600064F5407404D25FEA4E0E6D4146EB06068F
:108E700042EAC62141EA55514FEAC52040EA5E5018
:108E80004FEACE2EB4F1FD0C88BFBCF5E06F1ED8C2
:108E9000BEF1004F08BF5FEA500E50F1000041EBF9
:108EA000045170BD06F0004646EA010140EA0200A6
:108EB00081EA0301B4EB5C04C2BFD4EB0C0541EAC8
:108EC000045170BD41F480114FF0000E013C00F3DD
:108ED000AB8014F1360FDEBF002001F0004170BD01
:108EE000C4F10004203C35DA0C341BDC04F114041A
:108EF000C4F1200500FA05F320FA04F001FA05F2A6
:108F000040EA020001F0004221F0004110EBD37072
:108F100021FA04F642EB06015EEA430E08BF20EA9E
:108F2000D37070BDC4F10C04C4F1200500FA04F341
:108F300020FA05F001FA04F240EA020001F00041D3
:108F400010EBD37041F100015EEA430E08BF20EA46
:108F5000D37070BDC4F1200500FA05F24EEA020E8E
:108F600020FA04F301FA05F243EA020321FA04F0BD
:108F700001F0004121FA04F220EA020000EBD37074
:108F80005EEA430E08BF20EAD37070BD94F0000F74
:108F90000FD101F00046400041EB010111F4801FA8
:108FA00008BF013CF7D041EA060195F0000F18BF59
:108FB000704703F00046520043EB030313F4801F95
:108FC00008BF013DF7D043EA0603704794EA0C0F4F
:108FD0000CEA135518BF95EA0C0F0CD050EA410665
:108FE00018BF52EA4306D1D181EA030101F00041E2
:108FF0004FF0000070BD50EA410606BF104619460A
:1090000052EA430619D094EA0C0F02D150EA013615
:1090100013D195EA0C0F05D152EA03361CBF104656
:1090200019460AD181EA030101F0004141F0FE41F5
:1090300041F470014FF0000070BD41F0FE4141F479
:10904000780170BD70B54FF0FF0C4CF4E06C1CEA79
:1090500011541DBF1CEA135594EA0C0F95EA0C0F2E
:1090600000F0A7F8A4EB050481EA030E52EA0335E9
:109070004FEA013100F088804FEA03334FF080550A
:1090800045EA131343EA12634FEA022245EA111537
:1090900045EA10654FEA00260EF000419D4208BFE8
:1090A000964244F1FD0404F5407402D25B084FEA95
:1090B0003202B61A65EB03055B084FEA32024FF441
:1090C00080104FF4002CB6EB020E75EB030E22BF9E
:1090D000B61A754640EA0C005B084FEA3202B6EB5E
:1090E000020E75EB030E22BFB61A754640EA5C000D
:1090F0005B084FEA3202B6EB020E75EB030E22BF9D
:10910000B61A754640EA9C005B084FEA3202B6EB9D
:10911000020E75EB030E22BFB61A754640EADC005C
:1091200055EA060E18D04FEA051545EA16754FEABE
:1091300006164FEAC30343EA52734FEAC2025FEADC
:109140001C1CC0D111F4801F0BD141EA00014FF06B
:1091500000004FF0004CB6E711F4801F04BF01433C
:109160000020B4F1FD0C88BFBCF5E06F3FF6AFAE58
:10917000B5EB030C04BFB6EB020C5FEA500C50F1E8
:10918000000041EB045170BD0EF0004E4EEA11316B
:1091900014EB5C04C2BFD4EB0C0541EA045170BD72
:1091A00041F480114FF0000E013C90E645EA060EB6
:1091B0008DE60CEA135594EA0C0F08BF95EA0C0FE4
:1091C0003FF43BAF94EA0C0F0AD150EA01347FF42C
:1091D00034AF95EA0C0F7FF425AF104619462CE703
:1091E00095EA0C0F06D152EA03353FF4FDAE104666
:1091F000194622E750EA410618BF52EA43067FF4B7
:10920000C5AE50EA41047FF40DAF52EA43057FF446
:10921000EBAE12E74FEA4102B2F1E04324BFB3F5EF
:10922000001CDCF1FE5C0DD901F0004C4FEAC002DD
:109230004CEA5070B2F1004F40EB830008BF20F0C1
:109240000100704711F0804F21D113F13872BCBF7B
:1092500001F00040704741F480114FEA5252C2F1D0
:109260001802C2F1200C10FA0CF320FA02F018BF19
:1092700040F001004FEAC1234FEAD32303FA0CFC6C
:1092800040EA0C0023FA02F34FEA4303CCE77FEAFB
:10929000625307D150EA01331EBF4FF0FE4040F445
:1092A0004000704701F0004040F0FE4040F40000F4
:1092B000704700BF10B50C4641690369826986B0EA
:1092C00001F26C7104910168039141680291816817
:1092D0000191C1680091074903EB43030B44064920
:1092E00002EB42020A4420460449FEF70FF82046EA
:1092F00006B010BD7A9F0B00659F0B00459F0B00C9
:10930000002301461A46184600F056B90A220021E9
:1093100000F048B938B50B4B1D68EB6B044653B9E8
:109320002420FDF7DBFF0246E86320B9064B07481F
:109330003921FEF713F8E96B2046BDE83840FEF707
:109340002DB800BFFCE303209E9F0B00B59F0B00D0
:109350000A44914200F1FF3300D1704710B511F873
:10936000014B03F8014F9142F9D110BD884210B56D
:1093700001EB020402D98442234607D8431EA142CE
:1093800008D011F8012B03F8012FF8E70244014639
:109390008A4200D110BD13F8014D02F8014DF7E7E4
:1093A00002440346934200D1704703F8011BF9E7DA
:1093B00038B5104B1D68AB6B0446B3B91820FDF7E8
:1093C0008DFF0246A86320B90B4B0C484221FDF7E4
:1093D000C5FF0B490B4BC0E900130B4B83600B23FC
:1093E000838100210120C2E90401AB6B00221C61D2
:1093F0005A6138BDFCE303209E9F0B000EA00B00BA
:109400000E33CDAB34126DE6ECDE050010F8012B07
:1094100011F8013B012A28BF9A42F7D0D01A7047B1
:10942000034611F8012B03F8012B002AF9D17047EC
:10943000024B0146186800F003B800BFFCE30320AC
:1094400037B5044608460D4600F00FF8421C114699
:1094500020460192FDF772FF044618B1019A294691
:10946000FFF776FF204603B030BD034613F8012B0B
:10947000002AFBD1181A0138704710B5013903468C
:1094800032B111F8014F03F8014B013A002CF7D12A
:109490001A440021934200D110BD03F8011BF9E7E3
:1094A000012B2DE9F04701D0242B06D9FDF74EFF03
:1094B000162303600020BDE8F087DFF8E4C00D4606
:1094C0002E4615F8014B14F80C7017F00807F7D169
:1094D0002D2C32D12C780127B51C002B5BD0102B02
:1094E00009D1302C07D12C7804F0DF04582C4DD151
:1094F0006C781023023507F1004808F1FF384FF06F
:10950000000CB8FBF3F9664603FB198AA4F1300E90
:10951000BEF1090F16D87446A34224DDBCF1000F3A
:109520001EDBB1451CD301D1A24519DB06FB034666
:109530004FF0010C15F8014BE8E72B2C04BF2C78F9
:10954000B51CCAE7A4F1410EBEF1190F01D8373C92
:10955000E2E7A4F1610EBEF1190F04D8573CDBE736
:109560004FF0FF3CE6E7BCF1000F05DA2223036071
:10957000464642B930469EE707B17642002AF9D006
:10958000BCF1000F00D0691E1160F3E73024002BFE
:10959000B1D10823AFE7302CA5D00A23ABE700BF39
:1095A00068A00B0013460A46014602480068FFF710
:1095B00077BF00BFFCE303202DE9F843DFF8B88054
:1095C0000646D8F800001F460D46914600F056F8B2
:1095D000254B1C6834B9254C1C60254B13B11B6806
:1095E000C4F8883063681F2B07DDD8F8000000F04E
:1095F00047F84FF0FF30BDE8F8834EB3D4F8880049
:1096000088B91C4B23B9D8F8000000F038F8F0E70F
:109610004FF48470FDF762FE0028F4D00023C0E907
:109620004033C4F88800636840F8239001229A40D0
:1096300000EB8301D0F800311343C0F80031022E53
:10964000C1F8807002BFD0F804311343C0F8043170
:109650006368D8F800005A1C0233626044F8235053
:1096600000F00EF80020C6E7ECE7032060E70320D7
:1096700000000000DD720B0060E4032070477047BB
:109680007047000021400B005D400B0085400B003F
:1096900089400B000000000043616C6C206F6E205D
:1096A00070757265207669727475616C00556E6BA9
:1096B0006E6F776E004E6F74204368617267696EDB
:1096C0006700436861726765640044697363686139
:1096D0007267696E67004661756C74004469636FF8
:1096E0006E6E656374656400312E323100417373B0
:1096F000657274696F6E4661696C757265202A7057
:109700005F70696E203C20283332202B20313629AF
:10971000004B65657020416C697665207365742027
:10972000746F20256920736563004B656570204167
:109730006C6976650053657420566572626F736557
:10974000204D6F6465003000436C65617265642074
:10975000566572626F7365204D6F6465004E6F20B1
:109760004461746100526573706F6E736520526559
:1097700063656976656400556E6B6E6F776E2072F7
:109780006573706F6E736520726563657669656475
:1097900020256900556269646F747320486F6F6B90
:1097A000002A0053657420746F2033726420506166
:1097B0007274792053696D0053657420746F205062
:1097C00061727469636C652053696D004C6F6164EC
:1097D000696E672053797374656D204465666175A1
:1097E0006C7473007B2274656D7065726174757240
:1097F00065223A25342E31662C20202268756D6949
:1098000064697479223A25342E31662C2020225343
:109810006F696C6D6F697374757265223A25692C76
:10982000202022536F696C6D6F6973747572653295
:10983000223A25692C2020226C7578223A25342E74
:1098400031662C2020227768697465223A25342EEF
:1098500031662C202022616C73223A25342E316629
:109860002C2262617474657279223A25697D0065E3
:109870006E7669726F6E6D656E74616C2D686F6F58
:109880006B0046726F6D20257320746F2025730066
:109890005374617465205472616E736974696F6E7C
:1098A000004C6F7720506F776572204D6F646500B4
:1098B00054727565004E6F726D616C204F706572E9
:1098C0006174696F6E730046616C736500417373F8
:1098D000657274696F6E4661696C7572652073722A
:1098E00063202626207372632D3E63616C6C626177
:1098F000636B0025342E31662A430025342E3166F1
:109900002525004C7578203A2025342E31660057E5
:1099100068697465203A2025342E316600414C5325
:10992000203A2025342E3166002569202500457215
:10993000726F722074616B696E67204D656173751B
:1099400072656D656E747300537461746500737035
:1099500061726B2F6465766963652F7365737369D4
:109960006F6E2F656E64004572726F722053746162
:109970007465202D205265736574002F686F6F6BBE
:109980002D726573706F6E73652F656E7669726F79
:109990006E6D656E74616C2D686F6F6B2F00526514
:1099A0006C656173650074656D7065726174757264
:1099B000650068756D6964697479004C7578005745
:1099C000686974650052617720414C5300426174AC
:1099D000746572790042617474657279436F6E7454
:1099E000657874004B65657020416C69766520531D
:1099F0006563006C6F77506F7765724D6F646500BB
:109A00004D6561737572652D4E6F77005665726294
:109A10006F73652D4D6F646500536574204C6F77CF
:109A200020506F776572004572726F72202D20533F
:109A30004854333120496E697469616C697A617484
:109A4000696F6E004572726F72202D2056454D4C25
:109A500020496E697469616C697A6174696F6E001E
:109A60005374617274757000000000000000000003
:109A70002D440B0081440B0079410B0000000000D5
:109A80000000000051410B0065410B002D660B00EA
:109A900071680B0031680B000F680B00B7690B0091
:109AA00057680B00000000000000000029410B0077
:109AB0003D410B00A95A0B003F5B0B00C15B0B0043
:109AC000AD960B00B5960B00B9960B00C2960B0035
:109AD000CA960B00D6960B00DC960B00537461728D
