:02000002B0004C
:1040000000400B005CCE0B00000006000D00050216
:084010000401A30F00000000F1
:044018004CBC0B0091
:1040200009480A49884208B505D0094A824202D0A7
:10403000121A07F0ADFB0748074A0021121A07F0D1
:10404000CFFB014808BD00BFDCE2032028CD0B00F8
:10405000E8E30320E8E30320F0E7032070B5074E10
:10406000074C06F0D3FCA41BA4080025AC4200D1E9
:1040700070BD56F8043B98470135F7E7C4CC0B00F8
:10408000FCCC0B0001F00AB808B501F039FBBDE823
:10409000084006F073BC04F089BE04F087BE04F04B
:1040A0008DBE0078B0FA80F040097047012303709C
:1040B0007047106870470000014B01221A7070476A
:1040C00000E60320014B1A60704700BFE0E20320C6
:1040D000014B01221A707047C1E50320436913B1F7
:1040E00083690C301847704730B585B0044608988E
:1040F00060B1406850B1856845B1CDE90241CDE974
:104100000023C46801AB6A4602A9A04705B030BDD0
:1041100010B503682F2B044604D9074A07490A2023
:1041200004F0DAFC23681F2B83BF03F01F0304484D
:1041300023604FF0A04010BD39870B00DEBC0B00A0
:104140000003005008B5044906F026F818B1034BE7
:1041500006221A70012008BDD7BC0B0074E50320AD
:1041600010B5034B0360044602F0BEF8204610BDB4
:10417000E0C20B0010B50446FFF7F2FF2046102105
:10418000FFF78DFF204610BD13B5002104460846F9
:1041900004F04AFA0023204601A9019304F05CFAD6
:1041A000019C0CB1012323710021012004F03CFA91
:1041B0002CB1236820469B6898470023237102B0E6
:1041C00010BD30B585B0006813680193D1E9004592
:1041D0008368CDE902450BB906F084FDC36801AAE6
:1041E00002A9984705B030BD012A02D10160002024
:1041F0007047022A04BF0B680360F8E7036812687F
:10420000D1E900011847012A02D10160002070475E
:10421000022A04BF0B680360F8E703681268D1E95B
:1042200000011847012A02D1016000207047022ACC
:1042300004BF0B680360F8E70368184710B403680D
:10424000DC683023A4465DF8044B604737B504684A
:104250009DF818508DF800308DF8045024683C23E8
:10426000A04703B030BD000070B5012A92B00AD05B
:10427000531C24D012B9214B01221A70204B012269
:104280001A7012B070BD1D4B1E4D002414261C70F8
:104290002E6306F000FA1C4A00903346402102A823
:1042A00004F0ACFD03F0AEF9184B8DF800401B781C
:1042B000174902AAFFF7CAFF85F83C40DEE70F4B1B
:1042C000104C002516261D70266306F0E4F90E4AF0
:1042D00000903346402102A804F090FD03F092F9CB
:1042E0000A4B8DF800501B78094902AAFFF7AEFF70
:1042F00094F83C30013384F83C30BFE795E4032068
:1043000024E5032028E5032002BD0B004DE4032033
:1043100024BD0B0010B5C4B000680A2203A907F041
:1043200061FBB0F5966F1BD80E4C606004F08EFCFC
:1043300088B163680C4A4FF4807104A804F05EFDF4
:1043400003F060F900238DF80030084B08491B7812
:1043500004AAFFF77BFF074B0120187044B010BD83
:104360000020FBE780E5032037BD0B004DE4032070
:1043700050BD0B00B0E5032037B51749054605F0E1
:104380000BFF044690B1154B01245C7203F03AF91F
:1043900000238DF80030124B124A1B781249FFF7A8
:1043A00055FF124B20461C7003B030BD1049284603
:1043B00005F0F2FE0028F7D0084B5C7203F022F9FA
:1043C000074B8DF800401B780A4A0749FFF73EFF6C
:1043D000064B01201870E7E7D7BC0B0080E50320EF
:1043E0004DE403205BBD0B007CBD0B00B0E503205A
:1043F000DCBC0B006CBD0B0013B503F003F9084BDC
:104400001978084B1A7803688DF804108DF800208D
:104410001C68054A05493C23A04702B010BD00BFF7
:104420004CE403204DE40320C0CA0B0081BD0B0007
:1044300007B580680B4630B10021CDE900210A465E
:10444000032104F011F903B05DF804FB08B5002066
:1044500004F024FC28B104F0F9FB80F00100C0B2A4
:1044600008BD0120FCE70023042204F0CFBB10B5F7
:104470008368044613B1032201469847204610BDC5
:1044800010B5044638B1FFF7F2FF20461021BDE811
:104490001040FFF704BE10BD37B5134B0360044650
:1044A0008068C8B100256FF00043CDE900350221D6
:1044B0002B462A4604F0D8F8A068294604F014F9DF
:1044C000237903F0FF0513B104F096F8F8E7A0682C
:1044D000294604F0B9F8A56004F10C00FFF7C7FF06
:1044E000204603B030BD00BFCCC20B0010B504465F
:1044F000FFF7D2FF20461C21FFF7D1FD204610BD5B
:10450000002340681A46194604F010BC07B5012381
:104510000822CDE900234FF47A71002341436A4613
:10452000184604F0CBFB03B05DF804FB37B51E4919
:10453000054605F031FE044608B31C4C01236068B3
:104540006370FFF7E3FF636819484FF47A716FF007
:1045500000425943FFF76CFF04F078FB50B103F0C1
:1045600051F800238DF80030124B134A1B78134981
:10457000FFF76CFE124B0120187003B030BD1149DB
:10458000284605F009FE0028F7D0084B5C7004F0BF
:104590005DFB0028EED003F035F8064B8DF80040A7
:1045A0001B78094AE3E700BFD7BC0B0080E5032076
:1045B000C0E403204DE4032083BD0B007CBD0B0051
:1045C000B0E50320DCBC0B0098BD0B000EB400B5B9
:1045D0008CB00DAA4FF0200C52F8041B0392CDE9C9
:1045E00000120023016804AA1E20CDE904C304F0D0
:1045F00083FA0CB05DF804EB03B07047F7B5324DA9
:10460000324C2B78BFF35B8F060171B3D80709D406
:104610002846FFF746FD28B104F0BEF82060284682
:10462000FFF744FD23689B5D5F012B78BFF35B8F31
:10463000D90709D42448FFF734FD28B104F0ACF8B9
:1046400020602148FFF732FD2068064401A87378F6
:1046500003F01F033B430193FFF75AFD019A012327
:104660009340C0F8083503B0F0BDDA0709D42846F6
:10467000FFF717FD28B104F08FF820602846FFF7F8
:1046800015FD23689B5D5F012B78BFF35B8FDB0714
:1046900009D40D48FFF705FD28B104F07DF820602E
:1046A0000948FFF703FD2068064401A8737803F06A
:1046B0001F033B430193FFF72BFD019A0123934016
:1046C000C0F80C35CFE700BFE8E30320ECE303209C
:1046D0000C4B5A6A998DFF2A84BF00225A620A4AFB
:1046E0001268914284BF00219985084B998E8A42B5
:1046F00004D200229A86064B01221A70054B012231
:104700001A70704780E50320DCE2032028E50320CF
:1047100024E50320B0E5032008B501210520FFF7BB
:104720006DFF00210520FFF769FF024B00221A7080
:1047300008BD00BF00E6032030B51D4CCFB0236A92
:10474000E0690C9306F036FCCDE90A01A06906F099
:1047500031FCCDE90801606906F02CFCE36A0593A1
:10476000CDE90601A36A2069049306F023FCCDE994
:104770000201E06806F01EFC0E4ACDE900014FF48C
:1047800080710EA804F03AFB02F03CFF0A4B0B4983
:104790001A780B4B1B78002513438DF800500EAA96
:1047A000FFF754FD074B256301221A704FB030BD4F
:1047B00028E50320ACBD0B004EE4032037BE0B0000
:1047C0004DE4032094E4032030B5114D114C124BFD
:1047D0002A7821788DB003EB0212009203EB0113CB
:1047E0000E4A282102A804F009FB2B78237004F05C
:1047F0002DFA50B102F006FF00238DF80030084B6F
:1048000008491B7802AAFFF721FD0DB030BD00BF9B
:1048100074E5032000E50320E8E203204ABE0B0014
:104820004DE4032058BE0B0030B5194D0FCD97B0A5
:104830000CAC0FC40FCD0FC495E8030084E803004F
:10484000144904A804F08CFB04A804F0CCFB044633
:1048500004A804F001FC04A810EE105A04F02CFC8B
:1048600016AB10EE100A03EB840406F0A3FBCDE9AF
:104870000201284606F09EFBCDE90001064A54F8E5
:10488000283C0648402104F0B9FA17B030BD00BFFB
:10489000F4C20B0034E6032069BE0B0000E40320E1
:1048A00008B504F0D3F980F00100C0B208BD0000E3
:1048B00030B585B0002401A8CDE90144ADF80C4025
:1048C00004F0A2FC204603F04FFF43F6982504466F
:1048D000002003F049FF001B61F10001A84271F1C3
:1048E000000305D2FFF7DCFF10B904F09FF9EFE7F2
:1048F000FFF7D6FF0948002319461A46406804F01E
:104900001DFA074B00221A72064B01244FF4FA607D
:104910001C7004F0D7FA204605B030BD34E6032001
:1049200080E50320B0E5032008B503F00DFFB0F5E6
:104930007A7F34BF0020012008BD000030B585B06B
:104940000D4600226946009204F0DEF890B9009C02
:104950000CB1236923B9084A08490A2004F0BCF8BD
:104960000C23CDE901350423039301AA2369012116
:104970002046984705B030BD39870B0082BE0B003A
:1049800030B50E4D0FCD89B001AC0FC495E80700CE
:1049900084E8070069460720FFF7D0FF0028A8BF7A
:1049A0000098074A08AB03EB8000102150F81C3C2C
:1049B000044809B0BDE8304004F020BA1CC30B0025
:1049C000F0C30B005CE4032038B5002383608B68E0
:1049D00004460D462BB102229847EB68E360AB68B2
:1049E000A360204638BD012A37B5044604D10B68C0
:1049F0000360002003B030BD022A0CD0032AF8D196
:104A00000468002CF5D02046FFF731FD1021204628
:104A1000FFF745FBEDE7096801911020FFF73BFB2D
:104A2000054610B10199FFF7CFFF2560E1E738B5E2
:104A3000046805467CB16368013B63605BB9236829
:104A400020469B689847A368013BA3601BB9236875
:104A50002046DB689847284638BD000030B50B7803
:104A6000234D95B00C4683B9224904A806F0F8FE00
:104A70006B7A002B3AD004F0E9F8002836D0FFF723
:104A800053FF20BB04F0D2F8F9E7084606F05EFEBB
:104A9000C8280DD1184904A806F0E2FE05F0FBFD78
:104AA000164B286101221A70154B00221A70DFE79D
:104AB000204606F04BFEC928ECD0204606F046FE04
:104AC000104A0346402104A804F098F9D0E7FFF704
:104AD0002BFF0D4B0D491B788DF8003002A83C23AD
:104AE00004AA04F0ADFC03A8FFF7A1FF15B030BD88
:104AF00080E50320A8BE0B00B0BE0B00B0E503208C
:104B000094E40320C2BE0B004DE40320DFBE0B0083
:104B100030B5284985B0044605F03EFBD0B12549A3
:104B2000204605F039FB0546E0B92349204605F04B
:104B300033FB58B1214B22492248DD72FFF746FD75
:104B400004F084F8F8B9204B05221A701F4B01209D
:104B5000187005E01849204605F01EFB0028DED13C
:104B600005B030BD154B1A4916480122DA72FFF71D
:104B70002DFD04F06BF80028E8D0FFF7D5FE40B912
:104B800004F054F8F9E7FFF7CFFE10B904F04EF83F
:104B9000F9E7FFF7C9FE0F4B0F4A1B788DF800307D
:104BA00002A80E493C2304F04BFC03A8FFF73FFF8B
:104BB000CCE700BFD7BC0B00DCBC0B0080E50320BA
:104BC000FFBE0B006CE6032074E50320B0E5032074
:104BD000ECBE0B004DE40320E0E403207CBD0B00A1
:104BE00070B5614C614886B00025257002F0A8F9C7
:104BF000B5EE400AF1EE10FA00F0AA805B4802F030
:104C00009FF910EE100A84ED030A06F0D3F9584A12
:104C1000CDE900011021574804F0F0F8534802F0A4
:104C20009DF910EE100A84ED040A06F0C3F9524A09
:104C3000CDE900011021514804F0E0F8504801F09E
:104C400027FA4F4884ED050A01F042FA4C4884EDFA
:104C5000060A01F0BCF907EE900AF8EE677A6426BE
:104C60001320C4ED077A05F065FF2B4640F68A62F3
:104C70002946009604F01AF9A062122005F05AFFA6
:104C80002B4640F68A622946009604F00FF9E0624E
:104C9000606906F08FF93B4ACDE9000110213A48DE
:104CA00004F0ACF8A06906F085F9384ACDE90001B6
:104CB0001021374804F0A2F8E06906F07BF9354A84
:104CC000CDE900011021344804F098F802A903202E
:104CD000FFF734FE00283ED1BDF8083007EE903AC9
:104CE000FBEECC7AFDEEE77A102117EE903A2B4AD4
:104CF0002B48C4ED087A04F081F8FFF741FE02A9C1
:104D00000320FFF71BFE48BBBDF8083007EE903AC2
:104D1000FBEECC7AFDEEE77A224A17EE903A1D2B95
:104D2000C2ED037A1DDC01239372D37A4BB91E497D
:104D300002A805F070F902A8FFF7EAFE02A805F044
:104D40001FF90125257005F0A6FC184B60601D7049
:104D5000284606B070BDFFEE007AC3E7FFEE007A8A
:104D6000D8E700239372ECE728E5032068E50320E9
:104D700016BF0B00B1E503201EBF0B00B0E40320FB
:104D8000C4E5032026BF0B00F0E4032032BF0B0074
:104D900001E6032040BF0B00F0E303204CBF0B00F3
:104DA0006CE4032080E50320D7BC0B0024E503203E
:104DB00010B586B003F04AFFA0B1FFF7B5FD10B9FA
:104DC00003F034FFF9E7FFF7AFFD194B194A1B78E1
:104DD0008DF8003002A818493C2304F031FB03A8E9
:104DE000FFF725FE154C16481649FFF7EFFB012388
:104DF0002370637204200023A37205F088FEA0B123
:104E0000114902A805F007F902A8FFF781FE02A8E0
:104E100005F0B6F8094A0D4801210023E175A38584
:104E200006B0BDE81040FFF709BA0949E9E700BF3D
:104E30004DE4032050BF0B007CBD0B0080E5032038
:104E40006CE6032068BF0B00D7BC0B0098E403207E
:104E5000DCBC0B00F0B53B4A3B4D1268AB8D013218
:104E6000934295B032D90023AB85384E002270684A
:104E7000114603F053FF08B1FFF7D6FCAB8D344A5F
:104E8000402104A803F0BAFF324804A9FFF79EFBB3
:104E900003F0DCFE0446F8B12F492E48FFF796FBDD
:104EA0006B7A63B12D4B2E491B788DF8003002A828
:104EB0003C2304AA04F0C4FA03A8FFF7B8FD294A6A
:104EC00001231370284A137015B0F0BD274A918E44
:104ED000994238BF9386C8E7024601467068234F5F
:104EE0001E4E03F01BFF0546C0B1214919481E257F
:104EF000FFF76CFB3D6305F0CEFB1E4A00902B468E
:104F0000402104A803F07AFF02F07CFB8DF80040FA
:104F10003378194904AAFFF799F9D0E717490D48E2
:104F20001F24FFF753FB3C6305F0B5FB114A0090CB
:104F30002346402104A803F061FF02F063FB8DF8D3
:104F40000050E5E7DCE2032080E5032034E603209F
:104F500080BF0B006CE6032095BF0B004DE40320DF
:104F6000B1BF0B00B0E5032024E5032028E50320B2
:104F7000BABF0B0002BD0B0024BD0B00E1BF0B004C
:104F800013B50B460246D0E900016C4684E80300E5
:104F900093E8030082E8030094E8030083E8030039
:104FA00002B010BD2DE9F04194B005461A9904A84D
:104FB00017461E46FFF708FD04A908A8FFF704FDE1
:104FC00008A90CA8FFF700FD4FF000081020CDF84D
:104FD0004880FFF760F8044668B1C0F808800146D1
:104FE0000CA8FFF7CDFF0E9BA2680E92A360E268AB
:104FF0000F9BE3600F92244B1393244B12930022D8
:1050000000234FF00008C5E90023214BC5F80880B4
:1050100010201094CDE90138CDF80C80FFF73BF853
:105020000446D8B1129BC0F8088033B1022210A9FF
:105030009847139BE360129BA360164B0393164A99
:10504000029401AB3846314603F080FDB0B12046F2
:10505000FFF70DFA10212046FFF721F810A8FFF7FF
:1050600006FA0CA8FFF703FA08A8FFF700FA04A84D
:10507000FFF7FDF9284614B0BDE8F081029BAB6054
:10508000C5E90076EAE700BFC3410B00E7490B0022
:1050900002000C0081440B00E9400B002DE9F047B1
:1050A0000021A6B0082005F021FD0121052005F012
:1050B0001DFD0021042005F019FD0021132005F03D
:1050C00015FDFFF729FB0023009301224FF0FF336A
:1050D000B149082004F0C6FCB04B06AA03F1100544
:1050E000904618685968144603C40833AB422246F8
:1050F000F7D119889B78A3702D222180A84FA94E43
:1051000000210DF12B0006F06BFB022502A83D707B
:1051100003F0A4FD02A916A8002404F0BCFFA249D4
:1051200016A805F024F8CDE90044A04900682346FC
:10513000224603F0A3FD16A804F022FF02A804F003
:105140001FFF9B4B16939B4B19939B4B189316ABCE
:105150004FF48072009302A80023FFF723FF16A8E4
:10516000FFF785F9954B1693954B1993954B18932B
:1051700016AB4FF48022009302A80023FFF712FF22
:1051800016A8FFF774F9904B90481968FFF76BF970
:105190008F499048FFF767F98F499048FFF763F907
:1051A0008F499048FFF75FF98F499048FFF75BF907
:1051B0008F499048FFF757F98F499048FFF753F907
:1051C0008F499048FFF74FF92A468F498F48234669
:1051D00003F01CFD234601228D498E4803F016FD85
:1051E0008D498E48FFF73FF98D498E48FFF73BF90F
:1051F0002A468D498D48234603F008FD234609229F
:105200008B498C4803F002FD83498448FFF72BF952
:105210002A46234606F130018748884D03F0F6FC04
:10522000874B0A22196816A804F05AFF854B03938E
:10523000042202AB16A9844802944FF00C0A04948D
:10524000ADF808A003F0E2FC16A804F099FE7F4A2E
:105250007F49804803F0C7FF7F4A80497D4803F0BB
:10526000C2FF7F4A7F497B4803F0BDFF694A7E4900
:10527000784803F0B8FF7D497D4A764803F0B3FFD4
:105280004FF00109032241F2883316A8CDE9162315
:10529000ADF8609003F0D2FF764801F0C3FB2146E1
:1052A000744801F0FEFC744804F00EFB4FF4FA70F1
:1052B00003F008FE704804F0FEFA704801F02AF886
:1052C0004B466E4802AA214601F066F89DF8083068
:1052D000062B00F01981694801F026F8684A6748F2
:1052E0000423214601F0A3F84B46644802AA214654
:1052F00001F052F89DF80830062B00F0028187F883
:10530000009003F021FA5F4BC6F830A018605E48A9
:10531000442101F07EFD48B95C49404606F0A0FA00
:1053200001233B7003F010FA564B186005F048FC5F
:105330000146574800F0EFFE60B903F005FA514C02
:1053400054492060404606F08BFA01233B7003F07D
:10535000FBF920604E48002100F053FE4C480C2120
:1053600000F046FE01214A4800F03CFEFFF7B0F98C
:105370000022114616A8169203F0C6F9169B142BAC
:105380004FF0000240F0CD806B6A0133032B6B625B
:1053900000F3D08080E000BFB9400B0038C30B00A1
:1053A00074E5032028E50320F3BF0B005D4A0B00E2
:1053B00069420B001B420B0007420B00C5400B006B
:1053C000FD410B00E9410B00E4E2032016C00B0095
:1053D000B1E503201EC00B00B0E403202AC00B007F
:1053E000F0E4032033C00B0001E6032037C00B00BC
:1053F000F0E303203DC00B006CE4032045C00B002C
:105400005CE403204DC00B0084E503205CC00B006E
:1054100081E503208ABD0B00E0E403206BC00B0094
:1054200000E4032078C00B00A4E503207FC00B003C
:1054300098E503208AC00B0099C00B0080E503208B
:1054400078E30320B3400B00A0C00B00B3C00B00F7
:1054500045410B00BB910B00BFC00B0079430B0013
:1054600050BD0B0015430B002D450B00114B0B00DD
:10547000CCC00B0008E50320A8E4032098E4032037
:1054800078C30B0004E5032068E50320DAC00B00B5
:10549000C4E50320F7C00B0002F0B4F802F0BEFA36
:1054A00096F83C30022B1DD9336B172B1AD00022F3
:1054B00011461724012003F059FB346305F0EBF883
:1054C000394A00902346402116A803F097FC02F0C9
:1054D00099F800238DF80030344B35491B7816AA13
:1054E000FEF7B4FEEB7A10223BB33249324806F0A5
:1054F000E4F96B788BB303F0A9FB00BB03F096FBD8
:10550000F9E7FFF755FC02E72A46494630232B48C6
:1055100000F042FF40233246A021284800F03CFF23
:10552000F5E6114616A8169203F0EEF8169B8C2BA2
:10553000B2D129E70D233363AEE72149D6E703F063
:1055400085FB6868FEF7E2FF6B681E484FF47A71CE
:105550006FF000425943FEF76BFF042005F0D7FAC5
:1055600008B9FFF725FCFFF73BFB174916A804F025
:1055700052FD16A8FFF7CCFA16A804F001FD6B7ACD
:1055800053B102F03FF800238DF80030074B0F496C
:105590001B784246FEF75AFE3B780BB905233B7059
:1055A00026B0BDE8F08700BF02BD0B004DE403202C
:1055B00024BD0B0013C10B00E0E4032098E403209A
:1055C00018C10B00C0E40320DCBC0B001EC10B00A3
:1055D000374B30B501251D70364B02201870364B05
:1055E00008221A70354B002464229C869A6383F843
:1055F0003C40334B334A9A6087B0C3E9004403F020
:1056000095FA2146284603F0A9FA2946042003F01A
:1056100073F82D4B2D481C611A1D1A602C4A5A60D4
:10562000C3E902441D7500F0D1FC2A482A4D01F05F
:10563000CBFB05F0C5FA4FF400520146234628463D
:1056400000F05EFE254B2B6005F0BAFA01462448B7
:10565000244D01F0CFF8244B0293244B0593244BA7
:105660000493244B2B6005F10C0102A82C71AC6053
:105670006C61FFF785FC6A69049B6B610492059B72
:10568000AA690592AB611C4A2B464FF47A71CDE9A9
:10569000004405F1080002F0CFFF02A8FEF7E7FE84
:1056A0001648214607B0BDE8304004F07FB800BF7F
:1056B0004DE403204CE403204EE4032028E50320BE
:1056C00040E403200000FFFF7CE40320C4E5032046
:1056D0001000030068E5032098E40320E0C20B00FB
:1056E00008E50320C0E40320F9430B0039420B0016
:1056F00025420B00CCC20B0089410B00A8E403201B
:10570000F0B5974C2378013B97B0072B5CD8DFE8C6
:1057100013F05F0208005B00D500CA012E00A6004E
:10572000B802904B1B78022B01D0FFF74DF88E4B3F
:10573000DB7A53B103F008F88C4B1B68C01A8C4B12
:105740001B68984284BF042323708A4B1B780BB1DB
:105750000823237004F09FFF874B1B6890FBF3F234
:1057600002FB130000282FD1062323702CE07D4B71
:105770001B78062B01D0FFF727F804F08CFF7F4B36
:105780001860FFF72DFAFEF7D7FF0523237003F00B
:105790005DFA40B1764B7A4A1A6002F0D5FF734B3E
:1057A00018600723E1E7704DAB7A002B3CD1EB7A10
:1057B00053B1042005F0ABF930B1EB68412B3DDD6E
:1057C00070497148FEF702FF01F01CFF01F00DFE69
:1057D0006E4801F02FFA6E4B1B68002B08DB6D4BF7
:1057E0000E221A6302F0B0FF6B4B18600123237086
:1057F0006A4B1B780BB1FEF78FFF694C237833B1EE
:10580000594A68480121FEF719FD00232370664CB0
:1058100023783BB140235F4A6248A02100F007FE95
:105820000023237017B0F0BD042005F070F90028A4
:10583000BDD05E495448FEF7C9FE1FE0322B06DC9E
:1058400004F03AFF820708D1EB68412BBCDC04F07E
:1058500033FFC307B8D55649ECE75649EAE7414B51
:10586000554D1B78072B07D002F06EFF534B186085
:1058700001232B70FEF7A8FF2B780BB9022374E7E6
:1058800002F062FF4D4B1B68C01A47F2305398423A
:105890009AD9404B28221A63434B01251D7004F00E
:1058A000FAFE314B1B69C01A42F630239842E5D903
:1058B00002F04AFF384B2570186085E7294B1B78AA
:1058C000042B01D0FEF780FF03F0C0F900283ED082
:1058D000FEF7EEFF264B284E4FF47A7235681A60B9
:1058E00004F0D9FE376890FBF7F303FB1700281A82
:1058F000002832DD8742A8BF0746314922483A4690
:10590000FEF764FE01F07EFE0A220546394606A82F
:1059100004F0E6FB00238DF800302A4B069A1B7832
:1059200029492846294DFEF791FC06A804F028FBDA
:105930002B7D002B00F0918002232B722B68DB68FB
:10594000002B60D09A88012A49D09B68F8E720484C
:1059500004F056F90028BBD0BCE70127CDE700BF13
:1059600074E5032000E5032080E503207CE50320A7
:1059700078E5032095E4032078E30320DCE40320AA
:10598000905F010048C10B006CE6032008E503208E
:10599000E0E2032028E5032004E5032000E60320DD
:1059A000B0E5032098E4032024E5032026C10B0082
:1059B0009FC10B006CC10B0094E4032050E4032052
:1059C000D3C10B004DE40320EAC10B007CE40320AB
:1059D00034E603209B68B3B19A88012AFAD19A89E8
:1059E000042AF7D100229A732B7D002B35D04FF477
:1059F0007A735F432B68DB68DBB19A88042A00F076
:105A0000B9819B68F8E7A949102005F061F90646BD
:105A1000002800F0B1811022002105F0E1FEA44B26
:105A200033600123B3802B69B3600423B3812E61FB
:105A3000DAE79E49102005F04BF90646002800F0F1
:105A40009B811022002105F0CBFE994B336004238B
:105A5000B3802B692E61C6E90237964903A804F08A
:105A60004DFC954803F030FF02F06EFE934B18603A
:105A7000039B7BB19A88012A0CD19B89042B09D105
:105A80008F4906A804F0C7FA06A8FFF741F806A850
:105A900004F076FA03980623237000283FF494AEAE
:105AA00003F08CF990E6874B874D1B78052B21D0AE
:105AB000864E33700023AB85FEF786FE03F0C6F8F2
:105AC00078B183498348FEF781FD834B834A1A608E
:105AD00002F03AFE794B18603378062B7FF4CEAE95
:105AE0005FE602F031FE7E4B18607E48FEF708FD4F
:105AF00003F0A4F802F028FE794B1B68C01A4FF49B
:105B00007A73B0FBF3F0A88503F0A0F8002835D035
:105B100003F09CF810B1002003F0B8F8002002F068
:105B200023FE47F230570646002002F01DFE831B7D
:105B300061F10001BB4271F1000305D2FEF786FC62
:105B400010B903F073F8EFE7FEF780FC04F0A3FD53
:105B5000614B624A1A60A86202F0F6FD574B18606A
:105B6000FFF778F9002300935F494FF0FF330222DB
:105B7000042003F077FF554B1B78AEE75B4BAA8DF3
:105B80001B689A427FF620AEFFF764F958495148E6
:105B9000FEF71CFDFEF78CFEEB7D4BB1554906A8C8
:105BA00004F039FA06A8FEF7B3FF06A804F0E8F9F6
:105BB00004F071FDAB6AC01A45F2604398427FF66B
:105BC0005DAE0123237002F0BFFD4B4B1860FBE577
:105BD0003C4B1B78012B01D0FEF7F6FD02F0B4FD23
:105BE000454B1B6803F5EA4330338342BFF4ECAD09
:105BF000424D434A2B6B402106A803F0FFF803F007
:105C000025F860B13F4B40491B788DF8003003A860
:105C10003C2306AA03F014FC04A8FEF708FF2D4855
:105C200006A9FEF7D3FC4FF4FA6003F04BF903F03A
:105C30000DF8A8B1FEF73CFE2B6B0D2B16D01E3BCA
:105C4000012B0AD804F027FD1F4A012190622F483A
:105C5000FEF7F4FA642003F035F904F04CFBB3E5E9
:105C6000204803F0CDFF0028E4D0E5E7164A274896
:105C7000002301215362FEF7E1FA642003F022F9C8
:105C8000A2E5104B1B78082B09D002F05DFD204BDC
:105C9000204918600F48FEF799FCFEF795FD1E4B52
:105CA0001B78002B3CD11D49C4E500BFA0CA0B00E6
:105CB000100003007CE40320A8E403207CE503201B
:105CC000DCBC0B0000E5032080E503204FE403204B
:105CD000FBC10B006CE6032078E50320905F010018
:105CE00054E4032034E60320D1400B00DCE203201F
:105CF00022C20B00D7BC0B0004E5032028E50320DB
:105D000040C20B004DE4032064C20B0098E4032062
:105D100058E4032070C20B0095E403208DC20B00F1
:105D200002F012FD154B1B68C01A154B98427FF606
:105D30004BAD144D144915481526FEF747FC2E634C
:105D400004F0A9FC124A00903346402106A803F053
:105D500055F801F057FC00238DF800300D4B0E492B
:105D60001B7806AAFEF772FA95F83C30013385F8E5
:105D70003C3083E5DF6070E62E756EE658E4032064
:105D8000BF27090028E50320A7C20B006CE603200B
:105D900002BD0B004DE4032024BD0B004260002235
:105DA00001700272704710B5037A044653B121782E
:105DB000606803F01DFE606803F03DFEB0FA80F0FD
:105DC000400910BD00F003F80028F0D1F9E710B544
:105DD0000446406803F0DAFD012323722046BDE843
:105DE0001040FFF7E0BF2DE9F843DDE908961F46B4
:105DF0009319202B04468846154602D90020BDE899
:105E0000F8830178406803F0F3FD7EB960680368A9
:105E10002A46DB68414698478542EFD1606839469B
:105E200003F005FEB0FA80F04009E8E7B9F1000F91
:105E3000ECD0606803683246DB6849469847864282
:105E4000DCD1E3E7202A70B506460C4615460FD88C
:105E50000178406803F0B7FDA84209D12518A54292
:105E600008D0706803685B69984704F8010BF6E78F
:105E7000002070BD0120FCE773B51D460023CDE96D
:105E800000339DF81C30069E0446FFF7ACFF40B17E
:105E9000012332462946204602B0BDE87040FFF794
:105EA000D1BF02B070BD10B5016082809DF80C10AA
:105EB0009DF80820C1710272837110BD1FB58388DF
:105EC0008DF80C301B0A8DF80D30C379019303ABAC
:105ED000009300680123FFF786FF05B05DF804FB1F
:105EE000F0B40C4602B98279042A13D800F10905EE
:105EF00083182946834209D0077AE6B227B92E7063
:105F0000240A0135013BF5E71E72F9E7F0BC18469B
:105F1000FFF7D4BF0020F0BC704713B504460B4612
:105F2000818804F8091F0021CDE9002101222146C2
:105F30000068FFF7A1FF02B010BD38B500F10905F8
:105F4000827929460446FFF7E8FF78B1A27929460D
:105F500022440020A2420BD00302207A20B9107AFA
:105F60001843013A0131F5E70878F9E74FF0FF30BF
:105F700038BD10B501600271437110BD10B5044603
:105F80000068FFF7DAFF23795A1C012393406279F6
:105F9000013BD040184010BD70B5044600680E4665
:105FA000FFF7CBFF23796179013301229A40531E19
:105FB00003FA01F520EA05053340206803FA01F1F0
:105FC00029438279BDE87040FFF78ABF704708B562
:105FD0004068FFF7B2FF80B208BDC06981F00101DF
:105FE000FFF7DABF006AFFF7D7BF406AFFF7D4BFF9
:105FF000806AFFF7D1BF08B5806AFFF7BFFFC0B264
:1060000008BDC06AFFF7C8BF08B5C06AFFF7B6FF92
:10601000C0B208BD10B52DED028B0446B0EE408A2B
:10602000FFF7F2FF022818D0032813D0012803D16C
:10603000F6EE007A28EE278A2046FFF7DCFF0138CB
:106040000B2814D8DFE800F0181B1E1313131311CC
:106050001313130CF1EE007AECE7F2EE007AE9E7A5
:10606000F1EE007A28EE278A01E038EE088AB0EED9
:10607000480ABDEC028B10BDF6EE007AF2E7F5EEB1
:10608000007AEFE7F4EE007AECE700000000000091
:1060900010B504464068FFF750FF07EE900A20460F
:1060A000B8EE670AFFF7B6FF10EE100A04F082FFA1
:1060B00005A3D3E9002304F0D5FF05F0CBFA00EEE9
:1060C000100A10BDAFF3008092CB7F48BF7DAD3F7B
:1060D00010B504468068FFF730FF07EE900A2046AF
:1060E000B8EE670AFFF796FF10EE100A04F062FFA1
:1060F00005A3D3E9002304F0B5FF05F0ABFA00EEE9
:10610000100A10BDAFF3008092CB7F48BF7DAD3F3A
:10611000006BFFF741BF7FB504460C200391FDF7EC
:10612000BAFF054618B1039A1021FFF737FEA563A1
:106130002846FFF74CFE0546002800F0D2801020CC
:10614000FDF7A9FF064638B101230022CDE900235F
:10615000A16B0223FFF7A7FE26601020FDF79BFF2F
:10616000064638B100230122CDE90032A16B02239B
:10617000FFF799FEE6601020FDF78DFF064640B15F
:1061800000230122CDE900320223A16B1A46FFF75A
:106190008AFE26611020FDF77EFF064648B10023E7
:1061A0004FF0010ECDE9003EA16B02230322FFF761
:1061B0007AFE66611020FDF76EFF064648B10023A7
:1061C0004FF0010CCDE9003CA16B02230422FFF744
:1061D0006AFE66601020FDF75EFF064640B10023B0
:1061E0000121CDE900310522A16B0223FFF75BFEFF
:1061F000A6601020FDF74FFF064640B100230122A4
:10620000CDE90032A16B02230622FFF74CFEA66106
:106210000820FDF740FF064620B121680023012237
:10622000FFF7A7FEE6610820FDF735FF064620B11F
:10623000012321681A46FFF79CFE26620820FDF71D
:106240002AFF064620B1216804230222FFF791FEAF
:1062500066620820FDF71FFF064620B1216806236D
:106260000422FFF786FEA6620820FDF714FF06460B
:1062700020B121680B230222FFF77BFEE662082093
:10628000FDF709FF064620B1616900230122FFF7EF
:1062900070FE26630820FDF7FEFE064620B1616908
:1062A00001230222FFF765FE002120466663FFF707
:1062B00094FE00212046FFF795FE00212046FFF7BF
:1062C00094FE00212046FFF79CFE00212046FFF7A8
:1062D0008FFE00212046FFF71BFF01212046FFF71C
:1062E0007CFE284604B070BD704710B510210446EE
:1062F000FDF7D5FE204610BD0368C9B29B6818475C
:1063000030B5034DC0E90223C0E9005130BD00BFE4
:10631000B0C30B00406803F039BB10B504460068F9
:1063200003F095FB204610BD2DE9F0418AB00446EC
:106330004068019003F082FB1E22002102A8A7689A
:1063400005F04EFA0026EFB123681E2FB84628BF8D
:106350004FF01E08DD6802AA434631462046A84792
:10636000054658B90A480B493246FEF72FF901A8ED
:10637000FFF7D3FF28460AB0BDE8F081A7EB080776
:106380004644E0E701A8FFF7C8FF0125F2E700BF98
:106390006CE603207CC30B002DE9F74304464068FC
:1063A00001900D4616461F4603F048FBA7B1E16871
:1063B000606841F0500103F01FFB290A6068FFF795
:1063C0009BFF29466068FFF797FF6068002103F094
:1063D0002EFB48B1002400E0012401A8FFF79DFF37
:1063E000204603B0BDE8F083202F217B6068B846CB
:1063F00028BF4FF020080123424641F0500103F02E
:10640000E2FA04F0DDFB03681B6998474045E1DBD5
:1064100006EB080904F0D4FB03685B69984706F8AB
:10642000010B4E45F6D14544A7EB0807BEE72DE921
:10643000F74F0446406801900E4690461D4603F013
:10644000FDFA4FF00109B9F1000F2AD04DB3E16810
:10645000606841F0500103F0CFFA310A6068FFF73D
:106460004BFF60683146FFF747FFA5F11E0A47461C
:10647000A6EB080B606817F8011B0368013D9B68D9
:10648000984755450BEB0706B84601D0002DF1D1D2
:106490006068012103F0CBFA0028D7D04FF0000943
:1064A000D1E701A8FFF739FF484603B0BDE8F08FF8
:1064B0002DE9F0438BB00E461546804640680190AA
:1064C0001C4603F0BBFAAE4229D2264425448CB1C7
:1064D0001E2C2746D8F8003028BF1E27F61BD3F8FD
:1064E000089002AA3B4631464046ED1BC84748B9D2
:1064F000002400E0012401A8FFF70FFF20460BB0A5
:10650000BDE8F083D8F8003002AAD3F80C902946F1
:106510003B464046C8470028EAD0E41BD7E7E9D904
:10652000002CE7D0D8F800301E2C274628BF1E27A5
:10653000D3F8089002AA3B4631464046C847002897
:10654000D6D0D8F8003002AAD3F80C9029463B46A2
:106550004046C8470028CBD03E443D44E41BDFE71B
:10656000402070470020704780207047FF20704710
:10657000704770477047704710B514210446FDF707
:106580008EFD204610BD10B508210446FDF787FD9D
:10659000204610BD10B508210446FDF780FD2046B9
:1065A00010BD10B51C210446FDF779FD204610BD35
:1065B0002DE9FF410368DB68044698471022014635
:1065C000684605F00DF9236820469B68984700252A
:1065D00007462846BD420ED27E1B2368102E28BFD8
:1065E0001026D3F818806A46334629462046C0470D
:1065F00008B13544EEE704B0BDE8F0810368C9B2E4
:106600009B6818474FF48073438140F20113C360C5
:106610000023038270470000064A026008B5064A5C
:10662000426040F20472028100224274FFF7EAFFE6
:1066300008BD00BF90C40B000001020303090A2239
:1066400000F00F0002FB0300704708B5807AFFF7E7
:10665000F5FF00F5FA6008BDC07A00F01F00FFF7F3
:10666000EDBF007B00F03F00FFF7E8BF08B5817B7E
:106670004A060DD501F01F00FFF7E0FF8B0603D59A
:106680000C2800D00C3008BD0C2808BF0020FAE709
:10669000BDE8084001F03F00FFF7D0BFC07B00F02D
:1066A0007F00FFF7CBBF007C00F07F00FFF7C6BF85
:1066B00010B58AB024220446002101A805F090F804
:1066C0002046FFF7C2FFA0F26C7006902046FFF74D
:1066D000C3FF013805902046FFF7C3FF0490204612
:1066E000FFF7C4FF03902046FFF7D8FF0290204633
:1066F000FFF7D9FF019001A802F0D0FB0AB010BD4E
:106700000A2290FBF2F191FBF2F302FB13131B013F
:10671000DBB202FB11001843C0B27047642310B50E
:10672000044691FBF3F000FB1310FFF7E9FFA072A2
:1067300010BD10B504460846FFF7E2FFE07210BD39
:1067400010B504460846FFF7DBFF237B23F03F0329
:106750001843207310BD10B50446481CFFF7D0FF46
:10676000637B23F007031843607310BD10B5044624
:106770000846FFF7C5FFA07310BD10B504460846D4
:10678000FFF7BEFFE07310BD10B504460846FFF7E3
:10679000B7FF237C23F07F031843207410BD37B567
:1067A00004466846CDE9002304F0D4FF054641695C
:1067B0002046FFF7B3FF296920460131FFF7B9FFF3
:1067C000E9682046FFF7BCFFA9692046FFF7C3FF31
:1067D000A9682046FFF7CAFF69682046FFF7CDFF8A
:1067E00029683B29A8BF3B212046FFF7CDFF03B016
:1067F00030BD0000054A0061C0E90021044A826002
:10680000044AC260044A806142617047C4C40B00FC
:10681000000001036CC40B00A0C40B002DE9F84F6D
:1068200004460F469046994600260A9B9E4231D266
:106830006068394603F0DCF8606808EB0601FFF792
:10684000DDFE6068002103F0F2F80546D0B90A9B2E
:1068500060689A1B202A4FF0010328BF2022394686
:1068600003F0B1F809EB060B05460BEB000ADA451D
:1068700006D0606803685B6998470BF8010BF6E780
:106880002E44D2E7024604490448FDF79FFE2846FD
:10689000BDE8F88F0025FAE7C4C30B0014E6032017
:1068A0002DE9F34101EB03081E4603689B6805468A
:1068B0000C461746984780450DD8203468680096E6
:1068C0003B46E2B26F21FFF7A9FFB0FA80F0400922
:1068D00002B0BDE8F0810020FAE72DE9F34101EBB9
:1068E00003081E4603689B6804460D4617469847F2
:1068F00080450CD8606800963B46EAB25721FFF706
:106900008DFFB0FA80F0400902B0BDE8F0810020B0
:10691000FAE7012B7FB514461E4624D8002B0CBF86
:106920000723062300930A4602AB6F21FFF776FF89
:106930000546A8B99DF8083023749DF80930E37323
:106940009DF80A30A3739DF80B3063739DF80C30EB
:1069500023739DF80D30E372F6B99DF80E30A372E3
:10696000284604B070BD022B1CD1042300930A46B4
:1069700002AB6F21FFF752FF05460028F0D19DF8CA
:106980000830E3739DF80930A3739DF80A30237330
:106990009DF80B302074E37203F09AFEFFF7B0FE0F
:1069A000A072DDE74FF0FF35DAE71FB501230A4695
:1069B00000936F2103ABFFF731FF20B99DF80C0066
:1069C00005B05DF804FB0020FAE708B50321FFF7E6
:1069D000ECFFC0F3401008BD38B500230C460A4652
:1069E00019460546FFF795FF30B9A37A23B128462B
:1069F000BDE83840FFF7E9BF002038BD10B586B0CC
:106A0000044601A8FFF708FE01A92046FFF7E4FFAE
:106A100020B101A8FFF74CFE06B010BD00200146D2
:106A2000FAE7000070B5044686B0406802F0AEFF99
:106A300003F014FEE8B9E37A9B071AD52046FFF766
:106A4000DDFF50EA010306460D4612D003F00BFDB0
:106A50000A4B0B491B68009332462B4602A803F0F1
:106A6000BBFD0848029A0849FDF7B0FD02A803F0F3
:106A700087FA0123237206B070BD00BF7CE30320B8
:106A800098E6032014E60320DEC30B002DE9F84F3F
:106A90000646884691469A4600250A9B9D4229D281
:106AA0007068414602F0A4FF706809EB0501FFF72A
:106AB000A5FD0A9B5F1B1F2F28BF1F270AEB05049C
:106AC00007EB040B706814F8011B0268926890478A
:106AD000A345F7D17068012102F0A9FF044638B13F
:106AE000024605490548FDF771FD2046BDE8F88FCF
:106AF0003D44D2E70024F8E7F3C30B0014E603207B
:106B00002DE9F34101EB03081E4603689B68054627
:106B10000C461746984780450DD820346868009683
:106B20003B46E2B26F21FFF7B1FFB0FA80F04009B7
:106B300002B0BDE8F0810020FAE71FB5137C8DF8A4
:106B40000830D37B8DF80930937B8DF80A30537B66
:106B50008DF80B30137B8DF80C30D37A8DF80D3017
:106B6000937A8DF80E30072300930A4602AB6F210B
:106B7000FFF78CFF05B05DF804FB10B588B0044644
:106B800003A8CDE90032FFF747FDDDE9003203A895
:106B9000FFF705FE9DF81C30A27A63F07F038DF8A5
:106BA0001C309DF819306AB143F0080303AA002194
:106BB00020468DF81930FFF7C0FFB0FA80F0400989
:106BC00008B010BD03F0F703F0E7000030B589B05E
:106BD000054603F043FD0446E8B103F05CFDC3172E
:106BE000CDE9023002462846FFF7C7FF0C49096885
:106BF0000091DDE902320B49044604A803F0ECFCE5
:106C00000948049A0949FDF7E1FC04A803F0B8F922
:106C1000204609B030BD06490348FDF7D7FCF7E729
:106C20007CE3032098E6032014E603200EC40B0047
:106C300024C40B0037B5457A04469DB903F00EFD18
:106C400080B10022002369462846CDE9002302F0E6
:106C50002DF838B1E37ADB0702D52046FFF7B6FFFF
:106C60000123637203B030BD1FB501238DF80C20E2
:106C700000930A4603AB6F21FFF708FF05B05DF8EC
:106C800004FBF8B5174604460D461E46FFF78DFE79
:106C9000384040EA060229462046BDE8F840FFF7A2
:106CA000E3BF012908B50DD800290CBF102220220E
:106CB000002382F0FF020721FFF7E3FFB0FA80F024
:106CC000400908BD0020FCE738B50446322560685D
:106CD000572102F08DFE6068012102F0A8FE08B184
:106CE000013DF4D138BD00002DE9F04104460F46C6
:106CF000164602EB0308B04520D06068572102F029
:106D000077FE39466068FFF779FC606816F8011B6A
:106D100003689B6898476068012102F088FE01378C
:106D2000054638B1024606490648FDF74FFC28469D
:106D3000BDE8F0812046FFF7C7FFDCE70025F6E756
:106D400039C40B0014E60320F7B5CF181E460368BC
:106D500001929B6804460D46984787420AD8019ADB
:106D600060683346E9B2FFF7BFFFB0FA80F0400930
:106D700003B0F0BD0020FBE7014B024A1A607047E8
:106D800014E603205AC40B0010B501230374836872
:106D9000044643B1C0689847012363740020BDE8EE
:106DA000104001F099BC00680028F5D083680BB949
:106DB00003F098FFC368EEE7014B024A1A60704780
:106DC00018E60320CCC40B00704738B505460C46C6
:106DD00003F0F6FE297802F00BFE03F0F1FE0368E3
:106DE000210A9B68984703F0EBFE0368E1B29B68B9
:106DF000984703F0E5FEBDE8384002F01CBE08B538
:106E000043F2A201FFF7E1FFBDE808400A2002F0CB
:106E100059B838B504460D4603F0D2FE02F0B6FD6F
:106E200020462570FFF7EBFF012038BD0A44FF2004
:106E300091420ED011F8013B5840082310F0800F0A
:106E40004FEA400018BF80F03100013BC0B2F5D1DD
:106E5000EEE770470000000073B54FF4105105468F
:106E6000FFF7B3FF4FF4FA7002F02CF803F0A8FE1E
:106E70002978062202F0B9FD03F0A2FE03681B691F
:106E800098470628044602D0002002B070BD6E4626
:106E900003F096FE03685B699847013C14F0FF0419
:106EA00006F8010B6946F3D102222846FFF7BEFF20
:106EB0009DF802408442E7D102220DF103012846E9
:106EC000FFF7B4FF9DF805408442DDD1BDF8000016
:106ED000BDF8034040BA80B204F04AF816A3D3E9E3
:106EE000002304F0BFF810A3D3E9002304F0E4F971
:106EF0000F4B002203F0FEFE04F0ACFBA86060BA6A
:106F000080B204F035F80B4B002204F0ABF806A376
:106F1000D3E9002304F0D0F904F09CFB6860012061
:106F2000B3E700BFAFF3008000000000E0FFEF40D8
:106F300000804640000059400000000000E065402D
:106F400010B50446FFF788FF10B194ED020A10BD9A
:106F50009FED010AFBE700BF0000C07F10B50446AB
:106F6000FFF77AFF10B194ED010A10BD9FED010A01
:106F7000FBE700BF0000C07F012A02D101600020B2
:106F80007047022A04BF0B680360F8E738B505684C
:106F9000044635B12846FDF76AFA10212846FDF768
:106FA0007EF820461421BDE83840FDF778B810B5CA
:106FB00003680446ABB1586801F016FB88B9236832
:106FC0005A7C12B9586801F01FFB2368586801F019
:106FD00023FB20680023236018B1BDE81040FFF7B1
:106FE000D5BF10BD054A026000224260027380F8DE
:106FF0004F24C0F85824C0F860247047F4C40B0034
:1070000010B5074C236843B940F26440FDF743F8DC
:10701000034608B1FFF7E6FF2360206810BD00BFFC
:107020001CE6032038B50446406890B10223237360
:10703000FFF7BDFF656855B12846FFF7B8FF286820
:1070400008B1FFF7A3FF04212846FDF728F8002325
:10705000636038BD10B5054B03600446FFF7E2FFDF
:1070600004F58A60FDF703FA204610BDF4C40B0056
:1070700010B50446FFF7EEFF204640F26441FDF7ED
:107080000EF8204610BDF0B5044689B000F10D069B
:1070900000F14E07237B1BB9012001F013FFF9E734
:1070A000237B022B64D0A06801F0EEFAA06801F007
:1070B000F3FA94F84F348DF800303A463C233146C9
:1070C00006A802F0BDF9069D6B7833B9237B022B2D
:1070D00003D0012001F0F6FEF5E7D4F858341BB3D5
:1070E000002001F04BFD20B16B7813B901F09EFD3B
:1070F000FAE72B78D4F860240592591E4B424B4195
:107100008DF80B30D4F85834CDE903670BB903F090
:10711000E9FD05AB0093D4F85C5404AB03AA0DF170
:107120000B0104F58A60A847A06801F0ADFA237B43
:10713000022B17D0D4F858340025C4F8605443B15A
:1071400004F58A61032208469847C4F85854C4F8E5
:107150005C540023A068237301F09EFA07A8FDF792
:1071600066FC97E7A06801F097FA07A8FDF75FFCB7
:1071700009B0F0BD0068FFF786BF00002DE9F743B6
:1071800006468846142026491746994603F0A0FD76
:10719000044630B10020C4E90000C4E902002074B4
:1071A00060743460002C31D01D49102003F090FD34
:1071B000054668B10023836001463846FDF7E0FECE
:1071C000BB68AA68BA60AB60EA68FB68EB60FA600B
:1071D0002768256037B13846FDF749F91021384650
:1071E000FCF75DFF3068036883B10A9B4A46CDE92E
:1071F000000341460B4B043001F0EEF930B933681F
:107200001B7C4BB9012001F08FFAF8E730680023AE
:10721000336008B1FFF7BAFE304603B0BDE8F08333
:10722000A0CA0B00896D0B0030B5436887B00446D7
:10723000C3B9083001F020FA0B4B059304200B4B27
:1072400002940493FCF727FF054638B14FF44063DE
:1072500000930749022302AAFFF790FF656002A886
:10726000FDF705F907B030BD75710B00796F0B00A4
:10727000D5C40B002DE9F043044685B080680C9F0F
:1072800098460D46164601F0FFF963681BB1237B53
:1072900003F0FF0933B1A06801F0FEF9002005B04A
:1072A000BDE8F083A06801F0F7F9002D3DD0402241
:1072B000294604F10D0004F000FB84F84D908EB3D4
:1072C00040F20142314604F14E0004F0F6FA84F82F
:1072D0004E9400230293BB6804F58A653BB10222F9
:1072E000394668469847FB680393BB680293294672
:1072F0006846FDF745FE029BD4F85824C4F858347C
:10730000039B02926846D4F85C24C4F85C34039270
:10731000FDF7ADF80D9BC4F86034012084F84F846C
:107320002073BCE784F84E60D3E72846B7E70368CC
:107330000A7883F8B120012183F8B010704710B4A7
:1073400042680346541001EB6200D20748BF0A5955
:107350001B685DF8044B48BFD3581847012A02D177
:10736000016000207047022A04BFD1E90023C0E970
:107370000023F6E7012A02D1016000207047022AAB
:1073800004BF0B680360F8E710B504468AB00846EE
:107390004FF0200C0021CDE90023CDE902C10B46BE
:1073A00002AA216801F0A8FB0AB010BD0EB403B513
:1073B00003AB012153F8042B0193FFF7E5FF02B063
:1073C0005DF804EB03B070470EB403B503AB322194
:1073D00053F8042B0193FFF7D7FF02B05DF804EBDD
:1073E00003B07047406F01F067B9D0F8C83001466C
:1073F0001BB1D0F8CC30C03018477047F8B5124DEB
:107400000846002A18BF15460E461F4604F04DFADE
:10741000402816D8284604F048FAB0F5806F10D8F6
:107420004330FCF73AFE044648B1314600F8017B90
:1074300004F016FA294604F1420004F011FA20463D
:10744000F8BD0024FBE700BFC0CA0B00F0B59FB039
:107450000A4600230E46011D08A800F041FE0898C8
:10746000002104F0E3FA054608A802F089FD002D8A
:1074700060D008A9284604F0C7FA0C9B2E492F4873
:107480003246FFF793FF00221146284604F0C4FA63
:10749000082206A9284604F0DDFA0C9F4A2F39DDA0
:1074A000274B069A9A4235D1264B079A9A4231D1F8
:1074B000A7F1080210460592FCF7EFFD0446C0B1A3
:1074C00027440146059A284604F0C4FA17F8093CF7
:1074D000ABB9631C1846059304F0E7F93F28059BF8
:1074E0000DD804F142020092174914483246FFF7C2
:1074F0005DFF284604F080FA20461FB0F0BD134916
:107500000E483246FFF752FF43212046FCF7C7FDE5
:107510000024EEE7BDF81E3002939DF81D30019364
:107520009DF81C3000930A49069B04483246FFF739
:107530003DFFEDE72C46DFE7FCC40B0020E603200F
:107540006376B6310108410010C50B0032C50B004F
:1075500060C50B002DE9F8438046284B48F8043BF2
:107560000446404600F0D4FC022264230025C4E90E
:107570001B230823E367C4E92055C4E92255C4E965
:107580002455C4E92655A5672020FCF784FDE66F45
:10759000A067013E760800EB860907464FF40070AD
:1075A000FCF779FD00F50073C4E92503C4F88830C1
:1075B0004FF4FA614FF47A73C4E92D1347F2305354
:1075C00047F82600C4F88400C4F88000C4F890008E
:1075D000C4E92855C4E92A550949C4F88C90C4F86F
:1075E0009C90C4F8B050C4F8BC30C4F8C8504046B1
:1075F00000F0D4FC2046BDE8F88300BF70C70B0044
:10760000A5C50B0038B5064D2B683BB9D020FCF75B
:1076100042FD044608B1FFF79DFF2C60286838BD85
:1076200024E603204269436A9B1A9B105A1ED0E944
:1076300006315B1A9B1003EBC21302698068101AB3
:1076400003EBA000704738B50546FFF7CBFE05F108
:107650007800FFF7E7FF044650B9281D00F094FFBB
:10766000D5F8A03004461BB1D5F8A43003B90134D5
:10767000686F01F029F8204638BD10B502698368AB
:10768000043A9342044602D00433A36010BDC0689C
:107690004FF40071FCF703FD63691A1D62615B68BA
:1076A000E36003F500722261EFE700002DE9F04F7F
:1076B00085B00446FFF796FEDFF8A490DFF8A4A09B
:1076C000DFF8A4B0D4F88030D4F89020934205D1EC
:1076D000606F05B0BDE8F04F00F0F6BF04F1780030
:1076E00004F104081F68FFF7C8FF404600F0F0FEF1
:1076F0000023024641460646684600F0F1FC009829
:1077000040F2022104F092F90546684602F038FC86
:10771000C5B1082269462846CDE9009A04F0ACF9C3
:1077200007F1420004F0C1F8394600F1430228464F
:1077300004F0A2F9284604F05FF908483246594699
:10774000FFF734FE3146404600F004FF002FB9D069
:1077500043213846FCF7A3FCB2E700BF20E6032034
:107760006376B63101084100B3C50B002DE9F04145
:107770000446FFF737FE04F17800FFF753FFE36E8E
:10778000984202D92046FFF791FFDFF844800F4F5F
:10779000261D304600F0F8FE236F984204DC606F2F
:1077A000BDE8F04100F090BF0121304600F09CFEA2
:1077B00005460028EDD001460022304600F0CCFC02
:1077C0002A4641463846FCF701FFE2E720E603205F
:1077D000D0C50B0008B5A0F500630B4305D04038B9
:1077E00050EA01030BD1092A09D105490548FFF7E1
:1077F000DDFDFFF707FFBDE80840FFF757BF08BDF5
:10780000E3C50B0020E6032070B50368044683B18E
:10781000436A45691E1DAE4206D955F8040B4FF464
:107820000071FCF73CFCF6E7616820688900FCF712
:1078300036FC204670BD00001FB5D1E900230021B1
:10784000044602910AB9D90705D5CDE900230A4BB0
:1078500003930A4B029321466846FDF791FB029B76
:10786000A268A360039B02926846E268E360039209
:10787000FCF7FDFD04B010BD3F730B005D730B0002
:1078800070B586B0044601F0E1F948B9484B02A949
:10789000CDE9023004F1C000FFF7CEFF06B070BDA5
:1078A00094F8B2501DB1012384F8B330F6E700F02C
:1078B0004BFFD4F8A830C01AD4F8AC30984208D2A4
:1078C0002046FFF7C0FEB0FA80F0400984F8B3000C
:1078D000E4E7261D2946304600F006FE0146C4F8BE
:1078E000A400002852D02046FFF7B0FD0546C4F89A
:1078F000A000002835D000F027FF02AE00252D4B58
:10790000C4F8A800314604F1C00002930395FFF7C4
:1079100093FFD4E9283003F1420200922649274A16
:10792000A4F8B050A84208BF0A46013324492548AC
:1079300084F8B350FFF73AFDFFF762FBD4F8A020BC
:10794000214B0593CDE900651146204B0294049329
:1079500011F8013B4232FFF78DFC3046FCF787FD02
:107960009CE7D4F8A4201A491648FCF72FFE012101
:10797000304600F0B9FDD4F8A4102A46304600F095
:10798000EBFBD4F8A030002BB5D18CE7D4F88030D5
:10799000D4F890209A4207D01B68C4F8A03004F1B4
:1079A0007800FFF76AFEECE7C4F8A0007BE700BFB1
:1079B000D5790B004D7D0B0012C60B006AC80B0079
:1079C00033C60B0020E603202F730B0075730B00EA
:1079D00016C60B0013B590F8B230044623B9FFF772
:1079E00032FEB0FA80F35B0984F8B33001F02EF96F
:1079F00080B100F0A9FED4F8B430C4F8AC30064B26
:107A0000C4F8A80000936946002304F1C000019364
:107A1000FFF712FF02B010BD81780B0070B505466C
:107A200098B0002001F0BAF8012805D03E493F483F
:107A3000FFF7CAFC18B070BD05F1740000F034FE09
:107A40003B4B04933B4B079304A93B4B069308A87D
:107A5000FCF7BAFF08A90CA8FCF7B6FF0CA910A800
:107A6000FCF7B2FF002610201696FCF714FB044624
:107A700060B18660014610A8FDF782FA129BA268E9
:107A80001292A360E268139BE36013922B4B17934F
:107A90002B4B16932B4B149400261020CDE9013666
:107AA0000396FCF7F8FA0446D8B1169B866033B10A
:107AB000022214A99847179BE360169BA360224BF0
:107AC0000393224A029401AB4FF40460002101F0B9
:107AD0003DF830B12046FCF7CAFC10212046FCF7E7
:107AE000DEFA14A8FCF7C3FC10A8FCF7C0FC0CA835
:107AF000FCF7BDFC08A8FCF7BAFC04A8FCF7B7FC2F
:107B0000FFF77EFAFFF790FB281D00F069FC28467E
:107B1000FFF72CFE0E4B149314A9002305F1C000AF
:107B20001593FFF789FE85E752C60B0020E6032078
:107B3000D5770B00FD410B00E9410B00C3410B0061
:107B4000E7490B0002000C0081440B00E9400B00E8
:107B5000D5790B002DE9F04706468946406A7169E0
:107B60007368471A09EBA7050135B3EB450F1446B7
:107B700027D95D1B6D083268AD000CB14FEA89044E
:107B80002C441444031DA142A3EB010213D99942D2
:107B900002D0204603F00AFE74612368F36003F507
:107BA00000733361E3197362E359F36103F5007302
:107BB0003362BDE8F0879942EED0381D801A204428
:107BC000E8E703F102084B452CBF9844C844B8F1DC
:107BD000005F01D303F080F84FEA8800FCF75BFAFE
:107BE000A8EB05056D088246AD000CB14FEA89048B
:107BF000726A716904322C449142544403D0521A7F
:107C0000204603F0D3FD716830688900FCF747FA1D
:107C1000C6E900A8C0E70000F0B585B004469DF8AD
:107C200028509DF82C302B430F461646FFF7E6FBF5
:107C3000054600283CD03F4B3F494048002E18BF26
:107C400033463A46FFF7B2FB2046FFF7CBFBD4F8AA
:107C50009820D4F89030043A934204F1780629D061
:107C600003B11D60D4F890300433251DC4F8903062
:107C7000284600F089FC03903046FFF7D3FC0290C1
:107C800000F0E4FFDDE9023200902D492B48FFF7B8
:107C90008DFB284600F078FC00283BD02046FFF7FB
:107CA00005FD2046FFF762FD606F00F00DFD01202D
:107CB00005B0F0BD3046FFF7B5FC6FF06043984269
:107CC00002D1204803F00BF8D4F89C30A26F9A1A26
:107CD000E36FA3EBA203012B04D80022012130465D
:107CE000FFF738FF4FF40070D4F89C70FCF7D3F91D
:107CF0007860D4F8903003B11D60D4F89C301A1D20
:107D0000C4F89C205B68C4F8943003F50072C4F892
:107D10009820AAE73046FFF785FCE36E9842BDD86D
:107D200000F094FF0028B9D007490448FFF73EFB54
:107D3000B7E700BFC0CA0B0075C60B0020E60320E2
:107D4000CDC60B009DC60B00F9C60B0073B590F8AD
:107D5000B0300446002B41D090F8B130D0F8A420C8
:107D6000002B3DD050495148FFF720FBD4F8A430F8
:107D7000D3B1261D0021304600F0B6FBD4F8A43064
:107D8000984205460DD10121304600F0ADFB00229E
:107D90002946304600F0E0F9454944482A46FFF7B5
:107DA00005FB0023C4F8A430D4F8A00010B143218F
:107DB000FCF775F90023C4F8A030D4F8B830C4F843
:107DC000AC303C4B00936946002304F1C0000193A2
:107DD000FFF732FD00F0B8FCC4F8A80002B070BD97
:107DE00035493248FFF7E2FAD4F8BC30C4F8AC3079
:107DF000D4F8A4304BB1D4F8A00010B14321FCF763
:107E00004EF90023C4F8A030DBE72046FFF7EAFA7A
:107E1000D4E92032934213D0D4F8A02043F8042CA4
:107E2000D4F88030043BC4F88030606F00F04CFC24
:107E300022491E48FFF7BAFA2046FFF737FCC0E791
:107E400004F178052846FFF7EDFB6FF06043984298
:107E500002D11B4802F043FFD4F88C20A36F9A4252
:107E600004D1012211462846FFF774FE4FF400703A
:107E7000D4F88C50FCF70FF945F8040CD4F88C308A
:107E80001A1FC4F88C2053F8043CC4F8843003F55E
:107E90000072C4F8882003F5FE72C4F88020D4F87C
:107EA000A020C3F8FC21C0E70CC70B0020E603208C
:107EB0001FC70B0081780B002FC70B0041C70B00B9
:107EC0009DC60B00014B024A1A60704720E6032052
:107ED000CCC40B0010B5074B044640F8C03BFCF780
:107EE000C6FA04F17800FFF78FFC201D00F0B8F906
:107EF000204610BD70C70B0010B50446FFF7EAFF1F
:107F00002046D021FCF7CBF8204610BD0120704759
:107F1000F8B51F4D1F4B0446294640F8043B02F0BC
:107F20007AF81D4904F1140002F075F8294604F1AD
:107F3000240002F070F80023C4E90E33C4E91233C0
:107F4000C4E91433C4E91633C4E9183384F834306F
:107F50002364082363642020FCF79DF8656C20648B
:107F6000013D6D0800EB850706464FF40070FCF7F5
:107F700092F800F50073C4E9170346F82500E064A1
:107F8000A064A0656765236567662046F8BD00BFED
:107F9000C0CA0B0078C80B007CC70B007FB5051D5D
:107FA0000446284602F08AF80E49684602F033F883
:107FB0006946284602F002F90646684601F0E0FFED
:107FC0006EB1E3680022013B2946684602F00CF9D5
:107FD0006946284602F06AF8684601F0D1FF20465B
:107FE00004B070BD14C00B0010B5C36B044613B9C8
:107FF0003C3000F041FBE06BBDE8104000F044BBBA
:10800000C06B00F049BB000010B596B0694604464D
:1080100000F0C2FCD0B9019B5B04224606D515498D
:108020001548FCF7D3FA012016B010BD12481349C9
:10803000FFF7CAF9204603F017FD40F2FF11204672
:1080400000F0B2FC80B90E492246E9E700F0F6FEE6
:108050000368022BF1D000F0F1FE0A4902680648DD
:10806000FFF7B2F90020DFE700F0E8FE06490268FA
:10807000F5E700BF8CC70B0028E60320A9C70B005B
:10808000DAC70B00C6C70B00E9C70B0038B51546A9
:10809000044601F0C0FF4DB12B783BB104492046A6
:1080A00002F048F82946204602F044F8204638BD40
:1080B00014CA0B007FB505460E461C464969684642
:1080C00002F0B2F8009904B9746A22462846FFF714
:1080D000DDFF684601F054FF284604B070BD000083
:1080E00070B50C468EB01A49CDE90032054601F054
:1080F00092FFE068E16901440431284601F05EFF27
:10810000211D06A801F0C7FF124902A801F083FF54
:1081100002A906A802F01FF8DDE900320646214652
:108120000AA8FFF7C7FF0AA9304602F014F8014673
:10813000284601F0A1FF0AA801F022FF02A801F0E1
:108140001FFF06A801F01CFF28460EB070BD00BF3F
:10815000C0CA0B0014C00B002DE9F04713468EB0C7
:1081600005460F46002A4AD0406800F02DFC06461E
:10817000002854D0DFF8B4A0DFF8AC90DFF8A4807A
:10818000304600F029FC002833D0827A082AF7D143
:1081900000F10B04696901AA204600F027FE0128BE
:1081A000EED1019BBB42EBD1291D0AA801F073FF60
:1081B000514606A801F02FFF06A90AA801F0CBFF3F
:1081C000214601F0D4FF014602A801F064FF06A891
:1081D00001F0D6FE0AA801F0D3FE029803F044FC99
:1081E0004046029A4946FFF7E1F802A801F0C8FEAE
:1081F000C6E730460EB0BDE8F04700F0F5BB0A46D2
:1082000001460AA8FFF76CFF0A9803F02DFC054809
:108210000A9A0549FFF7CAF80AA801F0B1FE0EB0A4
:10822000BDE8F08728E6032081C70B0014C00B00CF
:1082300070B50368044683B1436A45691E1DAE42AA
:1082400006D955F8040B4FF40071FBF728FFF6E749
:10825000616820688900FBF722FF204670BD00009E
:1082600010B5094B044640F8403BFFF7E1FF04F12D
:10827000240001F085FE04F1140001F081FE201DB0
:1082800001F07EFE204610BD78C80B0010B50446F4
:10829000FFF7E6FF20466821FBF701FF204610BDEF
:1082A000C368CA689B1A9B105A1ED0E900301B1A7B
:1082B0009B1003EBC21388680A68801A03EBA000C6
:1082C000704700002DE9F047026A8369043A93423F
:1082D00004460F4607D00BB10A681A60A36904333D
:1082E000A361BDE8F08700F108011830FFF7D8FF5F
:1082F0006FF06043984202D1384802F0F0FC626AA5
:1083000020686368111AA3EBA101012925D86169CE
:10831000A2EB01084FEAA806B51CB3EB450F36D90E
:108320005D1B6D0800EB8505131DA942A3EB01023F
:1083300026D98B4202D0284603F038FA65612B68B3
:10834000E36003F50073236105EB0803636255F8EE
:108350000830E36103F5007323624FF40070656A2F
:10836000FBF799FE6860A3690BB13A681A60636A0B
:108370001A1D62625B68E36103F500722262AFE777
:108380008B42DBD008F10400801A2844D4E703F1C3
:108390000209012B2CBF994409F10109B9F1005FD1
:1083A00001D302F099FC4FEA8900FBF774FE626A80
:1083B0006169A9EB050504326D089142824600EB24
:1083C000850503D0521A284603F0F0F96168206849
:1083D0008900FBF764FEC4E900A9AFE79DC60B0066
:1083E0002DE9F047C368012B86B0044608D834490C
:1083F0003448FEF7E9FF0026304606B0BDE8F087B6
:108400004068FFF701FE06460028F4D06369626801
:108410002D492C48FEF7CAFF606800F0D5FA0746E0
:108420000028E8D00023DFF8A490DFF89880A36349
:10843000384600F0D1FA0546002839D0837A082B57
:10844000F6D10B35616901AA284600F0CFFC01285E
:10845000EED1E36A7BB1294602A801F0DCFD04F10C
:10846000240102A801F0AAFE824602A801F088FDBC
:10847000BAF1000FDCD0236829469B682046984754
:108480000028D5D0019AA36B9342B8BFA2632B46B4
:1084900049464046FEF78AFF2046FFF7A5FD04F156
:1084A000400001A9FFF70EFF2046FFF7A9FDBFE737
:1084B000384600F099FA012384F834309CE700BF75
:1084C000FFC70B0028E6032014C80B0030C80B00C0
:1084D00010B590F8343004460BB9FFF781FFA06B5C
:1084E0000130A06310BD000070B590F83430044630
:1084F0000E460BB9FFF774FF2046FFF775FDA36C1E
:10850000A26D9A4220D0D4E913021D6826B1043A24
:1085100093420CD00433A3642046FFF771FD25B1CC
:108520000A490B482A46FEF741FF284670BD4FF422
:108530000071FBF7B4FD636D1A1D62655B68E3644F
:1085400003F500722265E6E70025E5E746C80B0063
:1085500028E6032013B590F83430019104460BB996
:10856000FFF73EFF019BA26B9A42B8BFA363204670
:10857000FFF73AFD01A904F14000FFF7A3FE2046F2
:10858000FFF73EFD02B010BD38B50446FFF72CFDE5
:1085900004F1480104F15800FFF782FE0546204629
:1085A000FFF72EFD284638BD014B024A1A6070477E
:1085B00028E6032063C80B00014B024A1A6070478B
:1085C0002CE6032084C80B0008B5024B1B685B6CCB
:1085D000019308BD7402030008B5024B1B685B6879
:1085E000019308BD4802030008B5024B1B689B6855
:1085F000019308BD4802030008B5024B1B68DB6805
:10860000019308BD4802030008B5024B1B681B69B3
:10861000019308BD4802030008B5024B1B685B6963
:10862000019308BD4802030008B5024B1B68DB69D3
:10863000019308BD4802030008B5024B1B681B6A82
:10864000019308BD4802030008B5024B1B685B6A32
:10865000019308BD4802030008B5024B1B689B6AE2
:10866000019308BD4802030008B5024B1B68DB6A92
:10867000019308BD4802030008B5024B1B681B6B41
:10868000019308BD4802030008B5024B1B689B6BB1
:10869000019308BD4802030008B5024B1B681B6C20
:1086A000019308BD4802030008B5024B1B685B6CD0
:1086B000019308BD4802030008B5024B1B68DB6C40
:1086C000019308BD4802030008B5024B1B685B6DAF
:1086D000019308BD4802030008B5024B1B68DB6E1E
:1086E000019308BD4802030008B5024B1B681B6FCD
:1086F000019308BD4802030008B5024B1B685B6E7E
:10870000019308BD3402030008B5024B1B68DB6E01
:10871000019308BD3402030008B5024B1B685B6877
:10872000019308BD1802030008B5024B1B689B6843
:10873000019308BD1802030008B5024B1B68DB68F3
:10874000019308BD1802030008B5024B1B685B6962
:10875000019308BD1802030008B5024B1B689B6D0E
:10876000019308BD1802030008B5024B1B68DB6DBE
:10877000019308BD1802030008B5024B1B685B6E2D
:10878000019308BD1802030008B5024B1B689B6EDD
:10879000019308BD1802030008B5024B1B681B6853
:1087A000019308BD2C02030008B5024B1B685B68EF
:1087B000019308BD2C02030008B5024B1B689B689F
:1087C000019308BD2C02030008B5024B1B68DB684F
:1087D000019308BD2C02030008B5024B1B685B69BE
:1087E000019308BD2C02030008B5024B1B689B696E
:1087F000019308BD2C02030008B5024B1B68DB691E
:10880000019308BD2C02030008B5024B1B681B6BCB
:10881000019308BD2C02030008B5024B1B68DB68FE
:10882000019308BD2802030008B5024B1B689B6931
:10883000019308BD2802030008B5024B1B68DB69E1
:10884000019308BD2802030008B5024B1B681B6A90
:10885000019308BD2802030008B5024B1B685B6A40
:10886000019308BD2802030008B5024B1B689B6AF0
:10887000019308BD2802030008B5024B1B68DB6AA0
:10888000019308BD2802030008B5024B1B681B6B4F
:10889000019308BD2802030008B5024B1B685B6BFF
:1088A000019308BD2802030008B5024B1B681B6C2E
:1088B000019308BD2802030008B5024B1B689B6C9E
:1088C000019308BD2802030008B5024B1B68DB6C4E
:1088D000019308BD2802030008B5024B1B681B6DFD
:1088E000019308BD2802030008B5024B1B685B69B1
:1088F000019308BD6402030008B5024B1B689B6826
:10890000019308BD6802030008B5024B1B68DB68D1
:10891000019308BD6802030008B5024B1B68DB69C0
:10892000019308BD3002030008B5024B1B681B6AA7
:10893000019308BD3002030008B5024B1B681B6899
:10894000019308BD8402030008B5024B1B685B68F5
:10895000019308BD8402030008B5024B1B689B68A5
:10896000019308BD8402030008B5024B1B68DB6855
:10897000019308BD8402030008B5024B1B685B69C4
:10898000019308BD8402030008B5024B1B681B6AF3
:10899000019308BD8402030008B5024B1B685B6AA3
:1089A000019308BD8402030008B5024B1B689B6A53
:1089B000019308BD8402030008B5024B1B681B6BC2
:1089C000019308BD8402030008B5024B1B68DB6BF2
:1089D000019308BD8402030008B5024B1B681B6CA1
:1089E000019308BD8402030008B5024B1B685B6D50
:1089F000019308BD8402030008B5024B1B68DB68C5
:108A0000019308BD3C02030008B5024B1B681B69BB
:108A1000019308BD3C02030008B5024B1B685B696B
:108A2000019308BD3C02030008B5024B1B689B691B
:108A3000019308BD3C02030008B5024B1B68DB69CB
:108A4000019308BD3C02030008B5024B1B681B6A7A
:108A5000019308BD3C02030008B5024B1B689B6AEA
:108A6000019308BD3C02030008B5024B1B681B6C58
:108A7000019308BD3C02030008B5024B1B681B684C
:108A8000019308BD4C02030008B5024B1B681B692B
:108A9000019308BD4C02030008B5024B1B685B69DB
:108AA000019308BD4C02030008B5024B1B689B698B
:108AB000019308BD4C02030008B5024B1B68DB693B
:108AC000019308BD4C02030008B5024B1B681B6AEA
:108AD000019308BD4C02030008B5024B1B685B6B99
:108AE000019308BD6002030008B5024B1B681B6DB3
:108AF000019308BD6002030008B5024B1B685B6D63
:108B0000019308BD6002030008B5034B1B68D3F84E
:108B10009830019308BD00006002030008B5024BC5
:108B20001B681B68019308BD2002030008B5024BB7
:108B30001B685B68019308BD2002030008B5024B67
:108B40001B685B69019308BD2002030008B5024B56
:108B50001B681B6A019308BD2002030008B5024B85
:108B60001B68DB6A019308BD2002030008B5024BB5
:108B70001B689B6B019308BD2002030008B5024BE4
:108B80001B68DB6C019308BD2002030008B5024B93
:108B90001B685B6D019308BD2002030008B5024B02
:108BA0001B689B6D019308BD2002030008B5024BB2
:108BB0001B68DB6D019308BD2002030008B5034B61
:108BC0001B68D3F88830019308BD00002002030021
:108BD00008B5034B1B68D3F89430019308BD00001F
:108BE0002002030008B5034B1B68D3F8AC30019397
:108BF00008BD00002002030008B5034B1B68D3F832
:108C0000B030019308BD00002002030008B5024BFC
:108C10001B681B68019308BD4402030008B5024BA2
:108C20001B685B68019308BD4402030008B5024B52
:108C30001B689B68019308BD4402030008B5024B02
:108C40001B68DB68019308BD4402030008B5024BB2
:108C50001B685B69019308BD4402030008B5024B21
:108C60001B68DB69019308BD4402030008B5024B91
:108C70001B681B6A019308BD4402030008B5024B40
:108C80001B685B6A019308BD4402030008B5024BF0
:108C90001B68DB6A019308BD4402030008B5024B60
:108CA0001B681B6B019308BD4402030008B5024B0F
:108CB0001B685B6B019308BD4402030008B5024BBF
:108CC0001B689B6B019308BD4402030008B5024B6F
:108CD0001B68DB6B019308BD4402030008B5024B1F
:108CE0001B685B6C019308BD4402030008B5024B8E
:108CF0001B685B68019308BD4002030008B5024B86
:108D00001B689B68019308BD4002030008B5024B35
:108D10001B68DB68019308BD4002030008B5024BE5
:108D20001B681B69019308BD4002030008B5024B94
:108D30001B685B69019308BD4002030008B5024B44
:108D40001B689B69019308BD4002030008B5024BF4
:108D50001B68DB69019308BD4002030008B5024BA4
:108D60001B681B6A019308BD4002030008B5024B53
:108D70001B681B6B019308BD4002030008B5024B42
:108D80001B685B6B019308BD4002030008B5024BF2
:108D90001B681B6C019308BD4002030008B5024B21
:108DA0001B685B6C019308BD4002030008B5024BD1
:108DB0001B681B68019308BD1C02030008B5024B29
:108DC0001B685B68019308BD1C02030008B5024BD9
:108DD0001B689B68019308BD1C02030008B5024B89
:108DE0001B681B69019308BD1C02030008B5024BF8
:108DF0001B685B69019308BD1C02030008B5024BA8
:108E00001B68DB69019308BD1C02030008B5024B17
:108E10001B685B6A019308BD1C02030008B5024B86
:108E20001B68DB6A019308BD1C02030008B5024BF6
:108E30001B681B6B019308BD1C02030008B5024BA5
:108E40001B68DB6B019308BD1C02030008B5024BD5
:108E50001B681B6C019308BD1C02030008B5024B84
:108E60001B685B6C019308BD1C02030008B5024B34
:108E70001B689B6C019308BD1C02030008B5024BE4
:108E80001B68DB6C019308BD1C02030008B5024B94
:108E90001B681B6D019308BD1C02030008B5024B43
:108EA0001B685B6D019308BD1C0203008A4210B56C
:108EB00007D0441A0298C01A4443501A94FBF0F0A9
:108EC000184410BD0021FFF739BE10B58368044671
:108ED0000BB901F007FFC3689847A3681BB10322D1
:108EE00021462046984720461021BDE81040FBF758
:108EF000D6B80000024800230360FFF7D5BB00BFCF
:108F000030E60320002240681146FFF707BF002229
:108F100040681146FFF722BF002240681146FFF764
:108F20002DBF40680022FFF721BF4068002281F07A
:108F30000101FFF70BBF002340681A461946FFF7EF
:108F4000FDBE002240681146FFF7D8BE40680022EF
:108F50000221FFF7DBBE002340681A46FFF7C6BEBA
:108F600070B5134B03601825303386B00E4643604E
:108F70002A4600210446083002F032FC00227068C4
:108F80001146FFF7CBFE78B100212A46684602F071
:108F900027FC69460020ADF80050FFF715FB18B913
:108FA0006946204600F0B8F8204606B070BD00BF04
:108FB000D4C80B00084B10B52824224618460021BF
:108FC00002F00EFC054B04804FF0FF324260042299
:108FD0005A60034A1A6010BD3CE6032034E60320C1
:108FE00098C80B007047007B7047037B4BB1036947
:108FF000B3F1004F05D08069B0F1004018BF0120E7
:1090000070470020704703681B6A184770B50368F3
:109010000D461B69064698470221284600F090FF3E
:109020002C210446284600F0A1FE336804449B69C5
:10903000304698470221284600F082FF204470BD48
:10904000A0F10400FFF7E2BF10B520210446FBF7B2
:1090500026F8204610BD0000037B7BB14369002B3E
:109060000CDB07EE903A9FED077AF8EEE77A87EE91
:10907000870ADFED057A20EE270A7047BFEE000A67
:10908000704700BF00FF7F470000C842037B63B109
:109090000369B3F1004F08D007EE903A9FED047AD0
:1090A000F8EEE77A87EE870A70479FED020A70476D
:1090B0000000C84200000000037B7BB1C369002BA5
:1090C0000CDB07EE903A9FED077AF8EEE77A87EE31
:1090D000870ADFED057A20EE270A7047BFEE000A07
:1090E000704700BF00FF7F470000C842037B63B1A9
:1090F0008369B3F1004F08D007EE903A9FED047AF0
:10910000F8EEE77A87EE870A70479FED020A70470C
:109110000000C8420000000030B50D4600F1080410
:109120000FCD0FC495E8030084E80300012030BD93
:1091300070470020704710B510210446FAF7AFFFC2
:10914000204610BD08B5FFF7F6FF08BD30B5002278
:109150004FF69C74026084808D888C800C688580BA
:1091600004600A6030BD10B504460068FFF726FEB3
:10917000204610BD38B5C468F4B12378022B03D162
:1091800004F10C00FFF7EFFF656835B12846FBF7E7
:109190006EF910212846FAF782FFA56835B12846F6
:1091A000FBF765F910212846FAF779FF20461421CC
:1091B000BDE83840FAF773BF38BD10B588B0044633
:1091C000684600F028FF694604A800F064FF04A880
:1091D000A047044604A800F0D3FE684600F0D0FE85
:1091E000204608B010BD1FB50023CDE90201019251
:1091F00010241A4669461846ADF80230ADF8004012
:10920000FFF70CFD04B010BD1FB50C23ADF8043002
:1092100003688DF80630037A8DF8073043680293AF
:109220000021437AADF80D1001A88DF80F108DF8CC
:109230000C30FFF753FD05B05DF804FB1FB50C22A1
:10924000ADF8042002688DF80620027A8DF8072018
:10925000426802920023427A8DF80C20194601AA36
:109260000220ADF80D308DF80F30FFF727FD05B067
:109270005DF804FB0B6803604B68436013B15A68E8
:1092800001325A60704737B5044668460D46FFF70D
:10929000F1FF009B019A23606260002301A8019303
:1092A0000093FBF7C4FB35B1281DFBF7C0FB082179
:1092B0002846FAF7F4FE204603B030BD826810B5A8
:1092C0000AB901F00FFDBDE81040C368184708B5A2
:1092D000006800F11001FFF7F1FF08BD826810B5CA
:1092E0000AB901F0FFFCBDE81040C368184708B593
:1092F000006800F11001FFF7F1FF08BD38B5002349
:109300000446036010200D46FAF7C5FE28B101237C
:10931000C0E90133024B0360C5602060204638BDC0
:1093200010C90B0038B5002383608B6804460D46D6
:109330002BB102229847EB68E360AB68A36020463C
:1093400038BD0000F0B589B004686846FFF7FEFE3E
:109350004FF00203D4E84F2F002A03D1C4E8413F65
:109360000029F7D125D104F10C0569462846FFF7FD
:10937000EDFEBFF35B8F01236370002004F108034F
:10938000BFF35B8F53E8006F43E80002002AF9D176
:10939000BFF35B8F6EB1FFF7F1FB78B12946304622
:1093A000FFF78CFF3046FBF762F810213046FAF7E2
:1093B00076FE6846FFF7D7FE09B0F0BD314602A839
:1093C000FFF7B0FFE068B4F9105008B102F050FAAE
:1093D00006901020ADF81C50FAF75DFE0546E8B186
:1093E000002787601820FAF756FE044688B1014628
:1093F000876002A8FBF7C4FD049BA268A360059BDD
:10940000049206A9E268E36004F110000592FFF7F8
:109410009DFE084BEB60084B2C60AB6006A8FFF785
:10942000A2FE02A8FBF723F8002229460348FFF713
:10943000ADFBB7E7CF920B0051950B00CB8E0B0025
:109440002DE9F04F8BB005469DF850A00F46904691
:109450009946FFF7FBFB07AE834638BB4FF62E73EA
:10946000059005A93046ADF81830FFF76FFE1420BF
:10947000FAF711FE044648B1022303700123C0E944
:1094800001BB437031460C30FFF760FE2846214691
:1094900040F8044BFFF732FF3046FFF764FE05A8A3
:1094A000FFF761FE28460BB0BDE8F08F0C230024C7
:1094B0001420CDE908440793FAF7EDFD014618B1F1
:1094C000C0E901440470447004A80391FFF716FF3B
:1094D0001E4B08930820FAF7DEFD044610B103A9DD
:1094E000FFF7C8FE00965FFA8AF34A4641463846BF
:1094F0000994FFF7BBFBB8B9039B5B7803F0FF024D
:1095000093B94FF69C7305A903A80592ADF81830DE
:10951000FFF718FF05A8FFF726FE05A80999FFF732
:10952000B2FE06A8FBF783FA03A905A8FFF7A2FE7F
:10953000059B069A2B606A60002306A80693059394
:10954000FBF775FA04A8FBF772FAABE7CD950B00B1
:10955000012AF8B5054603D10B6803600020F8BD69
:10956000022A10D0032AF9D10468002CF6D004F1A5
:109570001000FFF7F8FD2046FAF779FF1821204682
:10958000FAF78DFDEAE718200E68FAF784FD044625
:1095900050B13146FFF7C6FE3069B6F9147008B114
:1095A00002F066F92061A7822C60D7E738B5002366
:1095B00083608B6804460D462BB102229847EB6806
:1095C000E360AB68A360204638BD0000F0B589B009
:1095D00004460D4601A81146FFF755FEA4B124B27A
:1095E0001DB1284602F044F9054601A803A90395D8
:1095F000ADF81040FFF7A6FE03A8FFF7B4FD02A8E0
:10960000FBF715FA09B0F0BD019D0123D5E84F2FF6
:10961000002A03D1C5E8413F0029F7D1EFD12B73D0
:10962000BFF35B8F6B702B1DBFF35B8F53E8006F35
:1096300043E80042002AF9D1BFF35B8F002EDED051
:109640002046FFF79BFA074660B105F10C01304652
:10965000FFF744FE3046FAF70AFF10213046FAF7CA
:109660001EFDCCE7314603A8FFF7A0FF2B7B8DF84A
:109670001C301020FAF70FFD0546D0B1876014208A
:10968000FAF709FD044678B18760014603A8FBF7A5
:1096900077FC059BA268A360069B0592E268E360E5
:1096A0009DF81C3006922374064BEB60064B2C6031
:1096B000AB6003A8FAF7DBFE002229460348FFF758
:1096C00065FAC7E7EF920B00D1960B00CB8E0B002B
:1096D000012A70B5044603D10B680360002070BDF9
:1096E000022A0CD0032AF9D10468002CF6D02046B7
:1096F000FAF7BDFE14212046FAF7D1FCEEE714205C
:109700000E68FAF7C8FC054620B13146FFF74EFF58
:10971000337C2B742560E1E7002240681146FFF797
:109720001DBB002240681146FFF728BB406800229D
:10973000FFF71CBB4068002281F00101FFF706BB68
:10974000002340681A461946FFF7F8BA002340681C
:109750001A461946FFF7EABA002240681146FFF799
:10976000DDBA002240681146FFF7C8BA40680022FF
:109770000221FFF7CBBA002340681A46FFF7B6BABA
:10978000024B03225A60024A1A60704764E60320C3
:109790002CC90B00006800F051B910B504460160F7
:1097A00002710AB1FFF7F6FF204610BD13B504465B
:1097B000019101F029FA019A01462046FFF7EDFFD9
:1097C000204602B010BD006800F041B92DE9FF410C
:1097D00004460D4617461E46FFF7DCFF36220023DF
:1097E000CDE9002320680A234FF001086946CDE93E
:1097F000028300F004F92068036829469B689847B3
:109800002068414600F013F9054640B16FF09F050E
:109810002046FFF7D8FF284604B0BDE8F0810223B8
:1098200020680193694600F0B7F80228EED120685D
:1098300003685B6998473870206803685B699847DC
:109840003070E5E713460A460C21FFF7BFBF2DE94C
:10985000FF4104461D460F461646FFF79BFF362282
:109860000023CDE9002320684FF001080A23694650
:10987000CDE9028300F0C3F82068036839469B688D
:1098800098472068036831469B68984720680368BA
:1098900029469B6898474146206800F0C8F8002890
:1098A00020460CBF00256FF09F05FFF78CFF284670
:1098B00004B0BDE8F08108B5402200230621FFF77F
:1098C000C6FF00EAE07008BD37B50546FFF762FF46
:1098D00000230DF107020DF1060128468DF8063030
:1098E0008DF80730FFF7AEFF041E0BDB9DF8073045
:1098F0009DF8062003F07F030C212846FFF7A7FF01
:1099000000EAE0742846FFF75EFF204603B030BD52
:109910007047F8B5064615460C468F18BC4206D06F
:10992000336814F8011B9B6830469847F6E72846D1
:10993000F8BD007C0022FEF787BF007C0021FEF707
:109940008BBF007C0021FEF78FBF007C0021FEF75B
:1099500093BF007C0021FEF797BF10B51421044689
:10996000FAF79DFB204610BD10B54FF47A730446FC
:1099700008460021C4E90113034B236020741146FB
:10998000FEF792FF204610BD68C90B000023007C43
:109990001A461946FEF740BF7FB500221423CDE9D1
:1099A0000122ADF804300B788DF808304B68039332
:1099B000CB680493007C0B7A059301A9FEF78CFF1A
:1099C00007B05DF804FB1FB5003B8DF800104FF0A9
:1099D0006401039118BF0123694601928DF8083094
:1099E000FFF7DAFF05B05DF804FB0123FFF7EBBFDB
:1099F000007C0022FEF718BFC9B2FFF7F9BF7FB5A0
:109A00000023CDE901334A6803921423CA68ADF8F4
:109A100004300B7804920A7A0592007C8DF80830A5
:109A200001AA1946FEF700FF07B05DF804FB007CB1
:109A30000022FEF701BF0121FFF7F9BF08B50021A1
:109A4000007CFEF739FFB0FA80F0400908BD08B588
:109A50000021007CFEF738FFB0FA80F0400908BD15
:109A6000004700002DE9FF4100241D460F469046A7
:109A70000646FEF7C1FEA5424FF00403ADF80D40C7
:109A80008DF80C308DF80F40A2BF9DF828308DF86E
:109A90000E3003AC0749009443463A463046A8BF0F
:109AA0008DF80D50FEF7A0FEB0FA80F0400904B02A
:109AB000BDE8F081619A0B00704710B5182104468B
:109AC000FAF7EDFA204610BDF0B5037D062B8DB0F8
:109AD0000E4600F104074FF0000412D000F1080513
