:02000002D0002C
:1040000000400D000CA70D00000006000D0005018A
:084010000401FD08000000009E
:04401800C4930D0040
:1040200009480A49884208B505D0094A824202D0A7
:10403000121A05F03FF80748074A0021121A05F046
:1040400061F8014808BD00BF34E20320A4A50D00BB
:1040500074E3032078E30320F1E7032070B5074EF3
:10406000074C04F0D5FAA41BA4080025A54200D1F2
:1040700070BD56F8043B98470135F7E7709D0D0079
:104080009C9D0D0000F01CBF08B500F057FDBDE879
:10409000084004F075BA02F0EDBF02F0EBBF02F089
:1040A000F1BF000008B5034A00210C2002F088FE91
:1040B000FEE700BFE16A0D000078B0FA80F0400929
:1040C0007047012303707047014B01221A7070473B
:1040D00024E5032010B503682F2B044604D9074AB2
:1040E00000210A2002F06CFE23681F2B83BF03F01F
:1040F0001F03034823604FF0A04010BDE16A0D008C
:104100000003005008B5044903F0C1FE18B1034B89
:1041100003221A70012008BD17940D00ACE403209F
:1041200010B5034B0360044601F07AFB204610BD36
:104130007C970D0010B50446FFF7F2FF20461021D2
:1041400004F04EFB204610BD10B5034B036004463F
:1041500002F058F9204610BD54970D0010B50446E2
:10416000FFF7F2FF2046382104F03AFB204610BD4D
:1041700010B50446006818B102F084FF00232360E4
:1041800010BD0023042202F0A5BE0000F8B5037D97
:1041900005460F4616468BB10368DB6883B19A88E3
:1041A000012A06D09B68F9E79B684BB19A88012ADF
:1041B000FAD12BB19A89BA42F6D19E732846F8BD3E
:1041C0000A49102004F00EFB044668B110220021B9
:1041D00004F098FF064B23600123A3802B69A360A2
:1041E000A781A6732C61E9E72875E7E7149C0D0009
:1041F0001000030070B5037D05460E46CBB1036881
:10420000DB6823B19A88042A17D09B68F9E70C4928
:10421000102004F0E7FA044668B11022002104F0EF
:1042200071FF084B23600423A3802B692C61C4E930
:104230000236284670BD2875FBE7DE60F9E700BF4F
:10424000149C0D001000030007B508220023ADF8F0
:1042500000204FF47A710122019241436A461846C8
:10426000ADF8023002F08EFE03B05DF804FB0000F2
:10427000F7B5324D324C2B78BFF35B8F060171B32B
:10428000D80709D42846FFF717FF28B102F058FCD9
:1042900020602846FFF715FF23689B5D5F012B78A0
:1042A000BFF35B8FD90709D42448FFF705FF28B176
:1042B00002F046FC20602148FFF703FF2068064417
:1042C00001A8737803F01F033B430193FFF702FF3C
:1042D000019A01239340C0F8083503B0F0BDDA0716
:1042E00009D42846FFF7E8FE28B102F029FC206037
:1042F0002846FFF7E6FE23689B5D5F012B78BFF33E
:104300005B8FDB0709D40D48FFF7D6FE28B102F01A
:1043100017FC20600948FFF7D4FE2068064401A876
:10432000737803F01F033B430193FFF7D3FE019A19
:1043300001239340C0F80C35CFE700BF78E303209A
:104340007CE3032037B504689DF818508DF80030E1
:104350008DF80450E4683C23A04703B030BD000052
:1043600010B50B7892B00C467BB9194902A804F03D
:10437000FFFE00238DF80030164B17491B781748B5
:1043800002AAFFF7DFFF12B010BD084604F07CFE62
:10439000C8280ED1124902A804F0EAFE03F0A1FFDA
:1043A000104B9861104B01221A70104B00221A70AA
:1043B000DFE7204604F068FEC928EBD0204604F071
:1043C00063FE0B4A0346402102A802F073FED0E7C9
:1043D00019940D009DE3032050940D0014E4032074
:1043E00021940D00B8E40320D4E40320D8E3032093
:1043F00033940D0037B51649054603F048FD0446D1
:1044000088B1144B144A1549154801245C720023E5
:104410008DF80030134B1B78FFF794FF124B2046AA
:104420001C7003B030BD1149284603F030FD002850
:10443000F7D0084B0E4A5C720A4B8DF800401B788F
:1044400006490748FFF77EFF074B01201870E8E791
:1044500017940D00B8E403205D940D0080940D00C6
:1044600014E403209DE30320D4E403206E940D00A4
:1044700070940D0037B51849054603F008FD044651
:10448000B8B1164B012258685A70FFF7DDFE02F0F2
:1044900041FD48B100238DF80030114B114A1B78C3
:1044A00011491248FFF74EFF114B0120187003B05D
:1044B00030BD1049284603F0EAFC0028F7D0074B2E
:1044C0005C7002F027FD0028EED0054B8DF800400F
:1044D0001B78094AE4E700BF17940D00B8E40320F5
:1044E0009DE3032085940D0080940D0014E40320C7
:1044F000D4E403206E940D009A940D0010B5C4B05E
:1045000000680A2203A904F0EDFEB0F5966F1AD8F0
:104510000E4C606002F0FEFC80B163680C4A4FF400
:10452000807104A802F0C6FD00238DF80030094B0D
:1045300009491B78094804AAFFF704FF084B01202A
:10454000187044B010BD0020FBE700BFB8E40320A2
:10455000AE940D009DE30320C7940D0014E40320E6
:10456000D4E4032007B502F0D5FC48B100238DF850
:1045700000300B4B0B4A1B780B490C48FFF7E2FE4F
:104580000B4A0C4878235360002301215372937225
:104590001C23118003B05DF804EB01F0FCB900BFEF
:1045A0009DE30320D2940D0080940D0014E40320B9
:1045B000B8E40320DCE30320084B5A68B2F5966F99
:1045C00084BF4FF416725A605A69FF2A84BF0022D2
:1045D0005A61034B01221A70704700BFB8E40320F0
:1045E000D4E4032008B501210520FFF741FE002196
:1045F0000520FFF73DFE024B00221A7008BD00BFE8
:1046000024E5032010B51C4CAEB0236AE0690C937E
:1046100004F054FACDE90A01A06904F04FFACDE99B
:104620000801606904F04AFAE36A0593CDE90601DE
:10463000A36A2069049304F041FACDE90201E0681D
:1046400004F03CFA0D4ACDE9000180210EA802F0E9
:1046500031FD00238DF80030094B0A491B780A48C8
:104660000EAAFFF76FFE094B01221A7002F040FA02
:10467000074B18602EB010BD70E40320EA940D00C3
:104680009DE3032075950D0014E40320D8E3032077
:1046900028E5032030B5114D114C12492A782078B5
:1046A0008DB01A2303FB0212009203FB00130E4A83
:1046B000282102A802F0FEFC2B78237002F02AFCCD
:1046C00048B100238DF80030084B09491B78094890
:1046D00002AAFFF737FE0DB030BD00BFACE40320E7
:1046E00012E4032038E2032088950D009DE30320A7
:1046F00096950D0014E403202DE9F84F1F48DFF8CC
:1047000088A0406800231A46194602F073FC02F0A4
:10471000F9FB4FF496744FF0000B40F2E7384FF07E
:104720000009002002F0F4F90546002002F0F0F93B
:10473000461B61EB0B07B94508BFB04505D302F036
:10474000E9FB10B902F0D6FBEFE702F0E3FB20B182
:1047500002F0E0FB60B9BDE8F88F02F0C9F9CAF8D1
:10476000000002F0C7FBFFF73DFF013CD9D1EFE7A6
:10477000034A01231372034A1370ECE748E5032050
:10478000B8E40320D4E403203CE7032037B52749ED
:10479000044603F07CFB40B32449204603F077FB3A
:1047A00058BB2349204603F072FB00283AD002F0A0
:1047B000B1FB204C18B9FFF79FFF0123237200259E
:1047C0001D4B8DF800501B781C4A1D491D48FFF7F2
:1047D000B9FD4FF47A7002F0B9FC1B4A1B4B11680B
:1047E0009288E57219609A801CE01149204603F016
:1047F0004EFB0028D0D103B030BD02F08BFB48B196
:1048000000238DF800300C4B114A1B780C490D48E1
:10481000FFF798FD074B0F490C480122DA72062278
:1048200004F0D3FC0C4B01201870E4E717940D0042
:104830006E940D00B8E403209DE30320BD950D00A8
:1048400080940D0014E40320CF950D00FCE30320B9
:10485000A9950D00B8950D00D4E4032008B502F029
:1048600059FB80F00100C0B208BD00002DE9F04303
:1048700085B0002401A8CDE90144ADF80C4002F058
:104880005FFD204602F044F943F6972805464FF0B5
:104890000009002002F03CF9461B61EB0407B94512
:1048A00008BFB04505D3FFF7D9FF10B902F022FBCE
:1048B000EFE7FFF7D3FF0A48002319461A4640687E
:1048C00002F0A0FB074B00221A72074B01244FF4A1
:1048D000FA601C7002F03AFC204605B0BDE8F08397
:1048E00048E50320B8E40320D4E4032030B585B0C4
:1048F0000D4600226946009202F07AFAB0B9009C97
:104900000CB1236923B90A4A00210A2002F058FA9F
:104910000023ADF806300C23ADF8043004230393D4
:104920000295236901AA01212046984705B030BDB0
:10493000E16A0D0030B50E4D0FCD89B001AC0FC44A
:1049400095E8070084E8070069460720FFF7CEFFD7
:104950000028A8BF0098074A08AB03EB800010218D
:1049600050F81C3C044802F0A5FB09B030BD00BF64
:1049700090970D0064980D009EE3032007B5032077
:1049800001A9FFF7B3FF40B9BDF8043000EE103ABB
:10499000BBEECC0A03B05DF804FBBFEE000AF9E7FA
:1049A00070B5544C544886B00025257002F02CF8A0
:1049B000B5EE400AF1EE10FA00F097804E4802F092
:1049C00023F810EE100A84ED030A04F077F84B4A3E
:1049D000CDE9000110214A4802F06CFB464802F084
:1049E00021F810EE100A84ED040A04F067F8454A35
:1049F000CDE900011021444802F05CFB434800F07F
:104A0000E3FD424884ED050A00F0FEFD3F4884EDD9
:104A1000060A00F07BFD07EE900AF8EE677A64263E
:104A20001320C4ED077A03F087FE2B4640F68A6216
:104A30002946009602F07EFBA062122003F07CFE65
:104A40002B4640F68A622946009602F073FBE0622C
:104A5000606904F033F82E4ACDE9000110212D4899
:104A600002F028FBA06904F029F82B4ACDE90001E7
:104A700010212A4802F01EFBE06904F01FF8284AC2
:104A8000CDE900011021274802F014FBFFF776FF63
:104A9000FDEEC07A244A2548C4ED087A17EE903A14
:104AA000102102F007FBFFF745FFFFF767FFFDEE60
:104AB000C07A1F4B17EE902A1D2AC3ED037A17DC2C
:104AC00001229A72DB7A4BB91A4902A803F085F9E0
:104AD00002A8FFF75BFE02A803F034F90125257058
:104AE00003F0FFFB144B60601D70284606B070BDDC
:104AF0009D72F3E770E40320A0E40320D5950D0038
:104B0000D5E40320DD950D00ECE30320E8E4032069
:104B1000E5950D0002E40320F1950D002CE503203E
:104B2000FF950D0080E303200B960D00AEE30320FC
:104B3000B8E4032017940D006CE4032070B59E4C7C
:104B40002378013B8AB0062B49D8DFE813F0C10077
:104B5000070029006A008F00E9006501974D6A7A15
:104B60002AB1974B1B78022B01D0FFF793FDEB7A0C
:104B700053B101F0BDFF934B1B68C01A924B1B68E9
:104B8000984284BF0623237003F0ABFB4FF4966377
:104B900090FBF3F202FB13030BBB032323701EE015
:104BA000864E727A2AB1864B1B78032B01D0FFF711
:104BB00071FDFFF7F5FE0546002830D10123237073
:104BC00001F096FF814B1860737A43B1804B8DF8EA
:104BD00000501B787F4A80498048FFF7B3FB80482C
:104BE00001F0B6FA7F4B1B780BB1FFF7FBFC7E4C54
:104BF00023783BB11C23714A7C48012100F0CBFE95
:104C0000002323707A4C23783BB13023794A7748CC
:104C1000A02100F0C0FE002323700AB070BD042361
:104C2000BCE7664D6A7A2AB1654B1B78042B01D02C
:104C3000FFF730FD2B7A0BB9FFF75EFD02F06AF942
:104C400068B103F05FFB0C2805D102F063F910B1E5
:104C5000002002F07FF9FFF7D5FC05239EE7012332
:104C6000237001F045FF594B1860B8E7534B5B7A4E
:104C70002BB1534B1B78052B01D0FFF70BFD5E4B7F
:104C80001B7843B9022323704F4B5C4A1A6001F032
:104C90002FFF4C4BE8E701F02BFF594B1B68C01A64
:104CA0004AF6C87398429AD901F022FF474D554AF7
:104CB000286000238DF80030454B53491B78474846
:104CC000FFF740FB0123237001F012FF286086E705
:104CD0003A4B5B7A2BB13A4B1B78012B01D0FFF793
:104CE000D9FC01F005FF394B1B6803F5922303F54E
:104CF00078738342BFF473AF02F00CF948B100231C
:104D00008DF80030324B414A1B7833493348FFF766
:104D100019FB4FF4FA6002F019FA03F00FF95EE79D
:104D2000264D6A7A2AB1264B1B78062B01D0FFF755
:104D3000B1FC2B7A0BB1FFF799FD234B4FF47A723C
:104D40001A6003F0CEFA4FF4966590FBF5F303FB7F
:104D500015052F4BC5F596651A7DB5F5966FA8BF5D
:104D60004FF496650AB102221A72002204212848E3
:104D7000FFF70CFA4FF47A716943FFF73BFA2449C5
:104D800003A803F0DFF8039B7BB19A88012A0CD1BA
:104D90009B89042B09D11F4906A803F01EF806A819
:104DA000FFF7F4FC06A802F0CDFF032303A823704D
:104DB000FFF7DEF913E700BFACE40320B8E40320FB
:104DC00012E40320B4E40320B0E403204CE4032005
:104DD0009DE3032011960D002B960D0014E4032093
:104DE00050E4032024E50320D4E40320DCE3032083
:104DF0006CE4032070E40320D8E30320905F0100FB
:104E000028E50320349C0D0031960D004A960D00D4
:104E1000C0E303206E940D00254D6A7A2AB1254B1C
:104E20001B78072B01D0FFF735FC2B7A0BB1FFF76E
:104E30001DFDFFF7D7FB03F054FA4FF4966590FB86
:104E4000F5F303FB15051C4BC5F596651A7DB5F505
:104E5000966FA8BF4FF496650AB102221A7200221B
:104E600004211548FFF792F94FF47A716943FFF76F
:104E7000C1F9114906A803F065F806A8FFF778F90B
:104E80000D4903A803F05EF8039B7BB19A88012AC1
:104E90000CD19B89042B09D1084906A802F09DFF7B
:104EA00006A8FFF773FC06A802F04CFF02237DE77B
:104EB000B8E4032012E40320C0E303206E940D0045
:104EC000F0B500219BB0082003F012FC0121052061
:104ED00003F00EFC0021042003F00AFC0021132043
:104EE00003F006FCFFF77EFB0023009301224FF046
:104EF000FF339549082002F077FD944B0AAA03F18D
:104F00001005164618685968144603C40833AB42A6
:104F10002246F7D119889B78A3702D2221800DF1AC
:104F20003B0000218A4C04F0EDF8022702A827700C
:104F300001F0F8FF02A906A8002502F071FF8549DB
:104F400006A802F08FFFCDE900552A468249006885
:104F50002B4601F0F7FF06A802F0F4FE02A802F0CB
:104F6000F1FE7E4B7E481968FFF70BF97D497E48BC
:104F7000FFF707F97D497E48FFF703F97D497E4831
:104F8000FFF7FFF87D497E48FFF7FBF87D497E4833
:104F9000FFF7F7F87D497E48FFF7F3F87D497E4833
:104FA000FFF7EFF87D497E482B463A4601F092FF25
:104FB0002B4601227B497C4801F08CFF7B497C48D1
:104FC000FFF7DFF87B4A7C497C4802F0A8F97C4A6D
:104FD0007C497A4802F0A3F97B4A7C49774802F081
:104FE0009EF9714A7A49754802F099F9794A7A49E5
:104FF000724802F094F9794800F0A4FF29467748F6
:1050000001F0DDF87648442101F069FC48B97549A2
:10501000304604F0ADF80123237001F069FD724BB6
:10502000186003F0B9FB0146704800F010FB60B94E
:1050300001F05EFD6C4D6E492860304604F098F832
:105040000123237001F054FD28606848002100F01E
:1050500077FA66480C2100F06AFA0121634800F0F3
:1050600060FA644800F00AFC0123624802AA0021A9
:1050700000F046FC9DF80830052B2BD05D4800F071
:1050800007FC5D4A5B480423002100F084FC0123F7
:10509000584802AA002100F033FC9DF80830052B87
:1050A00015D001232370554DFFF786FAFFF724FB37
:1050B000EB7AB3B152493D48062204F086F86B788A
:1050C000DBB101F027FF98B901F014FFF9E7FFF712
:1050D00049FAE8E7494A47481C23012100F010FC3F
:1050E000E1E7484A314B1168928819609A80E6E7F7
:1050F00001F010FF6868FFF7A7F8042003F009FB30
:1051000008B9FFF72FFAFFF74BFCAB7A4BB13E49DA
:1051100006A802F062FE06A8FFF738FB06A802F018
:1051200011FE6B7A4BB100238DF80030374B3849B4
:105130001B7838483246FFF705F923780BB902236C
:1051400023701BB0F0BD00BFC9400D00AC970D002F
:10515000ACE403205E960D0061430D0034E20320B1
:1051600081960D00D5E4032089960D00ECE3032021
:1051700095960D0002E403209E960D002CE5032079
:10518000A2960D0080E30320A8960D00AEE3032055
:10519000B0960D009EE30320B8960D00BCE40320FA
:1051A000C7960D00B9E403208C940D00FCE30320A6
:1051B000D6960D00E3960D0005410D00F3720D002B
:1051C000EF960D00F5430D00C7940D00FD440D0052
:1051D00075440D00FC960D008D470D0050E4032032
:1051E000A0E403200A970D004CE40320E8E4032028
:1051F00027970D00DCE30320EC970D00B8E40320B3
:10520000B8950D00CF950D0017940D009DE3032078
:1052100043970D0014E4032038B5234B234A01259E
:105220001D70234B02201870224B00241C609C80B0
:105230009C719A6001F0EEFD2146284601F0FAFDCE
:105240002946042001F034FC1B4B1C48A3F80940FC
:105250001A46191D42F8091B9470194A1D75C3E9B5
:1052600003445A601C7200F050F91648164D01F0C4
:1052700013FB03F091FA4FF40052014623462846EF
:1052800000F0F2FA114B2B6003F086FA104C014645
:10529000104800F05FFD10494FF40062204601F015
:1052A000D9F90E4B236038BD9DE303200000FFFFBA
:1052B0009CE3032090E30320C0E30320E8E4032001
:1052C00010000300A0E40320DCE303207C970D0022
:1052D00014E4032050E4032000F4032054970D004D
:1052E0004260002201700272704710B5037A0446D2
:1052F00053B12178606802F055FB606802F05DFBF5
:10530000B0FA80F0400910BD00F003F80028F0D199
:10531000F9E710B50446406802F012FB012323723E
:105320002046BDE81040FFF7E0BF2DE9F843DDE976
:1053300008961F469319202B04468846154602D925
:105340000020BDE8F8830178406802F02BFB7EB9AD
:10535000606803682A46DB68414698478542EFD17A
:105360006068394602F025FBB0FA80F04009E8E7B2
:10537000B9F1000FECD0606803683246DB6849463B
:105380009847B042DCD1E3E7202A70B506460C46C8
:1053900015460FD80178406802F0EFFAA84209D10B
:1053A0002518A54208D0706803685B69984704F81F
:1053B000010BF6E7002070BD0120FCE773B51D4628
:1053C0000023CDE900339DF81C30069E0446FFF70C
:1053D000ACFF40B1012332462946204602B0BDE869
:1053E0007040FFF7D1BF02B070BD10B50160828080
:1053F0009DF80C109DF80820C1710272837110BDD8
:105400001FB58388ADF80C30C379019303AB0093CB
:1054100000680123FFF789FF05B05DF804FBF0B4D5
:105420000C4602B98279042A13D800F109058318C1
:105430002946834209D0077AE6B227B92E70240A9A
:105440000135013BF5E71E72F9E7F0BC1846FFF79E
:10545000D7BF0020F0BC704713B504460B468188C7
:1054600004F8091F0021CDE900210122214600682E
:10547000FFF7A4FF02B010BD38B500F1090582792D
:1054800029460446FFF7E8FF78B1A279294622446D
:105490000020A2420BD00302207A20B9107A1843D0
:1054A000013A0131F5E70878F9E74FF0FF3038BDF0
:1054B00010B501600271437110BD10B5044600685B
:1054C000FFF7DAFF23795A1C012393406279013BED
:1054D000D040184010BD70B5044600680E46FFF776
:1054E000CBFF2379012201339A40531E627903FADC
:1054F00002F520EA050503EA0601206891402943E8
:105500008279BDE87040FFF78ABF704708B54068F0
:10551000FFF7B2FF80B208BDC06981F00101FFF75B
:10552000DABF006AFFF7D7BF406AFFF7D4BF806ACF
:10553000FFF7D1BF08B5806AFFF7BFFFC0B208BD53
:10554000C06AFFF7C8BF08B5C06AFFF7B6FFC0B2B0
:1055500008BD10B52DED028B0446B0EE408AFFF772
:10556000F2FF022818D0032813D0012803D1F6EE49
:10557000007A28EE278A2046FFF7DCFF01380B2847
:1055800014D8DFE800F0181B1E13131313111313A4
:10559000130CF1EE007AECE7F2EE007AE9E7F1EEB7
:1055A000007A28EE278A01E038EE088AB0EE480A31
:1055B000BDEC028B10BDF6EE007AF2E7F5EE007A54
:1055C000EFE7F4EE007AECE710B504464068FFF729
:1055D00053FF07EE900A2046B8EE670AFFF7B9FFBF
:1055E00010EE100A03F06AFA05A3D3E9002303F0D2
:1055F000BDFA03F0CDFC00EE100A10BDAFF3008041
:1056000092CB7F48BF7DAD3F10B504468068FFF761
:1056100033FF07EE900A2046B8EE670AFFF799FFBE
:1056200010EE100A03F04AFA05A3D3E9002303F0B1
:105630009DFA03F0ADFC00EE100A10BDAFF3008040
:1056400092CB7F48BF7DAD3F006BFFF744BF7FB576
:1056500004460C200391FEF71EFD054618B1039A7F
:105660001021FFF73DFEA5632846FFF752FE0546D1
:10567000002800F0D2801020FEF70DFD064638B15C
:1056800001230022CDE90023A16B0223FFF7ADFE29
:1056900026601020FEF7FFFC064638B100230122E9
:1056A000CDE90032A16B0223FFF79FFEE6601020D8
:1056B000FEF7F1FC064640B100230122CDE900329D
:1056C0000223A16B1A46FFF790FE26611020FEF719
:1056D000E2FC064648B100234FF0010ECDE9003E42
:1056E000A16B02230322FFF780FE66611020FEF704
:1056F000D2FC064648B100234FF0010CCDE9003C36
:10570000A16B02230422FFF770FE66601020FEF7F3
:10571000C2FC064640B100230121CDE9003105223B
:10572000A16B0223FFF761FEA6601020FEF7B3FC19
:10573000064640B100230122CDE90032A16B0223CD
:105740000622FFF752FEA6610820FEF7A4FC0646DB
:1057500020B1216800230122FFF7AAFEE66108209C
:10576000FEF799FC064620B1012321681A46FFF78F
:105770009FFE26620820FEF78EFC064620B12168B7
:1057800004230222FFF794FE66620820FEF783FCE2
:10579000064620B1216806230422FFF789FEA6628F
:1057A0000820FEF778FC064620B121680B23022270
:1057B000FFF77EFEE6620820FEF76DFC064620B18C
:1057C000616900230122FFF773FE26630820FEF7BC
:1057D00062FC064620B1616901230222FFF768FEE0
:1057E000002120466663FFF797FE00212046FFF761
:1057F00098FE00212046FFF797FE00212046FFF784
:105800009FFE00212046FFF792FE00212046FFF771
:105810001BFF01212046FFF77FFE284604B070BD24
:10582000704710B51021044602F0DAFF204610BD83
:105830000368C9B29B6818470EB410B58DB00FAAA3
:10584000016852F8044B039200232020CDE90403A1
:10585000CDE900421E2004AA01F0C2FA0DB0BDE855
:10586000104003B07047000030B5034DC0E902237B
:10587000C0E9005130BD00BF24980D00406802F01F
:105880005FB810B50446006802F0A3F8204610BDCA
:105890002DE9F0418AB004464068019002F090F88A
:1058A0001E22002102A8A76803F02CFC0026EFB1FD
:1058B00023681E2FB84628BF4FF01E08DD6802AAD5
:1058C000434631462046A847054658B90A480B4981
:1058D0003246FFF7B1FF01A8FFF7D3FF28460AB011
:1058E000BDE8F081A7EB08074644E0E701A8FFF711
:1058F000C8FF0125F2E700BF80E50320F0970D0007
:105900002DE9F7430446406801900D4616461F46B0
:1059100002F056F8A7B1E168606841F0500102F06A
:1059200045F8290A6068FFF783FF29466068FFF79A
:105930007FFF6068002102F03CF848B1002400E0DD
:10594000012401A8FFF79DFF204603B0BDE8F083C6
:10595000202F217B6068B84628BF4FF02008012324
:10596000424641F0500102F008F802F015FF0368CA
:105970001B6998474045E1DB06EB080902F00CFF84
:1059800003685B69984706F8010B4E45F6D145441C
:10599000A7EB0807BEE72DE9F74F044640680190E2
:1059A0000E4690461D4602F00BF84FF00109B9F182
:1059B000000F2AD04DB3E168606841F0500101F05A
:1059C000F5FF310A6068FFF733FF60683146FFF783
:1059D0002FFFA5F11E0A4746A6EB080B606817F8D3
:1059E000011B0368013D9B68984755450BEB070673
:1059F000B84601D0002DF1D16068012101F0D9FF36
:105A00000028D7D04FF00009D1E701A8FFF739FFF0
:105A1000484603B0BDE8F08F2DE9F0438BB00E4649
:105A200015468046406801901C4601F0C9FFAE4211
:105A300029D2264425448CB11E2C2746D8F80030A4
:105A400028BF1E27F61BD3F8089002AA3B46314612
:105A50004046ED1BC84748B9002400E0012401A8D6
:105A6000FFF70FFF20460BB0BDE8F083D8F80030F9
:105A700002AAD3F80C9029463B464046C847002866
:105A8000EAD0E41BD7E7E9D9002CE7D0D8F80030FA
:105A90001E2C274628BF1E27D3F8089002AA3B4693
:105AA00031464046C8470028D6D0D8F8003002AA70
:105AB000D3F80C9029463B464046C8470028CBD037
:105AC0003E443D44E41BDFE7402070470020704720
:105AD00080207047FF2070477047704770477047BD
:105AE00010B51421044602F07BFE204610BD10B50F
:105AF0000821044602F074FE204610BD10B50821AE
:105B0000044602F06DFE204610BD10B51C2104466F
:105B100002F066FE204610BD2DE9FF410368DB68F8
:105B20000446984710220146684603F0EBFA2368C2
:105B300020469B689847002507462846BD420ED25E
:105B40007E1B2368102E28BF1026D3F818806A46C3
:105B5000334629462046C04708B13544EEE704B035
:105B6000BDE8F0814FF48073438140F20113C360BC
:105B7000002303827047000008B5064B0360064B04
:105B8000436040F20473038100234374FFF7EAFF8C
:105B900008BD00BF04990D000001020303090A2299
:105BA00000F00F0002FB0300704708B5807AFFF792
:105BB000F5FF00F5FA6008BDC07A00F01F00FFF79E
:105BC000EDBF007B00F03F00FFF7E8BF08B5817B29
:105BD0004A060DD501F01F00FFF7E0FF8B0603D545
:105BE0000C2800D00C3008BD0C2808BF0020FAE7B4
:105BF000BDE8084001F03F00FFF7D0BFC07B00F0D8
:105C00007F00FFF7CBBF007C00F07F00FFF7C6BF2F
:105C100010B58AB024220446002101A803F072FACC
:105C20002046FFF7C2FFA0F26C7006902046FFF7F7
:105C3000C3FF013805902046FFF7C3FF04902046BC
:105C4000FFF7C4FF03902046FFF7D8FF02902046DD
:105C5000FFF7D9FF019001A801F064FA0AB010BD66
:105C60000A2190FBF1F292FBF1F301FB13231B01DC
:105C7000DBB201FB12001843C0B27047642310B5B9
:105C8000044691FBF3F000FB1310FFF7E9FFA0724D
:105C900010BD10B504460846FFF7E2FFE07210BDE4
:105CA00010B504460846FFF7DBFF237B23F03F03D4
:105CB0001843207310BD10B50446481CFFF7D0FFF1
:105CC000637B23F007031843607310BD10B50446CF
:105CD0000846FFF7C5FFA07310BD10B5044608467F
:105CE000FFF7BEFFE07310BD10B504460846FFF78E
:105CF000B7FF237C23F07F031843207410BD37B512
:105D000004466846CDE9002303F0C2F9054641691F
:105D10002046FFF7B3FF296920460131FFF7B9FF9D
:105D2000E9682046FFF7BCFFA9692046FFF7C3FFDB
:105D3000A9682046FFF7CAFF69682046FFF7CDFF34
:105D400029683B29A8BF3B212046FFF7CDFF03B0C0
:105D500030BD0000054A0061C0E90021044A8260AC
:105D6000044AC260044A80614261704738990D005C
:105D700000000103E0980D0014990D002DE9F84F83
:105D800004460F469046994600260A9B9E4231D211
:105D90006068394601F006FE08EB06016068FFF70F
:105DA00047FD6068002101F004FE0546D0B90A9B5A
:105DB00060689A1B202A4FF0010328BF2022394631
:105DC00001F0DBFD09EB060B05460BEB000ADA459B
:105DD00006D0606803685B6998470BF8010BF6E72B
:105DE0002E44D2E7024604490448FFF725FD284621
:105DF000BDE8F88F0025FAE738980D003CE5032050
:105E00002DE9F34101EB03081E4603689B68054634
:105E10000C461746984780450DD820346868009690
:105E20003B46E2B26F21FFF7A9FFB0FA80F04009CC
:105E300002B0BDE8F0810020FAE72DE9F34101EB63
:105E400003081E4603689B6804460D46174698479C
:105E500080450CD8606800963B46EAB25721FFF7B0
:105E60008DFFB0FA80F0400902B0BDE8F08100205B
:105E7000FAE77FB51E1E0CBF0723062300931446C6
:105E800002AB0A466F21FFF779FF0546A8B99DF8D6
:105E9000083023749DF80930E3739DF80A30A3732A
:105EA0009DF80B3063739DF80C3023739DF80D3013
:105EB000E3722EB99DF80E30A372284604B070BD6F
:105EC00002F02CFAFFF7CCFEA072F6E71FB5012313
:105ED0000A4600936F2103ABFFF750FF20B99DF8EE
:105EE0000C0005B05DF804FB0020FAE708B50321BB
:105EF000FFF7ECFFC0F3401008BD38B500230C4697
:105F00000A4619460546FFF7B4FF30B9A37A23B114
:105F10002846BDE83840FFF7E9BF002038BD7FB50F
:105F2000024601A8FFF728FE01A91046FFF7E5FF8A
:105F300028B101A8FFF76CFE07B05DF804FB002054
:105F40000146F9E7D0B5044686B0406801F0F8FC98
:105F500002F0AAF9E8B9E37A9B071AD52046FFF7C1
:105F6000DEFF06460F4656EA070312D002F0A3F8FA
:105F70000A4B0B491B68009332463B4602A802F0CD
:105F800051F90848029A0849FFF756FC02A801F0A7
:105F9000D9FE0123237206B0D0BD00BF08E3032061
:105FA000ACE503203CE5032052980D002DE9F84FA5
:105FB0000646884691469A4600250A9B9D4229D26C
:105FC0007068414601F0EEFC706809EB0501FFF7CF
:105FD0002FFC0A9B5F1B1F2F28BF1F270AEB0504FE
:105FE00007EB040B706814F8011B02689268904775
:105FF000A345F7D17068012101F0DBFC044638B1FC
:10600000024605490548FFF717FC2046BDE8F88F12
:106010003D44D2E70024F8E767980D003CE50320F3
:106020002DE9F34101EB03081E4603689B68054612
:106030000C461746984780450DD82034686800966E
:106040003B46E2B26F21FFF7B1FFB0FA80F04009A2
:1060500002B0BDE8F0810020FAE71FB5137C8DF88F
:106060000830D37B8DF80930937B8DF80A30537B51
:106070008DF80B30137B8DF80C30D37A8DF80D3002
:10608000937A8DF80E30072300930A4602AB6F21F6
:10609000FFF78CFF05B05DF804FB10B588B004462F
:1060A00003A80193FFF768FD019B03A8FFF727FEF4
:1060B0009DF81C30A27A63F07F038DF81C309DF8A8
:1060C00019306AB143F0080303AA002120468DF875
:1060D0001930FFF7C2FFB0FA80F0400908B010BDD8
:1060E00003F0F703F0E70000F0B587B0054602F0D3
:1060F000DBF80446E8B102F0F4F8C717024606469A
:106100003B462846FFF7C9FF0C4B0D491B6800931F
:1061100032463B46044602A802F084F80948029A37
:106120000949FFF789FB02A801F00CFE204607B0E1
:10613000F0BD06490348FFF77FFBF7E708E30320BC
:10614000ACE503203CE5032082980D0098980D00F3
:1061500037B5457A04469DB902F0A6F880B1002211
:10616000002369462846CDE9002300F003FF38B13B
:10617000E37ADB0702D52046FFF7B6FF01236372FF
:1061800003B030BD1FB501238DF80C2000930A46E3
:1061900003AB6F21FFF70AFF05B05DF804FBF8B50C
:1061A00004460D4617461E46FFF790FE00EA07021A
:1061B000324329462046BDE8F840FFF7E3BF0129F6
:1061C00008B50CD800294FF0000314BFDF22EF22DE
:1061D0000721FFF7E4FFB0FA80F0400908BD002076
:1061E000FCE738B5044632256068572101F0DAFB38
:1061F0006068012101F0DDFB08B1013DF4D138BD3B
:106200002DE9F04104460F46164602EB0308B0455F
:1062100020D06068572101F0C5FB39466068FFF760
:1062200007FB606816F8011B03689B689847606865
:10623000012101F0BEFB0137054638B1024606498F
:106240000648FFF7F9FA2846BDE8F0812046FFF737
:10625000C8FFDCE70025F6E7AD980D003CE503201C
:10626000F7B5CF181E46036801929B6804460D4699
:10627000984787420AD8019A60683346E9B2FFF727
:10628000BFFFB0FA80F0400903B0F0BD0020FBE78B
:10629000014B024A1A6070473CE50320CE980D007E
:1062A000012A034602D1016000207047022A04BF80
:1062B000D1E90001C3E90001F6E710B50123037439
:1062C0008368044643B1C068984701236374002083
:1062D000BDE8104000F0E4BB00680028F5D08368FA
:1062E0000BB902F083FAC368EEE710B442680346C4
:1062F000541001EB6200D20748BF0A591B685DF8D1
:10630000044B48BFD358184710B58368044613B1EF
:10631000032201469847204610BD00000123F7B52F
:1063200080F829300646083000F09AFB0420FDF77B
:10633000B2FE054698B31B49142002F053FA30B15F
:106340000023C0E90033C0E90233037443742860BA
:10635000A0B1154B1549C0E902364FF40063CDE9F1
:1063600000030222124B043000F06AFB30B92B68A4
:106370001B7CA3B9012000F0ABFBF8E72C680023DD
:106380002B6064B1276837B13846FFF7BDFF102195
:10639000384602F025FA1421204602F021FA7560F1
:1063A00003B0F0BD149C0D00BB650D0040990D00BD
:1063B000BB620D0047F23051084AC16008490260D3
:1063C0000022C0E904120749C16107494260C0E9DF
:1063D00008228161028580F82A207047049A0D0006
:1063E00025670D00EB620D00A1620D0010B5044B96
:1063F000044640F8103BFFF787FF204610BD00BF62
:10640000049A0D0010B5034B03600446FFF7EEFF3E
:10641000204610BD2C9A0D0010B50446FFF7F2FF80
:106420002046382102F0DCF9204610BD806800F0DB
:106430001FBB806800F024BB10B504460068FFF75E
:10644000F8FF204610BD13B504460190FFF7EEFF9C
:10645000E36ADC88A4B20CB103F1080401A8FFF7D9
:10646000EBFF204602B010BD13B504460190FFF7C4
:10647000DDFF94F8283043B9E26A0124D38001A8F3
:10648000FFF7DAFF204602B010BD0024F7E713B58E
:1064900004460190FFF7CAFFE36A01A8DC88FFF712
:1064A000CBFF204602B010BD2DE9F047994686B0DB
:1064B00090F829309DF838A09DF83C8004460F469E
:1064C000164613B903689B689847314B3846002E2F
:1064D00008BF1E4602F071FE0546304602F06DFE12
:1064E000284400F10A05AB071CBF25F0030504355D
:1064F0003346CDE90285CDE9009A264926483A4639
:10650000FFF79AF9238E083BAB4212D200242046B3
:1065100006B0BDE8F087CB88012B36D005A8FFF781
:106520008BFF236894F828109B6920469847002821
:10653000ECD020460594FFF779FFE16A228E636B69
:106540000A44D21AAA42E6D348EA0A0883F8048029
:10655000C3F80090636B03F108083946404602F027
:1065600007FE404602F029FE01303146404402F069
:10657000FFFD636BE26A1D446563D3880133D380FA
:10658000012405A8FFF758FFC1E70024F9E700BF81
:10659000349C0D0052990D0040E5032008B50446D7
:1065A00000F11005A3690BB902F020F9E369214657
:1065B0002846984700F04CFAF4E708B5FFF7EEFFDD
:1065C00068B501F108050646284602F0F6FD0130DF
:1065D0000544284602F0F1FDF36A01302844C31A4D
:1065E00013F003031CBFC3F10403C01868BDF7B563
:1065F00004460E460190FFF719FFE76AFB8807F192
:106600000805E6B1012B22D929462046FFF7D8FF1D
:10661000054629462046FFF7D3FF228E3A44121A38
:106620000146A0EB050602D0284602F051FD636B3F
:106630009B1B6363FB88013BFB80012601E0002B71
:10664000E7D101A8FFF7F8FE304603B0F0BD002601
:10665000F7E700002DE9F0470D4604462F461646A1
:10666000FFF7A8FE154B57F8082B2360144BE56283
:106670009A422686984617D1AB889BB2B34213D173
:1066800005EB060A67634FF00009EB881FFA89F2F1
:106690009BB29A420ED2616B2046FFF791FF5045A4
:1066A000606309F10109F0D90023C5F80080676330
:1066B000AE80EB802046BDE8F08700BF2C9A0D002D
:1066C00061AB9CD110B5D1E9002386B0002104460E
:1066D00004910AB9D90705D5CDE902230F4B0593DB
:1066E0000F4B049302AB93E803006A4682E8030071
:1066F00094E8030083E8030092E80300049A84E826
:106700000300A168A260059A04911846E168E2605E
:106710000591FFF7F9FD204606B010BDEB620D00B4
:10672000A1620D0007B5054B0093694600231030A8
:106730000193FFF7C7FF03B05DF804FB6D670D0021
:1067400013B5044600F0D4F9636AC01AE3689842AE
:1067500008D3054B00936946002304F11000019310
:10676000FFF7B0FF02B010BD6D670D002DE9F041DD
:1067700090F82A3086B00446002B64D100F0CAFBA2
:10678000002860D000F0B4F9636AC01A40F2F13317
:10679000984258D9236820465B69984705460028E7
:1067A00051D000F10807012384F82830384602F060
:1067B00004FD95F80480CDF8048001302B682B4946
:1067C00000933E1833462A483A46FFF735F82B68BF
:1067D0008DF800803246394602A800F0BFFE029DC7
:1067E0006B781BB9012000F0B1FCF8E7002000F045
:1067F00029FB20B16B7813B900F07CFBFAE72B780A
:10680000012B23D11B491A48FFF716F823680021F2
:106810009B6920469847002384F8283000F068F9E7
:106820006062039C7CB16368013B63605BB9236871
:1068300020469B689847A368013BA3601BB9236867
:106840002046DB68984706B0BDE8F081E2680A4957
:106850000748FEF7F1FF094B049304A9002304F154
:1068600010000593FFF72EFFD5E700BF93990D00A9
:1068700040E50320B4990D00CB990D0041670D0050
:10688000014B024A1A60704740E50320F2990D005F
:106890000368C9B29B681847704738B505460C466F
:1068A00001F07AFF297801F07DF801F075FF210AE7
:1068B000FFF7EEFF01F070FFE1B2FFF7E9FF01F033
:1068C0006BFFBDE8384001F078B808B543F2A2018B
:1068D000FFF7E3FFBDE808400A2000F037BC38B5F9
:1068E00004460D4601F058FF01F02AF820462570B5
:1068F000FFF7EBFF012038BD0A44FF2091420ED084
:1069000011F8013B5840082310F0800F4FEA400077
:1069100018BF80F03100013BC0B2F5D1EEE77047FF
:1069200073B54FF410510546FFF7B7FF4FF4FA70F7
:1069300000F00CFC01F030FF2978062201F02FF85E
:1069400001F02AFF03681B69984706284BD16E4661
:10695000044601F021FF03685B699847013C14F08D
:10696000FF0406F8010B6946F3D102222846FFF71F
:10697000C3FF9DF80260864235D102220DF103016A
:106980002846FFF7B9FF9DF8056086422BD1BDF878
:106990000000BDF8034040BA80B202F06DF818A3C1
:1069A000D3E9002302F0E2F811A3D3E9002302F0B7
:1069B00007FA114B002201F021FF02F0E9FAA8606A
:1069C00060BA80B202F058F80C4B002202F0CEF808
:1069D00007A3D3E9002302F0F3F902F0D9FA6860C3
:1069E000012002B070BD0020FBE700BFAFF30080C4
:1069F00000000000E0FFEF400080464000005940EA
:106A00000000000000E0654010B50446FFF788FF75
:106A100010B194ED020A10BD9FED010AFBE700BF23
:106A20000000C07F10B50446FFF77AFF10B194ED67
:106A3000010A10BD9FED010AFBE700BF0000C07F07
:106A400008B5024B1B685B68019308BD4802030050
:106A500008B5024B1B68DB68019308BD48020300C0
:106A600008B5024B1B681B6B019308BD480203006D
:106A700008B5024B1B689B6B019308BD48020300DD
:106A800008B5024B1B681B6C019308BD480203004C
:106A900008B5024B1B685B6C019308BD48020300FC
:106AA00008B5024B1B68DB6E019308BD480203006A
:106AB00008B5024B1B685B6E019308BD34020300EE
:106AC00008B5024B1B685B68019308BD1802030000
:106AD00008B5024B1B689B68019308BD18020300B0
:106AE00008B5024B1B68DB68019308BD1802030060
:106AF00008B5024B1B685B69019308BD18020300CF
:106B000008B5024B1B689B6D019308BD180203007A
:106B100008B5024B1B68DB6D019308BD180203002A
:106B200008B5024B1B685B6E019308BD1802030099
:106B300008B5024B1B689B6E019308BD1802030049
:106B400008B5024B1B681B68019308BD2C020300AB
:106B500008B5024B1B685B68019308BD2C0203005B
:106B600008B5024B1B689B68019308BD2C0203000B
:106B700008B5024B1B68DB68019308BD2C020300BB
:106B800008B5024B1B685B69019308BD2C0203002A
:106B900008B5024B1B689B69019308BD2C020300DA
:106BA00008B5024B1B68DB69019308BD2C0203008A
:106BB00008B5024B1B681B6B019308BD2C02030038
:106BC00008B5024B1B68DB68019308BD280203006F
:106BD00008B5024B1B689B69019308BD280203009E
:106BE00008B5024B1B68DB69019308BD280203004E
:106BF00008B5024B1B681B6A019308BD28020300FD
:106C000008B5024B1B685B6A019308BD28020300AC
:106C100008B5024B1B689B6A019308BD280203005C
:106C200008B5024B1B68DB6A019308BD280203000C
:106C300008B5024B1B681B6B019308BD28020300BB
:106C400008B5024B1B685B6B019308BD280203006B
:106C500008B5024B1B681B6C019308BD280203009A
:106C600008B5024B1B689B6C019308BD280203000A
:106C700008B5024B1B68DB6C019308BD28020300BA
:106C800008B5024B1B681B6D019308BD2802030069
:106C900008B5024B1B685B69019308BD64020300E1
:106CA00008B5024B1B689B68019308BD680203008E
:106CB00008B5024B1B68DB68019308BD680203003E
:106CC00008B5024B1B68DB69019308BD3002030065
:106CD00008B5024B1B681B6A019308BD3002030014
:106CE00008B5024B1B681B68019308BD3C020300FA
:106CF00008B5024B1B68DB68019308BD3C0203002A
:106D000008B5024B1B681B69019308BD3C020300D8
:106D100008B5024B1B685B69019308BD3C02030088
:106D200008B5024B1B689B69019308BD3C02030038
:106D300008B5024B1B68DB69019308BD3C020300E8
:106D400008B5024B1B681B6A019308BD3C02030097
:106D500008B5024B1B689B6A019308BD3C02030007
:106D600008B5024B1B681B68019308BD4C02030069
:106D700008B5024B1B681B69019308BD4C02030058
:106D800008B5024B1B685B69019308BD4C02030008
:106D900008B5024B1B689B69019308BD4C020300B8
:106DA00008B5024B1B68DB69019308BD4C02030068
:106DB00008B5024B1B681B6A019308BD4C02030017
:106DC00008B5024B1B685B6B019308BD60020300B2
:106DD00008B5024B1B681B6D019308BD60020300E0
:106DE00008B5024B1B685B6D019308BD6002030090
:106DF00008B5034B1B68D3F89830019308BD000019
:106E00006002030008B5024B1B681B68019308BDB4
:106E10002002030008B5024B1B685B68019308BDA4
:106E20002002030008B5024B1B685B69019308BD93
:106E30002002030008B5024B1B68DB6A019308BD02
:106E40002002030008B5024B1B68DB6C019308BDF0
:106E50002002030008B5024B1B685B6D019308BD5F
:106E60002002030008B5024B1B689B6D019308BD0F
:106E70002002030008B5024B1B68DB6D019308BDBF
:106E80002002030008B5034B1B68D3F88830019338
:106E900008BD00002002030008B5034B1B68D3F8AF
:106EA0009430019308BD00002002030008B5034B95
:106EB0001B68D3F8AC30019308BD0000200203002A
:106EC00008B5034B1B68D3F8B030019308BD000030
:106ED0002002030008B5024B1B681B68019308BD24
:106EE0004402030008B5024B1B685B68019308BDB0
:106EF0004402030008B5024B1B689B68019308BD60
:106F00004402030008B5024B1B68DB68019308BD0F
:106F10004402030008B5024B1B685B69019308BD7E
:106F20004402030008B5024B1B68DB69019308BDEE
:106F30004402030008B5024B1B681B6A019308BD9D
:106F40004402030008B5024B1B685B6A019308BD4D
:106F50004402030008B5024B1B68DB6A019308BDBD
:106F60004402030008B5024B1B681B6B019308BD6C
:106F70004402030008B5024B1B685B6B019308BD1C
:106F80004402030008B5024B1B689B6B019308BDCC
:106F90004402030008B5024B1B68DB6B019308BD7C
:106FA0004402030008B5024B1B685B6C019308BDEB
:106FB0004402030008B5024B1B685B68019308BDDF
:106FC0004002030008B5024B1B689B68019308BD93
:106FD0004002030008B5024B1B68DB68019308BD43
:106FE0004002030008B5024B1B681B69019308BDF2
:106FF0004002030008B5024B1B685B69019308BDA2
:107000004002030008B5024B1B689B69019308BD51
:107010004002030008B5024B1B68DB69019308BD01
:107020004002030008B5024B1B681B6A019308BDB0
:107030004002030008B5024B1B681B6B019308BD9F
:107040004002030008B5024B1B685B6B019308BD4F
:107050004002030008B5024B1B681B6C019308BD7E
:107060004002030008B5024B1B685B6C019308BD2E
:107070004002030008B5024B1B681B68019308BD62
:107080001C02030008B5024B1B685B68019308BD36
:107090001C02030008B5024B1B689B68019308BDE6
:1070A0001C02030008B5024B1B681B69019308BD55
:1070B0001C02030008B5024B1B68DB69019308BD85
:1070C0001C02030008B5024B1B68DB6A019308BD74
:1070D0001C02030008B5024B1B681B6B019308BD23
:1070E0001C02030008B5024B1B685B6C019308BDD2
:1070F0001C02030008B5024B1B689B6C019308BD82
:107100001C02030008B5024B1B68DB6C019308BD31
:107110001C02030008B5024B1B681B6D019308BDE0
:107120001C02030008B5024B1B685B6D019308BD90
:107130001C0203008A4210B507D0029C401AE41AD0
:107140006043521A90FBF2F0184410BD0021FFF783
:1071500069BE10B5836804460BB901F047FBC368EC
:107160009847A3681BB10322214620469847204632
:107170001021BDE8104001F033BB10B50368044690
:107180009B689847A368013BA3602BB923682046FE
:10719000DB68BDE81040184710BD0B68036013B1F1
:1071A0005A6801325A60704710B50446006828B129
:1071B0004368013B43600BB9FFF7DFFF204610BD7A
:1071C000024800230360FFF763BC00BF44E50320CF
:1071D000002240681146FFF705BF002240681146B3
:1071E000FFF720BF002240681146FFF72BBF406821
:1071F0000022FFF71FBF4068002281F00101FFF766
:1072000009BF002340681A461946FFF7FBBE00235A
:1072100040681A461946FFF7EDBE00224068114645
:10722000FFF7D0BE406800220221FFF7D3BE002343
:1072300040681A46FFF7BEBE084B10B52824224608
:107240001846002101F05EFF054B04804FF0FF322D
:10725000426004225A60034A1A6010BD50E50320C0
:1072600048E50320549A0D0070470020704710B580
:107270001021044601F0B4FA204610BD08B5FFF70E
:10728000F6FF08BD30B500224FF69C740260848082
:107290008D888C800C68858004600A6030BD10B5D4
:1072A00004460068FFF7EEFE204610BD38B5C468FE
:1072B000F4B12378022B03D104F10C00FFF7EFFFA8
:1072C000656835B12846FFF71FF81021284601F000
:1072D00087FAA56835B12846FFF716F81021284629
:1072E00001F07EFA20461421BDE8384001F078BA5A
:1072F00038BD10B588B00446684600F06EFD69469A
:1073000004A800F08DFD04A8A047044604A800F0DE
:1073100019FD684600F016FD204608B010BD1FB5E7
:107320000023CDE90201019210241A46694618464D
:10733000ADF80230ADF80040FFF7D4FD04B010BD49
:107340001FB50C23ADF8043003688DF80630037ABE
:107350008DF80730436802930021437AADF80D1091
:1073600001A88DF80F108DF80C30FFF71BFE05B04B
:107370005DF804FB73B50E46044656F8043B0093D3
:107380000D4601A83146FFF708FF019A009B626095
:10739000236001A8002301930093FFF705FF304607
:1073A000FFF702FF2846082101F01AFA204602B032
:1073B00070BD13B50B460246D0E900016C4684E867
:1073C000030093E8030082E8030094E8030083E8E5
:1073D000030002B010BD826810B50AB901F006FAC8
:1073E000BDE81040C368184708B5006800F11001F7
:1073F000FFF7F1FF08BD826810B50AB901F0F6F990
:10740000BDE81040C368184708B5006800F11001D6
:10741000FFF7F1FF08BD000038B500230446036004
:1074200010200D46FCF737FE28B10123C0E90133D7
:10743000024B0360C5602060204638BD909A0D0065
:1074400038B5002383608B6804460D462BB10222B9
:107450009847EB68E360AB68A360204638BD000046
:10746000F0B589B004686846FFF70CFF4FF00203DF
:10747000D4E84F2F002A03D1C4E8413F0029F7D1B7
:1074800025D104F10C0569462846FFF7FBFEBFF342
:107490005B8F01236370002004F10803BFF35B8F4F
:1074A00053E8006F43E80002002AF9D1BFF35B8F75
:1074B0006EB1FFF7C7FC78B129463046FFF78BFF66
:1074C0003046FEF721FF1021304601F089F9684669
:1074D000FFF7E5FE09B0F0BD314602A8FFF7B0FFA7
:1074E000E068B4F9105008B101F04AFE069010208F
:1074F000ADF81C50FCF7CFFD0546E8B100278760CA
:107500001820FCF7C8FD044688B10146876002A830
:10751000FFF74FFF049BA268A360059B049206A996
:10752000E268E36004F110000592FFF7ABFE084B40
:10753000EB60084B2C60AB6006A8FFF7B0FE02A81A
:10754000FEF7E2FE002229460348FFF783FCB7E777
:10755000E9730D0081760D0053710D002DE9F047A0
:107560008AB005469DF848900C4617469846FFF7A6
:10757000D1FC07AE824638BB4FF62E73059005A9A5
:107580003046ADF81830FFF77DFE1420FCF783FD80
:10759000044648B1022303700123C0E901AA4370E5
:1075A00031460C30FFF76EFE2846214640F8044B6A
:1075B000FFF732FF3046FFF772FE05A8FFF76FFEB8
:1075C00028460AB0BDE8F0870C234FF0000A1420CB
:1075D000CDE908AA0793FCF75EFD014628B1C0E992
:1075E00001AA80F800A080F801A004A80391FFF789
:1075F00013FF224B08930820FCF74DFD824628B16B
:10760000039B40F8043B04A9FFF7C7FD00965FFA0F
:1076100089F3424639462046CDF824A0FFF78AFC7C
:10762000B8B9039B5B7803F0FF0293B94FF69C73E4
:1076300005A903A80592ADF81830FFF711FF05A8BA
:10764000FFF72DFE05A80999FFF794FE06A8FFF79E
:10765000ABFD039B059304A906A8FFF79EFD059BC0
:10766000069A2B606A60002306A806930593FFF72D
:107670009BFD04A8FFF798FDA2E700BF45770D002A
:10768000022AF8B5054607D0032A18D0012A01D1ED
:107690000B6803600020F8BD18200E68FCF7FBFCA7
:1076A000044650B13146FFF7CBFE3069B6F914708D
:1076B00008B101F065FD2061A7822C60EAE704684B
:1076C000002CE7D004F11000FFF7E9FD2046FEF79B
:1076D0001BFE1821204601F083F8DBE738B50023B4
:1076E00083608B6804460D462BB102229847EB68F5
:1076F000E360AB68A360204638BD022A70B504463B
:1077000007D0032A12D0012A01D10B6803600020A0
:1077100070BD14200E68FCF7BEFC054620B1314652
:10772000FFF7DCFF337C2B742560F0E70468002C46
:10773000EDD02046FEF7E8FD1421204601F050F878
:10774000E5E70000F0B589B004460D4601A81146F2
:10775000FFF710FEA4B124B21DB1284601F010FDC0
:10776000054601A803A90395ADF81040FFF778FE80
:1077700003A8FFF794FD02A8FFF716FD09B0F0BDBE
:10778000019D0123D5E84F2F002A03D1C5E8413FD1
:107790000029F7D1EFD12B73BFF35B8F6B702B1DDB
:1077A000BFF35B8F53E8006F43E80042002AF9D132
:1077B000BFF35B8F002EDED02046FFF743FB07466A
:1077C00060B105F10C013046FFF715FE3046FEF7BB
:1077D0009BFD1021304601F003F8CCE7314603A8A9
:1077E000FFF77CFF2B7B8DF81C301020FCF753FC3F
:1077F0000546D0B187601420FCF74DFC044678B1F3
:107800008760014603A8FFF7D4FD059BA268A3602B
:10781000069B0592E268E3609DF81C300692237493
:10782000064BEB60064B2C60AB6003A8FEF76CFDCB
:10783000002229460348FFF70DFBC7E709740D0036
:10784000FB760D0053710D00002240681146FFF7D2
:10785000E9BB002240681146FFF7F4BB40680022F4
:10786000FFF7E8BB4068002281F00101FFF7D2BBBF
:10787000002340681A461946FFF7C4BB002340683E
:107880001A461946FFF7B6BB002240681146FFF7BB
:10789000A9BB002240681146FFF794BB4068002254
:1078A0000221FFF797BB002340681A46FFF782BB0F
:1078B000024B03225A60024A1A60704778E503209F
:1078C000AC9A0D007047F8B5064615460C468F1861
:1078D000BC4206D0336814F8011B9B6830469847B9
:1078E000F6E72846F8BD007C0022FFF781B9007C4E
:1078F0000021FFF785B9007C0021FFF789B9007CE2
:107900000021FFF78DB9007C0021FFF791B910B578
:107910001421044600F064FF204610BD10B54FF45A
:107920007A73044608460021C4E90113034B23601F
:1079300020741146FFF78CF9204610BDE89A0D001F
:107940000023007C1A461946FFF73AB97FB500229A
:107950001423CDE90122ADF804300B788DF80830FE
:107960004B680393CB680493007C0B7A059301A9C1
:10797000FFF786F907B05DF804FB1FB5003B8DF8F3
:1079800000104FF06401039118BF01236946019272
:107990008DF80830FFF7DAFF05B05DF804FB01232E
:1079A000FFF7EBBF007C0022FFF712B9C9B2FFF767
:1079B000F9BF007C0022FFF713B90121FFF7F9BFDF
:1079C00008B50021007CFFF74BF9B0FA80F04009C0
:1079D00008BD08B50021007CFFF74AF9B0FA80F035
:1079E000400908BD004700002DE9FF4100241D4665
:1079F0000F4690460646FFF7D3F8A5424FF0040322
:107A0000ADF80D408DF80C308DF80F40A2BF9DF8F9
:107A100028308DF80E3003AC0749009443463A46AF
:107A20003046A8BF8DF80D50FFF7B2F8B0FA80F0DD
:107A3000400904B0BDE8F081E5790D00704710B54C
:107A40001821044600F0CCFE204610BDF0B5037DA1
:107A5000062B8DB00E4600F104074FF0000412D043
:107A600000F1080515F8011D0A22304600F03BF927
:107A7000AF42044419D0002CF4D02E21304600F03F
:107A80002FF90444EEE72F236A4639460A208DF881
:107A90000040FFF7FDF8684601F08FFB33680246AF
:107AA000DB68694630469847044620460DB0F0BD75
:107AB00010B5054B0446112240F8043B002101F0AB
:107AC00021FB204610BD00BF109B0D000346074A56
:107AD00010B543F8042B01F1100251F8044B43F8A0
:107AE000044B9142F9D10A781A7010BD109B0D0019
:107AF00010B59DF8084044EA032343EA024242EAF3
:107B0000016104234160037510BD13B5CB78009368
:107B10008B784A780978FFF7EBFF02B010BD0000C0
:107B2000014B024A1A60704780E503201C9B0D0040
:107B3000002340681A46FFF73DBA40680022022140
:107B4000FFF748BA002240681146FFF73BBA00220F
:107B500040681146FFF746BA002340681A461946A6
:107B6000FFF748BA002340681A461946FFF74ABA99
:107B700040680021FFF76EBA40680021FFF772BA33
:107B80004068002281F00101FFF744BA40680022FA
:107B9000FFF750BA002240681146FFF753BA00229F
:107BA00040681146FFF73EBA2DE9F043002495B036
:107BB00016460D460746FFF77BFF214618220EA802
:107BC000009401F09FFA4023CDE90C3421466B4626
:107BD0000CAA3046FFF76CF80446002846D102464E
:107BE00001216868FFF7FEF9022180462246686895
:107BF000FFF7F8F9009E81462146002E36D0002975
:107C000034D17368022B03D00A2B0BD0F669F4E74A
:107C1000B8F1000F04D0716938460431FFF775FFE1
:107C20004146F3E7B9F1000F01D14946EEE7746927
:107C3000102201A801F066FA06238DF8143001AD78
:107C400004F108031834186859682A4603C2083337
:107C5000A3421546F7D101A906A807ADFFF736FFE5
:107C60000FCD3C1D0FC42B682370DEE70098FFF793
:107C700017F8384615B0BDE8F0830000024B034A00
:107C80001A6000225A60704784E50320289B0D008B
:107C9000F8B506460D468F180024BD420CD0336857
:107CA00015F8011B9B6830469847031E01DB1C44F6
:107CB000F3E7002C08BF1C462046F8BD13B5044668
:107CC000084659B1019101F078FA23680199DB68FF
:107CD0000246204602B0BDE81040184702B010BD71
:107CE00003689B68184730B58BB000238DF82430AB
:107CF000012A98BF0A2209AC0D46B1FBF2F101FB43
:107D0000125303F0FF03092B94BF30333733DBB238
:107D1000AA4204F8013DEFD92146FFF7CFFF0BB08F
:107D200030BD0000014B00229A6070478CE50320B3
:107D300010B5044608462170FEF7C2FF00236360B9
:107D4000204610BD10B504460068FFF79BF9204699
:107D500010BD10B50446006808B1FFF793F9002381
:107D6000C4E90133236010BD38B504460D460068F0
:107D70000131FFF78FF910B1C4E90005012038BDCA
:107D800010B50368044623B143688B4201D3012038
:107D900010BD2046FFF7E8FF0028F9D0A368002BAC
:107DA000F5D122681370F2E737B50D4611460192FE
:107DB0000446FFF7E5FF019A28B92046FFF7C9FFFF
:107DC000204603B030BDA2602946206801F072F958
:107DD0002268A3680021D154F2E7002313B5C0E95B
:107DE000003304468360037341B10846019101F0FA
:107DF000E4F9019902462046FFF7D6FF204602B07B
:107E000010BD884210B5044605D00B682BB18A68B6
:107E10001946FFF7C9FF204610BDFFF79AFFFAE7A2
:107E200010B500230446C0E9003383600373FFF7F5
:107E3000E8FF204610BD70B505460E4609B9002082
:107E400070BD6AB1846814442146FFF799FF002889
:107E5000F5D02868AB683146184401F089F9AC6068
:107E60000120EDE713B5044629B92046FFF771FF5D
:107E7000204602B010BD0846019101F09EF901991B
:107E800002462046FFF7D7FF0028EED0F0E708B5FE
:107E900082683AB921B10878B0FA80F0400900E070
:107EA000012008BD006809B90078F5E701F056F92E
:107EB000F2E710B50446006818B1FFF7E3F80023B5
:107EC000236010BD38B5B1F9043083800B460D46F0
:107ED00053F8062FC0F806209B8843810446FFF71D
:107EE000E8FF2B6813B1236000232B60204638BDC8
:107EF00038B50C460546FFF7DCFF44B12088FFF794
:107F0000B9F8286028B12288214601F0D3F8002072
:107F100038BD0148FCE700BFFCFEFFFF07B50B467C
:107F200000210246009101208C21FEF7C9FF03B019
:107F30005DF804FB01460020FFF7F0BF0020FFF7CB
:107F4000F9BF0000F0B52D4D0B7D04468BB00846FF
:107F5000AF1D002B38D00B681B79002B34D00022CA
:107F6000274B049302A904300292ADF80C208DF83F
:107F70000E20FEF79BFFDDF80E30C5F8063000B28C
:107F8000BDF81230ADF80C00A8800299BB802846DD
:107F9000FFF7AEFF02A8FFF78CFF00232360A3804A
:107FA000A37123814FF6FF736381B5F90430A38079
:107FB0003B68C4F80630BB88296863812046FFF718
:107FC00097FF20460BB0F0BD00262023CDE90236F6
:107FD0000C4B00930C49334602AA3220FEF7F8FE00
:107FE000074B049302A94FF6F263044802968DF8FA
:107FF0000E60ADF80C30FFF765FFCBE79CE5032082
:108000000000FFFF639B0D005C9B0D00054B0222EF
:108010001A60054B054A9A60002018609880987194
:10802000FEF7F8BEA8E503209CE503200000FFFF53
:108030002DE9F041154ADFF86080D2E90032C0181E
:1080400042EB0101124AD2E90032C61841EB0207A5
:10805000D8E90023BB4208BFB2428CB013D003A9B9
:108060006846CDE90067FFF74DF8089B094D03F21C
:108070006C7303AC08930FCC0FC50FCC0FC5C8E9C8
:10808000006723682B600CB0BDE8F081E0E50320B9
:10809000D8E50320B4E50320E8E5032008B5002077
:1080A000FEF760FF28B1FEF735FF80F00100C0B297
:1080B00008BD0120FCE71FB502460B4668460021BB
:1080C000CDE90023CDE90211FEF732FD024610B9D9
:1080D0000146FEF7CFFE05B05DF804FB30B504465F
:1080E0001848D0E90010521840EB03031648D0E9B5
:1080F0000010521893B040EB0303CDE90023242273
:108100000DEB0200002100F0FDFF002509A96846E3
:10811000FEF7F8FF1622294603A8029500F0F2FFA9
:1081200002A909A800F084FF02A801F046F812ABEA
:10813000184402A900F8415C2046FFF74EFE204695
:1081400013B030BDE0E50320D8E503202DE9F04F62
:10815000A5B00746884614A811463F221D4601F0E7
:1081600034F8002314A88DF88F3001F026F8044667
:108170005DBB2A4903A800F0FBFF14AE002504F103
:10818000FF3BAB4536D9B14605F1010A19F8013B71
:10819000252B17D173787A2B14D103A801F00DF891
:1081A00014AB044628181844ABEB0502B11C00F0D0
:1081B00081FF224603A9304600F07CFF14A800F09E
:1081C000FCFF04464E465546D9E73C2195FBF1F3AA
:1081D000002BB8BF5B42B3FBF1F201FB12330093FB
:1081E0000F4A4FF46163102103A895FBF3F3FEF7E8
:1081F00061FFC2E700212E2208A8079100F082FF4C
:10820000434614AA322107A8FEF774FF07A938468F
:10821000FFF7E3FD384625B0BDE8F08F8A9B0D00DF
:108220008C9B0D00F0B58DB0CDE90023129D044666
:1082300015B9194B1D682DB1184B2846196800F067
:108240008DFF38B9DDE900232046FFF747FF2046C0
:108250000DB0F0BD124E0099124FD6E900325B18F6
:10826000019941EB0202D7E900011B1841EB020220
:10827000CDE900320021242203A800F043FF03A926
:108280006846FEF73FFF32683B6803A91344204667
:108290002A46FFF75BFFDAE7B0E5032008E3032097
:1082A000E0E50320D8E5032010B50020FEF728FC08
:1082B0000446A0B9FEF7A6FD012810D12046FEF71E
:1082C000D1FD60B9FFF7EAFE10B9FEF713FEF9E73A
:1082D000FFF7E4FEBDE810400020FEF711BC204689
:1082E00010BD1FB5FFF7E0FF10220021684600F027
:1082F00009FF00216846FEF713FC009805B05DF801
:1083000004FB000008B5FFF7ECFFC117FFF790FE74
:10831000014B986808BD00BFB4E5032008B5FFF71E
:10832000E0FFC117FFF784FE014B586908BD00BF8D
:10833000B4E50320024B1A68024B1A60704700BF75
:1083400008E30320B0E5032070474174704770478D
:1083500008B5007CFEF7FCFC20EAE07008BD08B51B
:10836000007CFEF7CDFC20EAE07008BD08B5007C7B
:10837000FEF7D6FC40EAE07008BD08B5007CFEF7C9
:10838000C7FC40EAE07008BD007CFEF7D1BC37B501
:10839000457C04462DB1207C03B0BDE83040FEF79B
:1083A000A7BC007C0191FEF7D3FC00280199F2DC08
:1083B000284603B030BD10B51421044600F010FA71
:1083C000204610BD10B54FF0000C0446084611467B
:1083D0004FF47A72C4E901C2044A22600122207477
:1083E00062741A46FEF77CFC204610BDBC9B0D0053
:1083F00013B50D4C2178BFF35B8F11F0010110D143
:1084000020460191FBF758FE019950B1074B084AED
:108410000848FFF7D7FF2046FBF753FE064800F059
:108420002DFE044802B010BDF0E5032078E60320DD
:10843000F4E50320FCE603204F830D0041747047F0
:108440007047704708B50021007CFEF7A1FC40EAA8
:10845000E07008BD08B50121007CFEF799FC40EAF8
:10846000E07008BD08B5007CFEF78AFC20EAE070E9
:1084700008BD08B5007CFEF77BFC20EAE07008BD73
:1084800013B50446007C0191FEF77AFC002801999F
:1084900001DC607C20B1207CFEF782FC20EAE070E9
:1084A00002B010BD007CFEF783BC10B51421044659
:1084B00000F096F9204610BD10B54FF47A730446CB
:1084C00008460021C4E90113044B236001232074F2
:1084D00063741146FEF744FC204610BDEC9B0D0072
:1084E00010B514220446002100F00CFE204610BDF9
:1084F00010B50F4C88B003A8FFF7F2FF2178BFF347
:108500005B8F11F001010FD120460191FBF7D4FDE3
:10851000019948B103AA0748FFF7CEFF2046FBF7B1
:10852000D0FD054800F0AAFD024808B010BD00BF0C
:1085300010E7032014E7032041840D00014B18606D
:10854000704700BF0CE3032008B50B4B43B1FFF7A6
:10855000CFFF03681B699847002801DDAFF3008057
:10856000064B43B1FFF744FF03681B699847002897
:1085700001DDAFF3008008BD000000000000000036
:1085800008B5FFF7E1FFFEF7B3FA014B186008BD2D
:108590003CE703200548064A064908B5121A00F0D0
:1085A00089FD054B054A1A6008BD00BF00F4032091
:1085B00004FC0320A09D0D0000FC03201E1C279A34
:1085C00007B5002300931A466FF07701FEF764FCAD
:1085D00003B05DF804FB000007B543880A2B08D000
:1085E000502B0BD1094B1B684BB103B05DF804EB6A
:1085F0001847FFF7E5FF03B05DF804FB0023009385
:108600001A466FF07701FEF747FCF4E72CE70320EA
:1086100010B512480021FEF765FD114B1A68114B89
:108620009A42114B0CBF012200221A7001D0FFF7B1
:10863000B1FFFEF745FA044600F06CFD0B4B13B199
:108640002046AFF3008000210848FEF7A3FCBDE8F8
:10865000104007480021FEF715BC00BF3D850D0006
:1086600000FC03201E1C279A28E7032000000000BE
:10867000D9850D00232813B502D9002002B010BD02
:10868000A0F10B03022B1AD8174C2178BFF35B8F94
:1086900011F001010BD120460191FBF70DFD01996D
:1086A00028B11248FFF744FB2046FBF70AFD0F4BA9
:1086B0001878FEF70DFB0028DFD10120DEE7012846
:1086C00009D800F069F80021007CFEF7B9FA80F0C3
:1086D0000100C0B2D2E709380128EED8FFF788FEC2
:1086E000007CFEF72DFBF2E730E7032034E70320A0
:1086F000232838B504460D460AD8FF2908D0FFF7CD
:10870000B9FF28B129462046BDE83840FEF728BA0F
:1087100038BD10B50446FEF72BFA031FDBB2012B60
:1087200008D92046FFF7A6FF20B12046BDE810403B
:10873000FEF726BA002010BD0D2810B504469CBFD8
:108740000E34A4B22046FFF795FF50B10321204616
:10875000FEF7FEF9032804D12046BDE81040FEF7DD
:1087600027BA002010BD704738B50023202543806C
:10877000142304460380856005610649284600F0FD
:1087800033F804496060284600F02EF8E060204687
:1087900038BD00BF149C0D0030B50E4D2978BFF3D5
:1087A0005B8F11F0010487B011D12846FBF784FCE0
:1087B00068B101A8FFF7D8FF01AA21460648FFF7D4
:1087C000ADF82846FBF77DFC044800F057FC024852
:1087D00007B030BD40E7032044E7032067870D0062
:1087E000FBF75DBCFBF757BCFBF757BC08B5FEF7C2
:1087F00069FC000081F0004102E000BF83F000430B
:1088000030B54FEA41044FEA430594EA050F08BF2B
:1088100090EA020F1FBF54EA000C55EA020C7FEAEF
:10882000645C7FEA655C00F0E2804FEA5454D4EB6C
:108830005555B8BF6D420CDD2C4480EA020281EA36
:10884000030382EA000083EA010180EA020281EA6E
:108850000303362D88BF30BD11F0004F4FEA0131C0
:108860004FF4801C4CEA113102D0404261EB4101CF
:1088700013F0004F4FEA03334CEA133302D0524255
:1088800063EB430394EA050F00F0A780A4F1010411
:10889000D5F1200E0DDB02FA0EFC22FA05F280184B
:1088A00041F1000103FA0EF2801843FA05F3594131
:1088B0000EE0A5F120050EF1200E012A03FA0EFCB0
:1088C00028BF4CF0020C43FA05F3C01851EBE371DA
:1088D00001F0004507D54FF0000EDCF1000C7EEBF7
:1088E00000006EEB0101B1F5801F1BD3B1F5001F35
:1088F0000CD349085FEA30004FEA3C0C04F1010454
:108900004FEA445212F5800F80F09A80BCF1004F7C
:1089100008BF5FEA500C50F1000041EB045141EAFE
:10892000050130BD5FEA4C0C404141EB0101013CC7
:1089300028BFB1F5801FE9D291F0000F04BF0146B6
:108940000020B1FA81F308BF2033A3F10B03B3F188
:1089500020020CDA0C3208DD02F1140CC2F10C0218
:1089600001FA0CF021FA02F10CE002F11402D8BF76
:10897000C2F1200C01FA02F120FA0CFCDCBF41EA42
:108980000C019040E41AA2BF01EB0451294330BD11
:108990006FEA04041F3C1CDA0C340EDC04F11404EE
:1089A000C4F1200220FA04F001FA02F340EA0300C5
:1089B00021FA04F345EA030130BDC4F10C04C4F10B
:1089C000200220FA02F001FA04F340EA03002946EB
:1089D00030BD21FA04F0294630BD94F0000F83F435
:1089E000801306BF81F480110134013D4EE77FEA18
:1089F000645C18BF7FEA655C29D094EA050F08BF64
:108A000090EA020F05D054EA000C04BF1946104644
:108A100030BD91EA030F1EBF0021002030BD5FEA88
:108A2000545C05D14000494128BF41F0004130BDB0
:108A300014F580043CBF01F5801130BD01F0004504
:108A400045F0FE4141F470014FF0000030BD7FEA77
:108A5000645C1ABF194610467FEA655C1CBF0B4672
:108A6000024650EA013406BF52EA033591EA030F89
:108A700041F4002130BD00BF90F0000F04BF002181
:108A8000704730B54FF4806404F132044FF00005B4
:108A90004FF0000150E700BF90F0000F04BF00212D
:108AA000704730B54FF4806404F1320410F0004593
:108AB00048BF40424FF000013EE700BF42004FEA8E
:108AC000E2014FEA31014FEA02701FBF12F07F430B
:108AD00093F07F4F81F06051704732F07F4208BFC2
:108AE000704793F07F4F04BF41F40021704730B5C9
:108AF0004FF4607401F0004521F000411CE700BF15
:108B000050EA010208BF704730B54FF000050AE097
:108B100050EA010208BF704730B511F0004502D598
:108B2000404261EB41014FF4806404F132045FEA9A
:108B3000915C3FF4D8AE4FF003025FEADC0C18BF43
:108B400003325FEADC0C18BF033202EBDC02C2F135
:108B5000200300FA03FC20FA02F001FA03FE40EAC7
:108B60000E0021FA02F11444BDE600BF70B54FF0CB
:108B7000FF0C4CF4E06C1CEA11541DBF1CEA1355A9
:108B800094EA0C0F95EA0C0F00F0DEF82C4481EA11
:108B9000030621EA4C5123EA4C5350EA013518BF31
:108BA00052EA033541F4801143F4801338D0A0FB1E
:108BB00002CE4FF00005E1FB02E506F00042E0FBCB
:108BC00003E54FF00006E1FB03569CF0000F18BFD1
:108BD0004EF0010EA4F1FF04B6F5007F64F5407479
:108BE00004D25FEA4E0E6D4146EB060642EAC6210C
:108BF00041EA55514FEAC52040EA5E504FEACE2E79
:108C0000B4F1FD0C88BFBCF5E06F1ED8BEF1004F7B
:108C100008BF5FEA500E50F1000041EB045170BDF7
:108C200006F0004646EA010140EA020081EA03013B
:108C3000B4EB5C04C2BFD4EB0C0541EA045170BD37
:108C400041F480114FF0000E013C00F3AB8014F1B1
:108C5000360FDEBF002001F0004170BDC4F10004FA
:108C6000203C35DA0C341BDC04F11404C4F120057B
:108C700000FA05F320FA04F001FA05F240EA0200D6
:108C800001F0004221F0004110EBD37021FA04F60C
:108C900042EB06015EEA430E08BF20EAD37070BDC6
:108CA000C4F10C04C4F1200500FA04F320FA05F025
:108CB00001FA04F240EA020001F0004110EBD37027
:108CC00041F100015EEA430E08BF20EAD37070BD97
:108CD000C4F1200500FA05F24EEA020E20FA04F370
:108CE00001FA05F243EA020321FA04F001F000411F
:108CF00021FA04F220EA020000EBD3705EEA430E90
:108D000008BF20EAD37070BD94F0000F0FD101F0BE
:108D10000046400041EB010111F4801F08BF013CF7
:108D2000F7D041EA060195F0000F18BF704703F035
:108D30000046520043EB030313F4801F08BF013DBC
:108D4000F7D043EA0603704794EA0C0F0CEA135578
:108D500018BF95EA0C0F0CD050EA410618BF52EA32
:108D60004306D1D181EA030101F000414FF0000038
:108D700070BD50EA410606BF1046194652EA430646
:108D800019D094EA0C0F02D150EA013613D195EABA
:108D90000C0F05D152EA03361CBF104619460AD102
:108DA00081EA030101F0004141F0FE4141F470010C
:108DB0004FF0000070BD41F0FE4141F4780170BDFC
:108DC00070B54FF0FF0C4CF4E06C1CEA11541DBF61
:108DD0001CEA135594EA0C0F95EA0C0F00F0A7F863
:108DE000A4EB050481EA030E52EA03354FEA013190
:108DF00000F088804FEA03334FF0805545EA1313A3
:108E000043EA12634FEA022245EA111545EA10656A
:108E10004FEA00260EF000419D4208BF964244F101
:108E2000FD0404F5407402D25B084FEA3202B61A20
:108E300065EB03055B084FEA32024FF480104FF4F4
:108E4000002CB6EB020E75EB030E22BFB61A754668
:108E500040EA0C005B084FEA3202B6EB020E75EBFB
:108E6000030E22BFB61A754640EA5C005B084FEA63
:108E70003202B6EB020E75EB030E22BFB61A754630
:108E800040EA9C005B084FEA3202B6EB020E75EB3B
:108E9000030E22BFB61A754640EADC0055EA060EFC
:108EA00018D04FEA051545EA16754FEA06164FEA3F
:108EB000C30343EA52734FEAC2025FEA1C1CC0D1EB
:108EC00011F4801F0BD141EA00014FF000004FF078
:108ED000004CB6E711F4801F04BF01430020B4F139
:108EE000FD0C88BFBCF5E06F3FF6AFAEB5EB030CF1
:108EF00004BFB6EB020C5FEA500C50F1000041EBEE
:108F0000045170BD0EF0004E4EEA113114EB5C04BA
:108F1000C2BFD4EB0C0541EA045170BD41F480118D
:108F20004FF0000E013C90E645EA060E8DE60CEA95
:108F3000135594EA0C0F08BF95EA0C0F3FF43BAFB2
:108F400094EA0C0F0AD150EA01347FF434AF95EA69
:108F50000C0F7FF425AF104619462CE795EA0C0F4D
:108F600006D152EA03353FF4FDAE1046194622E71A
:108F700050EA410618BF52EA43067FF4C5AE50EAF4
:108F800041047FF40DAF52EA43057FF4EBAE12E7E4
:108F90004FEA4102B2F1E04324BFB3F5001CDCF11B
:108FA000FE5C0DD901F0004C4FEAC0024CEA507053
:108FB000B2F1004F40EB830008BF20F00100704782
:108FC00011F0804F21D113F13872BCBF01F0004085
:108FD000704741F480114FEA5252C2F11802C2F1B7
:108FE000200C10FA0CF320FA02F018BF40F0010038
:108FF0004FEAC1234FEAD32303FA0CFC40EA0C00EA
:1090000023FA02F34FEA4303CCE77FEA625307D126
:1090100050EA01331EBF4FF0FE4040F4400070475D
:1090200001F0004040F0FE4040F40000704700BFF7
:1090300010B50C4641690369826986B001F26C7112
:109040000491016803914168029181680191C168AE
:109050000091074903EB43030B44064902EB42022C
:109060000A4420460449FEF71DF8204606B010BD0C
:109070004A9C0D00359C0D00159C0D0000230146F7
:109080001A46184600F038B90A22002100F02AB921
:1090900038B5074B1D68EB6B04461BB92420FDF760
:1090A000E9FFE863E96B2046BDE83840FEF732B8D7
:1090B0000CE303200A44914200F1FF3300D17047D2
:1090C00010B511F8014B03F8014F9142F9D110BDD1
:1090D000884210B501EB020402D98442234607D826
:1090E000431EA14208D011F8012B03F8012FF8E725
:1090F000024401468A4200D110BD13F8014D02F826
:10910000014DF7E702440346934200D1704703F84C
:10911000011BF9E738B50D4B1D68AB6B04467BB9F5
:109120001820FDF7A7FF0A4A0A4BA863C0E90023ED
:10913000094B83600B23838101220023C0E90423B0
:10914000AB6B00221C615A6138BD00BF0CE30320E9
:109150000E33CDAB34126DE6ECDE050010F8012BBA
:1091600011F8013B012A28BF9A42F7D0D01A704764
:10917000034611F8012B03F8012B002AF9D170479F
:10918000024B0146186800F003B800BF0CE303204F
:1091900037B5044608460D4600F00FF8421C11464C
:1091A00020460192FDF796FF044618B1019A294620
:1091B000FFF780FF204603B030BD034613F8012BB4
:1091C000002AFBD1181A0138704710B5013903463F
:1091D00032B111F8014F03F8014B013A002CF7D1DD
:1091E0001A440021934200D110BD03F8011BF9E796
:1091F0002DE9F0473A4E86468C4660461CF8014BF6
:10920000A55D15F00805F8D12D2C33D19CF8004050
:109210004FF0010800F1020C002B5CD0102B0CD198
:10922000302C0AD19CF8000000F0DF0058284DD106
:109230009CF8014010230CF1020C08F10047013F9B
:109240000026B7FBF3F9304603FB197AA4F1300589
:10925000092D18D82C46A34224DD751C07D0814562
:109260001DD301D1A2451ADB00FB034001261CF8E7
:10927000014BEBE72B2C08BF9CF80040A84608BF29
:1092800000F1020CC8E7A4F14105192D01D8373CC3
:10929000E1E7A4F16105192D04D8573CDBE74FF055
:1092A000FF36E4E7731C06D12223CEF8003038469F
:1092B00042B9BDE8F087B8F1000F00D04042002A63
:1092C000F7D00EB10CF1FF311160F2E73024002B22
:1092D000B3D10823B1E7302CA4D00A23ADE700BFF7
:1092E0006F9C0D0013460A46014602480068FFF7CE
:1092F0007FBF00BF0CE303202DE9F843DFF8B880FF
:109300000646D8F800001F460D46914600F056F874
:10931000254B1C6834B9254C1C60254B13B11B68C8
:10932000C4F8883063681F2B07DDD8F8000000F010
:1093300047F84FF0FF30BDE8F8834EB3D4F888000B
:1093400088B91C4B23B9D8F8000000F038F8F0E7D2
:109350004FF48470FDF78EFE0028F4D00023C0E99E
:109360004033C4F88800636840F8239001229A4093
:1093700000EB8301D0F800311343022EC0F8003116
:10938000C1F8807002BFD0F804311A43C0F804213C
:109390006368D8F800005A1C0233626044F8235016
:1093A00000F00EF80020C6E7E4E7032058E70320AA
:1093B0000000000075700D0070E3032070477047D7
:1093C0007047000021400D005D400D0085400D00FC
:1093D00089400D0000000000556E6B6E6F776E00C7
:1093E0004E6F74204368617267696E6700436861FD
:1093F00072676564004469736368617267696E6768
:10940000004661756C74004469636F6E6E656374C9
:10941000656400312E320031004E6F20446174616A
:1094200000526573706F6E7365205265636569766F
:10943000656400556E6B6E6F776E20726573706F2A
:109440006E736520726563657669656420256900C1
:10945000556269646F747320486F6F6B0053657455
:1094600020566572626F7365204D6F646500300031
:10947000436C656172656420566572626F73652026
:109480004D6F64650053657420746F2033726420DF
:1094900050617274792053696D0053657420746F44
:1094A000205061727469636C652053696D004B656F
:1094B000657020416C6976652073657420746F2037
:1094C000256920736563004B65657020416C697682
:1094D00065004C6F6164696E672053797374656DC4
:1094E0002044656661756C7473007B2274656D70D1
:1094F00065726174757265223A25342E31662C20AE
:10950000202268756D6964697479223A25342E3198
:10951000662C202022536F696C6D6F6973747572AD
:1095200065223A25692C202022536F696C6D6F6982
:10953000737475726532223A25692C2020226C756D
:1095400078223A25342E31662C20202277686974DF
:1095500065223A25342E31662C202022616C73223C
:109560003A25342E31662C22626174746572792238
:109570003A25697D00656E7669726F6E6D656E74F1
:10958000616C2D686F6F6B0046726F6D20257320C4
:10959000746F202573005374617465205472616E7A
:1095A000736974696F6E002A004C6F7720506F7773
:1095B0006572204D6F64650054727565004E6F7260
:1095C0006D616C204F7065726174696F6E730046D7
:1095D000616C73650025342E31662A430025342ED4
:1095E00031662525004C7578203A2025342E3166C9
:1095F000005768697465203A2025342E3166004191
:109600004C53203A2025342E31660025692025252B
:10961000004572726F722074616B696E67204D65D0
:1096200061737572656D656E7473005374617465F2
:1096300000737061726B2F6465766963652F736563
:109640007373696F6E2F656E64004572726F72205E
:109650005374617465202D205265736574002F6802
:109660006F6F6B2D726573706F6E73652F656E769D
:1096700069726F6E6D656E74616C2D686F6F6B2FA4
:109680000052656C656173650074656D706572612B
:10969000747572650068756D6964697479004C75DC
:1096A000780057686974650052617720414C530017
:1096B00042617474657279004261747465727943B1
:1096C0006F6E74657874004B65657020416C6976C7
:1096D0006520536563006C6F77506F7765724D6FCF
:1096E0006465004D6561737572652D4E6F77005628
:1096F0006572626F73652D4D6F64650053657420EC
:109700004C6F7720506F776572004572726F7220D0
:109710002D20534854333120496E697469616C6956
:109720007A6174696F6E004572726F72202D2056D7
:10973000454D4C20496E697469616C697A61746940
:109740006F6E005374617274757000000000000049
:109750000000000049410D005D410D001D630D003A
:10976000A9640D0069640D0047640D00EF650D00EC
:109770008F640D00000000000000000021410D007A
:1097800035410D0001590D0097590D00195A0D0072
:10979000D8930D00E0930D00E4930D00ED930D00C0
:1097A000F5930D0001940D0007940D005374617240
:1097B000747570205375636365737366756C000010
:1097C0000000000000000000000000000000000099
:1097D0000000000000000000000000000000000089
:1097E0000000000000000000000000000500000074
:1097F000777269746544617461206661696C65643F
:1098000020647572696E6720657261736520667287
:10981000616D416464723D25750000000000000028
:109820000000000021580D0023580D0001590D00C3
:1098300097590D00195A0D00646576696365526584
:109840006164206661696C656420737461743D2590
:1098500064007365742054696D652066726F6D20B5
:1098600052544320257300646576696365577269B5
:109870007465206661696C656420737461743D254C
:109880006400736574205254432066726F6D2063C8
:109890006C6F756420257300636C6F756420746948
:1098A0006D65206E6F742076616C69640064657606
:1098B0006963655772697465454550524F4D20661E
:1098C00061696C656420737461743D256400617026
:1098D000702E7274630000000000000000000000A1
:1098E000D95A0D00EF5A0D00C95A0D00CD5A0D007E
:1098F000195B0D00015E0D0021600D0000000000ED
:1099000000000000DD5A0D00E15A0D0000000000CB
:1099100000000000DB5A0D00FD5A0D00D15A0D0069
:10992000D55A0D00195B0D003B5E0D0061620D0004
:109930000000000000000000DF5A0D000B5B0D006E
:109940005075626C69736851756575654173796EA0
:1099500063007175657565696E67206576656E74FF
:109960004E616D653D257320646174613D257320F2
:1099700074746C3D256420666C616773313D2564A9
:1099800020666C616773323D25642073697A653D9A
:109990002564007075626C697368696E6720257351
:1099A0002025732074746C3D256420666C61677398
:1099B0003D2578007075626C697368656420737505
:1099C000636365737366756C6C79007075626C693E
:1099D00073686564206661696C65642C2077696CC6
:1099E0006C20726574727920696E20256C75206D0B
:1099F00073006170702E70756271000000000000CD
:109A00000000000000000000000000001D630D00C9
:109A1000A5400D00A5400D00A5400D00A5400D007E
:109A2000A5400D00000000000000000005640D00CE
:109A300019640D001D630D00A9640D0069640D001B
:109A400047640D00EF650D008F640D0000000000FD
:109A5000000000002F720D0025720D001B720D001A
:109A6000D1710D000F720D0003720D00717B0D009E
:109A7000797B0D00F7710D00EF710D00E5710D00A0
:109A8000DB710D00A97B0D0000000000000000004C
:109A900069720D006F720D00AD720D007D720D00C8
:109AA0006B720D000000000000000000A7780D00A0
:109AB0009D780D0093780D0089780D007D780D005C
:109AC00071780D00717B0D00797B0D0065780D00BC
:109AD0005D780D0053780D0049780D00A97B0D00CD
